{
	"StorageFactorl.sol": {
		"SolidityFactory": {
			"abi": [
				{
					"inputs": [],
					"name": "createSimpleStorageContract",
					"outputs": [],
					"stateMutability": "nonpayable",
					"type": "function"
				},
				{
					"inputs": [
						{
							"internalType": "uint256",
							"name": "",
							"type": "uint256"
						}
					],
					"name": "listOfSimpleStorageContracts",
					"outputs": [
						{
							"internalType": "contract SimpleStorage",
							"name": "",
							"type": "address"
						}
					],
					"stateMutability": "view",
					"type": "function"
				},
				{
					"inputs": [
						{
							"internalType": "uint256",
							"name": "_simpleStorageIndex",
							"type": "uint256"
						}
					],
					"name": "sfGet",
					"outputs": [
						{
							"internalType": "uint256",
							"name": "",
							"type": "uint256"
						}
					],
					"stateMutability": "view",
					"type": "function"
				},
				{
					"inputs": [
						{
							"internalType": "uint256",
							"name": "_simpleStorageIndex",
							"type": "uint256"
						},
						{
							"internalType": "uint256",
							"name": "_newSimpleStorageNumber",
							"type": "uint256"
						}
					],
					"name": "sfStore",
					"outputs": [],
					"stateMutability": "nonpayable",
					"type": "function"
				}
			],
			"devdoc": {
				"kind": "dev",
				"methods": {},
				"version": 1
			},
			"evm": {
				"assembly": "    /* \"StorageFactorl.sol\":111:1042  contract SolidityFactory {... */\n  mstore(0x40, 0x80)\n  callvalue\n  dup1\n  iszero\n  tag_1\n  jumpi\n  revert(0x00, 0x00)\ntag_1:\n  pop\n  dataSize(sub_0)\n  dup1\n  dataOffset(sub_0)\n  0x00\n  codecopy\n  0x00\n  return\nstop\n\nsub_0: assembly {\n        /* \"StorageFactorl.sol\":111:1042  contract SolidityFactory {... */\n      mstore(0x40, 0x80)\n      callvalue\n      dup1\n      iszero\n      tag_1\n      jumpi\n      revert(0x00, 0x00)\n    tag_1:\n      pop\n      jumpi(tag_2, lt(calldatasize, 0x04))\n      shr(0xe0, calldataload(0x00))\n      dup1\n      0x1563700f\n      eq\n      tag_3\n      jumpi\n      dup1\n      0x1dda6541\n      eq\n      tag_4\n      jumpi\n      dup1\n      0xc5f19c20\n      eq\n      tag_5\n      jumpi\n      dup1\n      0xf39f3035\n      eq\n      tag_6\n      jumpi\n    tag_2:\n      revert(0x00, 0x00)\n        /* \"StorageFactorl.sol\":517:823  function sfStore(uint256 _simpleStorageIndex, uint256 _newSimpleStorageNumber) public {... */\n    tag_3:\n      tag_7\n      0x04\n      dup1\n      calldatasize\n      sub\n      dup2\n      add\n      swap1\n      tag_8\n      swap2\n      swap1\n      tag_9\n      jump\t// in\n    tag_8:\n      tag_10\n      jump\t// in\n    tag_7:\n      stop\n        /* \"StorageFactorl.sol\":315:507  function createSimpleStorageContract() public {... */\n    tag_4:\n      tag_11\n      tag_12\n      jump\t// in\n    tag_11:\n      stop\n        /* \"StorageFactorl.sol\":829:1040  function sfGet(uint _simpleStorageIndex) public view returns(uint256) {... */\n    tag_5:\n      tag_13\n      0x04\n      dup1\n      calldatasize\n      sub\n      dup2\n      add\n      swap1\n      tag_14\n      swap2\n      swap1\n      tag_15\n      jump\t// in\n    tag_14:\n      tag_16\n      jump\t// in\n    tag_13:\n      mload(0x40)\n      tag_17\n      swap2\n      swap1\n      tag_18\n      jump\t// in\n    tag_17:\n      mload(0x40)\n      dup1\n      swap2\n      sub\n      swap1\n      return\n        /* \"StorageFactorl.sol\":204:255  SimpleStorage[] public listOfSimpleStorageContracts */\n    tag_6:\n      tag_19\n      0x04\n      dup1\n      calldatasize\n      sub\n      dup2\n      add\n      swap1\n      tag_20\n      swap2\n      swap1\n      tag_15\n      jump\t// in\n    tag_20:\n      tag_21\n      jump\t// in\n    tag_19:\n      mload(0x40)\n      tag_22\n      swap2\n      swap1\n      tag_23\n      jump\t// in\n    tag_22:\n      mload(0x40)\n      dup1\n      swap2\n      sub\n      swap1\n      return\n        /* \"StorageFactorl.sol\":517:823  function sfStore(uint256 _simpleStorageIndex, uint256 _newSimpleStorageNumber) public {... */\n    tag_10:\n        /* \"StorageFactorl.sol\":679:708  SimpleStorage mySimpleStorage */\n      0x00\n        /* \"StorageFactorl.sol\":711:739  listOfSimpleStorageContracts */\n      0x00\n        /* \"StorageFactorl.sol\":740:759  _simpleStorageIndex */\n      dup4\n        /* \"StorageFactorl.sol\":711:760  listOfSimpleStorageContracts[_simpleStorageIndex] */\n      dup2\n      sload\n      dup2\n      lt\n      tag_25\n      jumpi\n      tag_26\n      tag_27\n      jump\t// in\n    tag_26:\n    tag_25:\n      swap1\n      0x00\n      mstore\n      keccak256(0x00, 0x20)\n      add\n      0x00\n      swap1\n      sload\n      swap1\n      0x0100\n      exp\n      swap1\n      div\n      0xffffffffffffffffffffffffffffffffffffffff\n      and\n        /* \"StorageFactorl.sol\":679:760  SimpleStorage mySimpleStorage = listOfSimpleStorageContracts[_simpleStorageIndex] */\n      swap1\n      pop\n        /* \"StorageFactorl.sol\":770:785  mySimpleStorage */\n      dup1\n        /* \"StorageFactorl.sol\":770:791  mySimpleStorage.store */\n      0xffffffffffffffffffffffffffffffffffffffff\n      and\n      0x6057361d\n        /* \"StorageFactorl.sol\":792:815  _newSimpleStorageNumber */\n      dup4\n        /* \"StorageFactorl.sol\":770:816  mySimpleStorage.store(_newSimpleStorageNumber) */\n      mload(0x40)\n      dup3\n      0xffffffff\n      and\n      0xe0\n      shl\n      dup2\n      mstore\n      0x04\n      add\n      tag_29\n      swap2\n      swap1\n      tag_18\n      jump\t// in\n    tag_29:\n      0x00\n      mload(0x40)\n      dup1\n      dup4\n      sub\n      dup2\n      0x00\n      dup8\n      dup1\n      extcodesize\n      iszero\n      dup1\n      iszero\n      tag_30\n      jumpi\n      revert(0x00, 0x00)\n    tag_30:\n      pop\n      gas\n      call\n      iszero\n      dup1\n      iszero\n      tag_32\n      jumpi\n      returndatacopy(0x00, 0x00, returndatasize)\n      revert(0x00, returndatasize)\n    tag_32:\n      pop\n      pop\n      pop\n      pop\n        /* \"StorageFactorl.sol\":603:823  {... */\n      pop\n        /* \"StorageFactorl.sol\":517:823  function sfStore(uint256 _simpleStorageIndex, uint256 _newSimpleStorageNumber) public {... */\n      pop\n      pop\n      jump\t// out\n        /* \"StorageFactorl.sol\":315:507  function createSimpleStorageContract() public {... */\n    tag_12:\n        /* \"StorageFactorl.sol\":371:409  SimpleStorage newSimpleStorageContract */\n      0x00\n        /* \"StorageFactorl.sol\":412:431  new SimpleStorage() */\n      mload(0x40)\n      tag_34\n      swap1\n      tag_35\n      jump\t// in\n    tag_34:\n      mload(0x40)\n      dup1\n      swap2\n      sub\n      swap1\n      0x00\n      create\n      dup1\n      iszero\n      dup1\n      iszero\n      tag_36\n      jumpi\n      returndatacopy(0x00, 0x00, returndatasize)\n      revert(0x00, returndatasize)\n    tag_36:\n      pop\n        /* \"StorageFactorl.sol\":371:431  SimpleStorage newSimpleStorageContract = new SimpleStorage() */\n      swap1\n      pop\n        /* \"StorageFactorl.sol\":441:469  listOfSimpleStorageContracts */\n      0x00\n        /* \"StorageFactorl.sol\":475:499  newSimpleStorageContract */\n      dup2\n        /* \"StorageFactorl.sol\":441:500  listOfSimpleStorageContracts.push(newSimpleStorageContract) */\n      swap1\n      dup1\n      0x01\n      dup2\n      sload\n      add\n      dup1\n      dup3\n      sstore\n      dup1\n      swap2\n      pop\n      pop\n      0x01\n      swap1\n      sub\n      swap1\n      0x00\n      mstore\n      keccak256(0x00, 0x20)\n      add\n      0x00\n      swap1\n      swap2\n      swap1\n      swap2\n      swap1\n      swap2\n      0x0100\n      exp\n      dup2\n      sload\n      dup2\n      0xffffffffffffffffffffffffffffffffffffffff\n      mul\n      not\n      and\n      swap1\n      dup4\n      0xffffffffffffffffffffffffffffffffffffffff\n      and\n      mul\n      or\n      swap1\n      sstore\n      pop\n        /* \"StorageFactorl.sol\":361:507  {... */\n      pop\n        /* \"StorageFactorl.sol\":315:507  function createSimpleStorageContract() public {... */\n      jump\t// out\n        /* \"StorageFactorl.sol\":829:1040  function sfGet(uint _simpleStorageIndex) public view returns(uint256) {... */\n    tag_16:\n        /* \"StorageFactorl.sol\":890:897  uint256 */\n      0x00\n        /* \"StorageFactorl.sol\":909:938  SimpleStorage mySimpleStorage */\n      0x00\n        /* \"StorageFactorl.sol\":941:969  listOfSimpleStorageContracts */\n      0x00\n        /* \"StorageFactorl.sol\":970:989  _simpleStorageIndex */\n      dup4\n        /* \"StorageFactorl.sol\":941:990  listOfSimpleStorageContracts[_simpleStorageIndex] */\n      dup2\n      sload\n      dup2\n      lt\n      tag_39\n      jumpi\n      tag_40\n      tag_27\n      jump\t// in\n    tag_40:\n    tag_39:\n      swap1\n      0x00\n      mstore\n      keccak256(0x00, 0x20)\n      add\n      0x00\n      swap1\n      sload\n      swap1\n      0x0100\n      exp\n      swap1\n      div\n      0xffffffffffffffffffffffffffffffffffffffff\n      and\n        /* \"StorageFactorl.sol\":909:990  SimpleStorage mySimpleStorage = listOfSimpleStorageContracts[_simpleStorageIndex] */\n      swap1\n      pop\n        /* \"StorageFactorl.sol\":1007:1022  mySimpleStorage */\n      dup1\n        /* \"StorageFactorl.sol\":1007:1031  mySimpleStorage.retreive */\n      0xffffffffffffffffffffffffffffffffffffffff\n      and\n      0xb05784b8\n        /* \"StorageFactorl.sol\":1007:1033  mySimpleStorage.retreive() */\n      mload(0x40)\n      dup2\n      0xffffffff\n      and\n      0xe0\n      shl\n      dup2\n      mstore\n      0x04\n      add\n      0x20\n      mload(0x40)\n      dup1\n      dup4\n      sub\n      dup2\n      dup7\n      gas\n      staticcall\n      iszero\n      dup1\n      iszero\n      tag_43\n      jumpi\n      returndatacopy(0x00, 0x00, returndatasize)\n      revert(0x00, returndatasize)\n    tag_43:\n      pop\n      pop\n      pop\n      pop\n      mload(0x40)\n      returndatasize\n      not(0x1f)\n      0x1f\n      dup3\n      add\n      and\n      dup3\n      add\n      dup1\n      0x40\n      mstore\n      pop\n      dup2\n      add\n      swap1\n      tag_44\n      swap2\n      swap1\n      tag_45\n      jump\t// in\n    tag_44:\n        /* \"StorageFactorl.sol\":1000:1033  return mySimpleStorage.retreive() */\n      swap2\n      pop\n      pop\n        /* \"StorageFactorl.sol\":829:1040  function sfGet(uint _simpleStorageIndex) public view returns(uint256) {... */\n      swap2\n      swap1\n      pop\n      jump\t// out\n        /* \"StorageFactorl.sol\":204:255  SimpleStorage[] public listOfSimpleStorageContracts */\n    tag_21:\n      0x00\n      dup2\n      dup2\n      sload\n      dup2\n      lt\n      tag_46\n      jumpi\n      0x00\n      dup1\n      revert\n    tag_46:\n      swap1\n      0x00\n      mstore\n      keccak256(0x00, 0x20)\n      add\n      0x00\n      swap2\n      pop\n      sload\n      swap1\n      0x0100\n      exp\n      swap1\n      div\n      0xffffffffffffffffffffffffffffffffffffffff\n      and\n      dup2\n      jump\t// out\n    tag_35:\n      dataSize(sub_0)\n      dup1\n      dataOffset(sub_0)\n      dup4\n      codecopy\n      add\n      swap1\n      jump\t// out\n        /* \"#utility.yul\":88:205   */\n    tag_49:\n        /* \"#utility.yul\":197:198   */\n      0x00\n        /* \"#utility.yul\":194:195   */\n      0x00\n        /* \"#utility.yul\":187:199   */\n      revert\n        /* \"#utility.yul\":334:411   */\n    tag_51:\n        /* \"#utility.yul\":371:378   */\n      0x00\n        /* \"#utility.yul\":400:405   */\n      dup2\n        /* \"#utility.yul\":389:405   */\n      swap1\n      pop\n        /* \"#utility.yul\":334:411   */\n      swap2\n      swap1\n      pop\n      jump\t// out\n        /* \"#utility.yul\":417:539   */\n    tag_52:\n        /* \"#utility.yul\":490:514   */\n      tag_68\n        /* \"#utility.yul\":508:513   */\n      dup2\n        /* \"#utility.yul\":490:514   */\n      tag_51\n      jump\t// in\n    tag_68:\n        /* \"#utility.yul\":483:488   */\n      dup2\n        /* \"#utility.yul\":480:515   */\n      eq\n        /* \"#utility.yul\":470:533   */\n      tag_69\n      jumpi\n        /* \"#utility.yul\":529:530   */\n      0x00\n        /* \"#utility.yul\":526:527   */\n      0x00\n        /* \"#utility.yul\":519:531   */\n      revert\n        /* \"#utility.yul\":470:533   */\n    tag_69:\n        /* \"#utility.yul\":417:539   */\n      pop\n      jump\t// out\n        /* \"#utility.yul\":545:684   */\n    tag_53:\n        /* \"#utility.yul\":591:596   */\n      0x00\n        /* \"#utility.yul\":629:635   */\n      dup2\n        /* \"#utility.yul\":616:636   */\n      calldataload\n        /* \"#utility.yul\":607:636   */\n      swap1\n      pop\n        /* \"#utility.yul\":645:678   */\n      tag_71\n        /* \"#utility.yul\":672:677   */\n      dup2\n        /* \"#utility.yul\":645:678   */\n      tag_52\n      jump\t// in\n    tag_71:\n        /* \"#utility.yul\":545:684   */\n      swap3\n      swap2\n      pop\n      pop\n      jump\t// out\n        /* \"#utility.yul\":690:1164   */\n    tag_9:\n        /* \"#utility.yul\":758:764   */\n      0x00\n        /* \"#utility.yul\":766:772   */\n      0x00\n        /* \"#utility.yul\":815:817   */\n      0x40\n        /* \"#utility.yul\":803:812   */\n      dup4\n        /* \"#utility.yul\":794:801   */\n      dup6\n        /* \"#utility.yul\":790:813   */\n      sub\n        /* \"#utility.yul\":786:818   */\n      slt\n        /* \"#utility.yul\":783:902   */\n      iszero\n      tag_73\n      jumpi\n        /* \"#utility.yul\":821:900   */\n      tag_74\n      tag_49\n      jump\t// in\n    tag_74:\n        /* \"#utility.yul\":783:902   */\n    tag_73:\n        /* \"#utility.yul\":941:942   */\n      0x00\n        /* \"#utility.yul\":966:1019   */\n      tag_75\n        /* \"#utility.yul\":1011:1018   */\n      dup6\n        /* \"#utility.yul\":1002:1008   */\n      dup3\n        /* \"#utility.yul\":991:1000   */\n      dup7\n        /* \"#utility.yul\":987:1009   */\n      add\n        /* \"#utility.yul\":966:1019   */\n      tag_53\n      jump\t// in\n    tag_75:\n        /* \"#utility.yul\":956:1019   */\n      swap3\n      pop\n        /* \"#utility.yul\":912:1029   */\n      pop\n        /* \"#utility.yul\":1068:1070   */\n      0x20\n        /* \"#utility.yul\":1094:1147   */\n      tag_76\n        /* \"#utility.yul\":1139:1146   */\n      dup6\n        /* \"#utility.yul\":1130:1136   */\n      dup3\n        /* \"#utility.yul\":1119:1128   */\n      dup7\n        /* \"#utility.yul\":1115:1137   */\n      add\n        /* \"#utility.yul\":1094:1147   */\n      tag_53\n      jump\t// in\n    tag_76:\n        /* \"#utility.yul\":1084:1147   */\n      swap2\n      pop\n        /* \"#utility.yul\":1039:1157   */\n      pop\n        /* \"#utility.yul\":690:1164   */\n      swap3\n      pop\n      swap3\n      swap1\n      pop\n      jump\t// out\n        /* \"#utility.yul\":1170:1499   */\n    tag_15:\n        /* \"#utility.yul\":1229:1235   */\n      0x00\n        /* \"#utility.yul\":1278:1280   */\n      0x20\n        /* \"#utility.yul\":1266:1275   */\n      dup3\n        /* \"#utility.yul\":1257:1264   */\n      dup5\n        /* \"#utility.yul\":1253:1276   */\n      sub\n        /* \"#utility.yul\":1249:1281   */\n      slt\n        /* \"#utility.yul\":1246:1365   */\n      iszero\n      tag_78\n      jumpi\n        /* \"#utility.yul\":1284:1363   */\n      tag_79\n      tag_49\n      jump\t// in\n    tag_79:\n        /* \"#utility.yul\":1246:1365   */\n    tag_78:\n        /* \"#utility.yul\":1404:1405   */\n      0x00\n        /* \"#utility.yul\":1429:1482   */\n      tag_80\n        /* \"#utility.yul\":1474:1481   */\n      dup5\n        /* \"#utility.yul\":1465:1471   */\n      dup3\n        /* \"#utility.yul\":1454:1463   */\n      dup6\n        /* \"#utility.yul\":1450:1472   */\n      add\n        /* \"#utility.yul\":1429:1482   */\n      tag_53\n      jump\t// in\n    tag_80:\n        /* \"#utility.yul\":1419:1482   */\n      swap2\n      pop\n        /* \"#utility.yul\":1375:1492   */\n      pop\n        /* \"#utility.yul\":1170:1499   */\n      swap3\n      swap2\n      pop\n      pop\n      jump\t// out\n        /* \"#utility.yul\":1505:1623   */\n    tag_54:\n        /* \"#utility.yul\":1592:1616   */\n      tag_82\n        /* \"#utility.yul\":1610:1615   */\n      dup2\n        /* \"#utility.yul\":1592:1616   */\n      tag_51\n      jump\t// in\n    tag_82:\n        /* \"#utility.yul\":1587:1590   */\n      dup3\n        /* \"#utility.yul\":1580:1617   */\n      mstore\n        /* \"#utility.yul\":1505:1623   */\n      pop\n      pop\n      jump\t// out\n        /* \"#utility.yul\":1629:1851   */\n    tag_18:\n        /* \"#utility.yul\":1722:1726   */\n      0x00\n        /* \"#utility.yul\":1760:1762   */\n      0x20\n        /* \"#utility.yul\":1749:1758   */\n      dup3\n        /* \"#utility.yul\":1745:1763   */\n      add\n        /* \"#utility.yul\":1737:1763   */\n      swap1\n      pop\n        /* \"#utility.yul\":1773:1844   */\n      tag_84\n        /* \"#utility.yul\":1841:1842   */\n      0x00\n        /* \"#utility.yul\":1830:1839   */\n      dup4\n        /* \"#utility.yul\":1826:1843   */\n      add\n        /* \"#utility.yul\":1817:1823   */\n      dup5\n        /* \"#utility.yul\":1773:1844   */\n      tag_54\n      jump\t// in\n    tag_84:\n        /* \"#utility.yul\":1629:1851   */\n      swap3\n      swap2\n      pop\n      pop\n      jump\t// out\n        /* \"#utility.yul\":1857:1983   */\n    tag_55:\n        /* \"#utility.yul\":1894:1901   */\n      0x00\n        /* \"#utility.yul\":1934:1976   */\n      0xffffffffffffffffffffffffffffffffffffffff\n        /* \"#utility.yul\":1927:1932   */\n      dup3\n        /* \"#utility.yul\":1923:1977   */\n      and\n        /* \"#utility.yul\":1912:1977   */\n      swap1\n      pop\n        /* \"#utility.yul\":1857:1983   */\n      swap2\n      swap1\n      pop\n      jump\t// out\n        /* \"#utility.yul\":1989:2049   */\n    tag_56:\n        /* \"#utility.yul\":2017:2020   */\n      0x00\n        /* \"#utility.yul\":2038:2043   */\n      dup2\n        /* \"#utility.yul\":2031:2043   */\n      swap1\n      pop\n        /* \"#utility.yul\":1989:2049   */\n      swap2\n      swap1\n      pop\n      jump\t// out\n        /* \"#utility.yul\":2055:2197   */\n    tag_57:\n        /* \"#utility.yul\":2105:2114   */\n      0x00\n        /* \"#utility.yul\":2138:2191   */\n      tag_88\n        /* \"#utility.yul\":2156:2190   */\n      tag_89\n        /* \"#utility.yul\":2165:2189   */\n      tag_90\n        /* \"#utility.yul\":2183:2188   */\n      dup5\n        /* \"#utility.yul\":2165:2189   */\n      tag_55\n      jump\t// in\n    tag_90:\n        /* \"#utility.yul\":2156:2190   */\n      tag_56\n      jump\t// in\n    tag_89:\n        /* \"#utility.yul\":2138:2191   */\n      tag_55\n      jump\t// in\n    tag_88:\n        /* \"#utility.yul\":2125:2191   */\n      swap1\n      pop\n        /* \"#utility.yul\":2055:2197   */\n      swap2\n      swap1\n      pop\n      jump\t// out\n        /* \"#utility.yul\":2203:2329   */\n    tag_58:\n        /* \"#utility.yul\":2253:2262   */\n      0x00\n        /* \"#utility.yul\":2286:2323   */\n      tag_92\n        /* \"#utility.yul\":2317:2322   */\n      dup3\n        /* \"#utility.yul\":2286:2323   */\n      tag_57\n      jump\t// in\n    tag_92:\n        /* \"#utility.yul\":2273:2323   */\n      swap1\n      pop\n        /* \"#utility.yul\":2203:2329   */\n      swap2\n      swap1\n      pop\n      jump\t// out\n        /* \"#utility.yul\":2335:2481   */\n    tag_59:\n        /* \"#utility.yul\":2405:2414   */\n      0x00\n        /* \"#utility.yul\":2438:2475   */\n      tag_94\n        /* \"#utility.yul\":2469:2474   */\n      dup3\n        /* \"#utility.yul\":2438:2475   */\n      tag_58\n      jump\t// in\n    tag_94:\n        /* \"#utility.yul\":2425:2475   */\n      swap1\n      pop\n        /* \"#utility.yul\":2335:2481   */\n      swap2\n      swap1\n      pop\n      jump\t// out\n        /* \"#utility.yul\":2487:2658   */\n    tag_60:\n        /* \"#utility.yul\":2594:2651   */\n      tag_96\n        /* \"#utility.yul\":2645:2650   */\n      dup2\n        /* \"#utility.yul\":2594:2651   */\n      tag_59\n      jump\t// in\n    tag_96:\n        /* \"#utility.yul\":2589:2592   */\n      dup3\n        /* \"#utility.yul\":2582:2652   */\n      mstore\n        /* \"#utility.yul\":2487:2658   */\n      pop\n      pop\n      jump\t// out\n        /* \"#utility.yul\":2664:2926   */\n    tag_23:\n        /* \"#utility.yul\":2777:2781   */\n      0x00\n        /* \"#utility.yul\":2815:2817   */\n      0x20\n        /* \"#utility.yul\":2804:2813   */\n      dup3\n        /* \"#utility.yul\":2800:2818   */\n      add\n        /* \"#utility.yul\":2792:2818   */\n      swap1\n      pop\n        /* \"#utility.yul\":2828:2919   */\n      tag_98\n        /* \"#utility.yul\":2916:2917   */\n      0x00\n        /* \"#utility.yul\":2905:2914   */\n      dup4\n        /* \"#utility.yul\":2901:2918   */\n      add\n        /* \"#utility.yul\":2892:2898   */\n      dup5\n        /* \"#utility.yul\":2828:2919   */\n      tag_60\n      jump\t// in\n    tag_98:\n        /* \"#utility.yul\":2664:2926   */\n      swap3\n      swap2\n      pop\n      pop\n      jump\t// out\n        /* \"#utility.yul\":2932:3112   */\n    tag_27:\n        /* \"#utility.yul\":2980:3057   */\n      0x4e487b7100000000000000000000000000000000000000000000000000000000\n        /* \"#utility.yul\":2977:2978   */\n      0x00\n        /* \"#utility.yul\":2970:3058   */\n      mstore\n        /* \"#utility.yul\":3077:3081   */\n      0x32\n        /* \"#utility.yul\":3074:3075   */\n      0x04\n        /* \"#utility.yul\":3067:3082   */\n      mstore\n        /* \"#utility.yul\":3101:3105   */\n      0x24\n        /* \"#utility.yul\":3098:3099   */\n      0x00\n        /* \"#utility.yul\":3091:3106   */\n      revert\n        /* \"#utility.yul\":3118:3261   */\n    tag_61:\n        /* \"#utility.yul\":3175:3180   */\n      0x00\n        /* \"#utility.yul\":3206:3212   */\n      dup2\n        /* \"#utility.yul\":3200:3213   */\n      mload\n        /* \"#utility.yul\":3191:3213   */\n      swap1\n      pop\n        /* \"#utility.yul\":3222:3255   */\n      tag_101\n        /* \"#utility.yul\":3249:3254   */\n      dup2\n        /* \"#utility.yul\":3222:3255   */\n      tag_52\n      jump\t// in\n    tag_101:\n        /* \"#utility.yul\":3118:3261   */\n      swap3\n      swap2\n      pop\n      pop\n      jump\t// out\n        /* \"#utility.yul\":3267:3618   */\n    tag_45:\n        /* \"#utility.yul\":3337:3343   */\n      0x00\n        /* \"#utility.yul\":3386:3388   */\n      0x20\n        /* \"#utility.yul\":3374:3383   */\n      dup3\n        /* \"#utility.yul\":3365:3372   */\n      dup5\n        /* \"#utility.yul\":3361:3384   */\n      sub\n        /* \"#utility.yul\":3357:3389   */\n      slt\n        /* \"#utility.yul\":3354:3473   */\n      iszero\n      tag_103\n      jumpi\n        /* \"#utility.yul\":3392:3471   */\n      tag_104\n      tag_49\n      jump\t// in\n    tag_104:\n        /* \"#utility.yul\":3354:3473   */\n    tag_103:\n        /* \"#utility.yul\":3512:3513   */\n      0x00\n        /* \"#utility.yul\":3537:3601   */\n      tag_105\n        /* \"#utility.yul\":3593:3600   */\n      dup5\n        /* \"#utility.yul\":3584:3590   */\n      dup3\n        /* \"#utility.yul\":3573:3582   */\n      dup6\n        /* \"#utility.yul\":3569:3591   */\n      add\n        /* \"#utility.yul\":3537:3601   */\n      tag_61\n      jump\t// in\n    tag_105:\n        /* \"#utility.yul\":3527:3601   */\n      swap2\n      pop\n        /* \"#utility.yul\":3483:3611   */\n      pop\n        /* \"#utility.yul\":3267:3618   */\n      swap3\n      swap2\n      pop\n      pop\n      jump\t// out\n    stop\n\n    sub_0: assembly {\n            /* \"SimpleStorage.sol\":79:980  contract SimpleStorage {... */\n          mstore(0x40, 0x80)\n          callvalue\n          dup1\n          iszero\n          tag_1\n          jumpi\n          revert(0x00, 0x00)\n        tag_1:\n          pop\n          dataSize(sub_0)\n          dup1\n          dataOffset(sub_0)\n          0x00\n          codecopy\n          0x00\n          return\n        stop\n\n        sub_0: assembly {\n                /* \"SimpleStorage.sol\":79:980  contract SimpleStorage {... */\n              mstore(0x40, 0x80)\n              callvalue\n              dup1\n              iszero\n              tag_1\n              jumpi\n              revert(0x00, 0x00)\n            tag_1:\n              pop\n              jumpi(tag_2, lt(calldatasize, 0x04))\n              shr(0xe0, calldataload(0x00))\n              dup1\n              0x2ebce631\n              eq\n              tag_3\n              jumpi\n              dup1\n              0x6057361d\n              eq\n              tag_4\n              jumpi\n              dup1\n              0x6f760f41\n              eq\n              tag_5\n              jumpi\n              dup1\n              0xb05784b8\n              eq\n              tag_6\n              jumpi\n              dup1\n              0xfff01a15\n              eq\n              tag_7\n              jumpi\n            tag_2:\n              revert(0x00, 0x00)\n                /* \"SimpleStorage.sol\":347:375  Person[] public listOfPeople */\n            tag_3:\n              tag_8\n              0x04\n              dup1\n              calldatasize\n              sub\n              dup2\n              add\n              swap1\n              tag_9\n              swap2\n              swap1\n              tag_10\n              jump\t// in\n            tag_9:\n              tag_11\n              jump\t// in\n            tag_8:\n              mload(0x40)\n              tag_12\n              swap3\n              swap2\n              swap1\n              tag_13\n              jump\t// in\n            tag_12:\n              mload(0x40)\n              dup1\n              swap2\n              sub\n              swap1\n              return\n                /* \"SimpleStorage.sol\":475:573  function store(uint256 _favoriteNumber) public {... */\n            tag_4:\n              tag_14\n              0x04\n              dup1\n              calldatasize\n              sub\n              dup2\n              add\n              swap1\n              tag_15\n              swap2\n              swap1\n              tag_10\n              jump\t// in\n            tag_15:\n              tag_16\n              jump\t// in\n            tag_14:\n              stop\n                /* \"SimpleStorage.sol\":713:972  function addPerson(string memory _name, uint256 _favoriteNumber) public {... */\n            tag_5:\n              tag_17\n              0x04\n              dup1\n              calldatasize\n              sub\n              dup2\n              add\n              swap1\n              tag_18\n              swap2\n              swap1\n              tag_19\n              jump\t// in\n            tag_18:\n              tag_20\n              jump\t// in\n            tag_17:\n              stop\n                /* \"SimpleStorage.sol\":584:673  function retreive() public view returns(uint256) {... */\n            tag_6:\n              tag_21\n              tag_22\n              jump\t// in\n            tag_21:\n              mload(0x40)\n              tag_23\n              swap2\n              swap1\n              tag_24\n              jump\t// in\n            tag_23:\n              mload(0x40)\n              dup1\n              swap2\n              sub\n              swap1\n              return\n                /* \"SimpleStorage.sol\":411:466  mapping(bytes32 => uint256) public nameToFavoriteNumber */\n            tag_7:\n              tag_25\n              0x04\n              dup1\n              calldatasize\n              sub\n              dup2\n              add\n              swap1\n              tag_26\n              swap2\n              swap1\n              tag_27\n              jump\t// in\n            tag_26:\n              tag_28\n              jump\t// in\n            tag_25:\n              mload(0x40)\n              tag_29\n              swap2\n              swap1\n              tag_24\n              jump\t// in\n            tag_29:\n              mload(0x40)\n              dup1\n              swap2\n              sub\n              swap1\n              return\n                /* \"SimpleStorage.sol\":347:375  Person[] public listOfPeople */\n            tag_11:\n              0x01\n              dup2\n              dup2\n              sload\n              dup2\n              lt\n              tag_30\n              jumpi\n              0x00\n              dup1\n              revert\n            tag_30:\n              swap1\n              0x00\n              mstore\n              keccak256(0x00, 0x20)\n              swap1\n              0x02\n              mul\n              add\n              0x00\n              swap2\n              pop\n              swap1\n              pop\n              dup1\n              0x00\n              add\n              sload\n              swap1\n              dup1\n              0x01\n              add\n              dup1\n              sload\n              tag_32\n              swap1\n              tag_33\n              jump\t// in\n            tag_32:\n              dup1\n              0x1f\n              add\n              0x20\n              dup1\n              swap2\n              div\n              mul\n              0x20\n              add\n              mload(0x40)\n              swap1\n              dup2\n              add\n              0x40\n              mstore\n              dup1\n              swap3\n              swap2\n              swap1\n              dup2\n              dup2\n              mstore\n              0x20\n              add\n              dup3\n              dup1\n              sload\n              tag_34\n              swap1\n              tag_33\n              jump\t// in\n            tag_34:\n              dup1\n              iszero\n              tag_35\n              jumpi\n              dup1\n              0x1f\n              lt\n              tag_36\n              jumpi\n              0x0100\n              dup1\n              dup4\n              sload\n              div\n              mul\n              dup4\n              mstore\n              swap2\n              0x20\n              add\n              swap2\n              jump(tag_35)\n            tag_36:\n              dup3\n              add\n              swap2\n              swap1\n              0x00\n              mstore\n              keccak256(0x00, 0x20)\n              swap1\n            tag_37:\n              dup2\n              sload\n              dup2\n              mstore\n              swap1\n              0x01\n              add\n              swap1\n              0x20\n              add\n              dup1\n              dup4\n              gt\n              tag_37\n              jumpi\n              dup3\n              swap1\n              sub\n              0x1f\n              and\n              dup3\n              add\n              swap2\n            tag_35:\n              pop\n              pop\n              pop\n              pop\n              pop\n              swap1\n              pop\n              dup3\n              jump\t// out\n                /* \"SimpleStorage.sol\":475:573  function store(uint256 _favoriteNumber) public {... */\n            tag_16:\n                /* \"SimpleStorage.sol\":551:566  _favoriteNumber */\n              dup1\n                /* \"SimpleStorage.sol\":532:548  myFavoriteNumber */\n              0x00\n                /* \"SimpleStorage.sol\":532:566  myFavoriteNumber = _favoriteNumber */\n              dup2\n              swap1\n              sstore\n              pop\n                /* \"SimpleStorage.sol\":475:573  function store(uint256 _favoriteNumber) public {... */\n              pop\n              jump\t// out\n                /* \"SimpleStorage.sol\":713:972  function addPerson(string memory _name, uint256 _favoriteNumber) public {... */\n            tag_20:\n                /* \"SimpleStorage.sol\":795:807  listOfPeople */\n              0x01\n                /* \"SimpleStorage.sol\":813:843  Person(_favoriteNumber, _name) */\n              mload(0x40)\n              dup1\n              0x40\n              add\n              0x40\n              mstore\n              dup1\n                /* \"SimpleStorage.sol\":820:835  _favoriteNumber */\n              dup4\n                /* \"SimpleStorage.sol\":813:843  Person(_favoriteNumber, _name) */\n              dup2\n              mstore\n              0x20\n              add\n                /* \"SimpleStorage.sol\":837:842  _name */\n              dup5\n                /* \"SimpleStorage.sol\":813:843  Person(_favoriteNumber, _name) */\n              dup2\n              mstore\n              pop\n                /* \"SimpleStorage.sol\":795:844  listOfPeople.push(Person(_favoriteNumber, _name)) */\n              swap1\n              dup1\n              0x01\n              dup2\n              sload\n              add\n              dup1\n              dup3\n              sstore\n              dup1\n              swap2\n              pop\n              pop\n              0x01\n              swap1\n              sub\n              swap1\n              0x00\n              mstore\n              keccak256(0x00, 0x20)\n              swap1\n              0x02\n              mul\n              add\n              0x00\n              swap1\n              swap2\n              swap1\n              swap2\n              swap1\n              swap2\n              pop\n              0x00\n              dup3\n              add\n              mload\n              dup2\n              0x00\n              add\n              sstore\n              0x20\n              dup3\n              add\n              mload\n              dup2\n              0x01\n              add\n              swap1\n              dup2\n              tag_41\n              swap2\n              swap1\n              tag_42\n              jump\t// in\n            tag_41:\n              pop\n              pop\n              pop\n                /* \"SimpleStorage.sol\":854:870  bytes32 nameHash */\n              0x00\n                /* \"SimpleStorage.sol\":900:905  _name */\n              dup3\n                /* \"SimpleStorage.sol\":883:906  abi.encodePacked(_name) */\n              add(0x20, mload(0x40))\n              tag_43\n              swap2\n              swap1\n              tag_44\n              jump\t// in\n            tag_43:\n              mload(0x40)\n              0x20\n              dup2\n              dup4\n              sub\n              sub\n              dup2\n              mstore\n              swap1\n              0x40\n              mstore\n                /* \"SimpleStorage.sol\":873:907  keccak256(abi.encodePacked(_name)) */\n              dup1\n              mload\n              swap1\n              0x20\n              add\n              keccak256\n                /* \"SimpleStorage.sol\":854:907  bytes32 nameHash = keccak256(abi.encodePacked(_name)) */\n              swap1\n              pop\n                /* \"SimpleStorage.sol\":950:965  _favoriteNumber */\n              dup2\n                /* \"SimpleStorage.sol\":917:937  nameToFavoriteNumber */\n              0x02\n                /* \"SimpleStorage.sol\":917:947  nameToFavoriteNumber[nameHash] */\n              0x00\n                /* \"SimpleStorage.sol\":938:946  nameHash */\n              dup4\n                /* \"SimpleStorage.sol\":917:947  nameToFavoriteNumber[nameHash] */\n              dup2\n              mstore\n              0x20\n              add\n              swap1\n              dup2\n              mstore\n              0x20\n              add\n              0x00\n              keccak256\n                /* \"SimpleStorage.sol\":917:965  nameToFavoriteNumber[nameHash] = _favoriteNumber */\n              dup2\n              swap1\n              sstore\n              pop\n                /* \"SimpleStorage.sol\":785:972  {... */\n              pop\n                /* \"SimpleStorage.sol\":713:972  function addPerson(string memory _name, uint256 _favoriteNumber) public {... */\n              pop\n              pop\n              jump\t// out\n                /* \"SimpleStorage.sol\":584:673  function retreive() public view returns(uint256) {... */\n            tag_22:\n                /* \"SimpleStorage.sol\":624:631  uint256 */\n              0x00\n                /* \"SimpleStorage.sol\":650:666  myFavoriteNumber */\n              sload(0x00)\n                /* \"SimpleStorage.sol\":643:666  return myFavoriteNumber */\n              swap1\n              pop\n                /* \"SimpleStorage.sol\":584:673  function retreive() public view returns(uint256) {... */\n              swap1\n              jump\t// out\n                /* \"SimpleStorage.sol\":411:466  mapping(bytes32 => uint256) public nameToFavoriteNumber */\n            tag_28:\n              mstore(0x20, 0x02)\n              dup1\n              0x00\n              mstore\n              keccak256(0x00, 0x40)\n              0x00\n              swap2\n              pop\n              swap1\n              pop\n              sload\n              dup2\n              jump\t// out\n                /* \"#utility.yul\":7:82   */\n            tag_46:\n                /* \"#utility.yul\":40:46   */\n              0x00\n                /* \"#utility.yul\":73:75   */\n              0x40\n                /* \"#utility.yul\":67:76   */\n              mload\n                /* \"#utility.yul\":57:76   */\n              swap1\n              pop\n                /* \"#utility.yul\":7:82   */\n              swap1\n              jump\t// out\n                /* \"#utility.yul\":88:205   */\n            tag_47:\n                /* \"#utility.yul\":197:198   */\n              0x00\n                /* \"#utility.yul\":194:195   */\n              0x00\n                /* \"#utility.yul\":187:199   */\n              revert\n                /* \"#utility.yul\":211:328   */\n            tag_48:\n                /* \"#utility.yul\":320:321   */\n              0x00\n                /* \"#utility.yul\":317:318   */\n              0x00\n                /* \"#utility.yul\":310:322   */\n              revert\n                /* \"#utility.yul\":334:411   */\n            tag_49:\n                /* \"#utility.yul\":371:378   */\n              0x00\n                /* \"#utility.yul\":400:405   */\n              dup2\n                /* \"#utility.yul\":389:405   */\n              swap1\n              pop\n                /* \"#utility.yul\":334:411   */\n              swap2\n              swap1\n              pop\n              jump\t// out\n                /* \"#utility.yul\":417:539   */\n            tag_50:\n                /* \"#utility.yul\":490:514   */\n              tag_94\n                /* \"#utility.yul\":508:513   */\n              dup2\n                /* \"#utility.yul\":490:514   */\n              tag_49\n              jump\t// in\n            tag_94:\n                /* \"#utility.yul\":483:488   */\n              dup2\n                /* \"#utility.yul\":480:515   */\n              eq\n                /* \"#utility.yul\":470:533   */\n              tag_95\n              jumpi\n                /* \"#utility.yul\":529:530   */\n              0x00\n                /* \"#utility.yul\":526:527   */\n              0x00\n                /* \"#utility.yul\":519:531   */\n              revert\n                /* \"#utility.yul\":470:533   */\n            tag_95:\n                /* \"#utility.yul\":417:539   */\n              pop\n              jump\t// out\n                /* \"#utility.yul\":545:684   */\n            tag_51:\n                /* \"#utility.yul\":591:596   */\n              0x00\n                /* \"#utility.yul\":629:635   */\n              dup2\n                /* \"#utility.yul\":616:636   */\n              calldataload\n                /* \"#utility.yul\":607:636   */\n              swap1\n              pop\n                /* \"#utility.yul\":645:678   */\n              tag_97\n                /* \"#utility.yul\":672:677   */\n              dup2\n                /* \"#utility.yul\":645:678   */\n              tag_50\n              jump\t// in\n            tag_97:\n                /* \"#utility.yul\":545:684   */\n              swap3\n              swap2\n              pop\n              pop\n              jump\t// out\n                /* \"#utility.yul\":690:1019   */\n            tag_10:\n                /* \"#utility.yul\":749:755   */\n              0x00\n                /* \"#utility.yul\":798:800   */\n              0x20\n                /* \"#utility.yul\":786:795   */\n              dup3\n                /* \"#utility.yul\":777:784   */\n              dup5\n                /* \"#utility.yul\":773:796   */\n              sub\n                /* \"#utility.yul\":769:801   */\n              slt\n                /* \"#utility.yul\":766:885   */\n              iszero\n              tag_99\n              jumpi\n                /* \"#utility.yul\":804:883   */\n              tag_100\n              tag_47\n              jump\t// in\n            tag_100:\n                /* \"#utility.yul\":766:885   */\n            tag_99:\n                /* \"#utility.yul\":924:925   */\n              0x00\n                /* \"#utility.yul\":949:1002   */\n              tag_101\n                /* \"#utility.yul\":994:1001   */\n              dup5\n                /* \"#utility.yul\":985:991   */\n              dup3\n                /* \"#utility.yul\":974:983   */\n              dup6\n                /* \"#utility.yul\":970:992   */\n              add\n                /* \"#utility.yul\":949:1002   */\n              tag_51\n              jump\t// in\n            tag_101:\n                /* \"#utility.yul\":939:1002   */\n              swap2\n              pop\n                /* \"#utility.yul\":895:1012   */\n              pop\n                /* \"#utility.yul\":690:1019   */\n              swap3\n              swap2\n              pop\n              pop\n              jump\t// out\n                /* \"#utility.yul\":1025:1143   */\n            tag_52:\n                /* \"#utility.yul\":1112:1136   */\n              tag_103\n                /* \"#utility.yul\":1130:1135   */\n              dup2\n                /* \"#utility.yul\":1112:1136   */\n              tag_49\n              jump\t// in\n            tag_103:\n                /* \"#utility.yul\":1107:1110   */\n              dup3\n                /* \"#utility.yul\":1100:1137   */\n              mstore\n                /* \"#utility.yul\":1025:1143   */\n              pop\n              pop\n              jump\t// out\n                /* \"#utility.yul\":1149:1248   */\n            tag_53:\n                /* \"#utility.yul\":1201:1207   */\n              0x00\n                /* \"#utility.yul\":1235:1240   */\n              dup2\n                /* \"#utility.yul\":1229:1241   */\n              mload\n                /* \"#utility.yul\":1219:1241   */\n              swap1\n              pop\n                /* \"#utility.yul\":1149:1248   */\n              swap2\n              swap1\n              pop\n              jump\t// out\n                /* \"#utility.yul\":1254:1423   */\n            tag_54:\n                /* \"#utility.yul\":1338:1349   */\n              0x00\n                /* \"#utility.yul\":1372:1378   */\n              dup3\n                /* \"#utility.yul\":1367:1370   */\n              dup3\n                /* \"#utility.yul\":1360:1379   */\n              mstore\n                /* \"#utility.yul\":1412:1416   */\n              0x20\n                /* \"#utility.yul\":1407:1410   */\n              dup3\n                /* \"#utility.yul\":1403:1417   */\n              add\n                /* \"#utility.yul\":1388:1417   */\n              swap1\n              pop\n                /* \"#utility.yul\":1254:1423   */\n              swap3\n              swap2\n              pop\n              pop\n              jump\t// out\n                /* \"#utility.yul\":1429:1568   */\n            tag_55:\n                /* \"#utility.yul\":1518:1524   */\n              dup3\n                /* \"#utility.yul\":1513:1516   */\n              dup2\n                /* \"#utility.yul\":1508:1511   */\n              dup4\n                /* \"#utility.yul\":1502:1525   */\n              mcopy\n                /* \"#utility.yul\":1559:1560   */\n              0x00\n                /* \"#utility.yul\":1550:1556   */\n              dup4\n                /* \"#utility.yul\":1545:1548   */\n              dup4\n                /* \"#utility.yul\":1541:1557   */\n              add\n                /* \"#utility.yul\":1534:1561   */\n              mstore\n                /* \"#utility.yul\":1429:1568   */\n              pop\n              pop\n              pop\n              jump\t// out\n                /* \"#utility.yul\":1574:1676   */\n            tag_56:\n                /* \"#utility.yul\":1615:1621   */\n              0x00\n                /* \"#utility.yul\":1666:1668   */\n              0x1f\n                /* \"#utility.yul\":1662:1669   */\n              not\n                /* \"#utility.yul\":1657:1659   */\n              0x1f\n                /* \"#utility.yul\":1650:1655   */\n              dup4\n                /* \"#utility.yul\":1646:1660   */\n              add\n                /* \"#utility.yul\":1642:1670   */\n              and\n                /* \"#utility.yul\":1632:1670   */\n              swap1\n              pop\n                /* \"#utility.yul\":1574:1676   */\n              swap2\n              swap1\n              pop\n              jump\t// out\n                /* \"#utility.yul\":1682:2059   */\n            tag_57:\n                /* \"#utility.yul\":1770:1773   */\n              0x00\n                /* \"#utility.yul\":1798:1837   */\n              tag_109\n                /* \"#utility.yul\":1831:1836   */\n              dup3\n                /* \"#utility.yul\":1798:1837   */\n              tag_53\n              jump\t// in\n            tag_109:\n                /* \"#utility.yul\":1853:1924   */\n              tag_110\n                /* \"#utility.yul\":1917:1923   */\n              dup2\n                /* \"#utility.yul\":1912:1915   */\n              dup6\n                /* \"#utility.yul\":1853:1924   */\n              tag_54\n              jump\t// in\n            tag_110:\n                /* \"#utility.yul\":1846:1924   */\n              swap4\n              pop\n                /* \"#utility.yul\":1933:1998   */\n              tag_111\n                /* \"#utility.yul\":1991:1997   */\n              dup2\n                /* \"#utility.yul\":1986:1989   */\n              dup6\n                /* \"#utility.yul\":1979:1983   */\n              0x20\n                /* \"#utility.yul\":1972:1977   */\n              dup7\n                /* \"#utility.yul\":1968:1984   */\n              add\n                /* \"#utility.yul\":1933:1998   */\n              tag_55\n              jump\t// in\n            tag_111:\n                /* \"#utility.yul\":2023:2052   */\n              tag_112\n                /* \"#utility.yul\":2045:2051   */\n              dup2\n                /* \"#utility.yul\":2023:2052   */\n              tag_56\n              jump\t// in\n            tag_112:\n                /* \"#utility.yul\":2018:2021   */\n              dup5\n                /* \"#utility.yul\":2014:2053   */\n              add\n                /* \"#utility.yul\":2007:2053   */\n              swap2\n              pop\n                /* \"#utility.yul\":1774:2059   */\n              pop\n                /* \"#utility.yul\":1682:2059   */\n              swap3\n              swap2\n              pop\n              pop\n              jump\t// out\n                /* \"#utility.yul\":2065:2488   */\n            tag_13:\n                /* \"#utility.yul\":2206:2210   */\n              0x00\n                /* \"#utility.yul\":2244:2246   */\n              0x40\n                /* \"#utility.yul\":2233:2242   */\n              dup3\n                /* \"#utility.yul\":2229:2247   */\n              add\n                /* \"#utility.yul\":2221:2247   */\n              swap1\n              pop\n                /* \"#utility.yul\":2257:2328   */\n              tag_114\n                /* \"#utility.yul\":2325:2326   */\n              0x00\n                /* \"#utility.yul\":2314:2323   */\n              dup4\n                /* \"#utility.yul\":2310:2327   */\n              add\n                /* \"#utility.yul\":2301:2307   */\n              dup6\n                /* \"#utility.yul\":2257:2328   */\n              tag_52\n              jump\t// in\n            tag_114:\n                /* \"#utility.yul\":2375:2384   */\n              dup2\n                /* \"#utility.yul\":2369:2373   */\n              dup2\n                /* \"#utility.yul\":2365:2385   */\n              sub\n                /* \"#utility.yul\":2360:2362   */\n              0x20\n                /* \"#utility.yul\":2349:2358   */\n              dup4\n                /* \"#utility.yul\":2345:2363   */\n              add\n                /* \"#utility.yul\":2338:2386   */\n              mstore\n                /* \"#utility.yul\":2403:2481   */\n              tag_115\n                /* \"#utility.yul\":2476:2480   */\n              dup2\n                /* \"#utility.yul\":2467:2473   */\n              dup5\n                /* \"#utility.yul\":2403:2481   */\n              tag_57\n              jump\t// in\n            tag_115:\n                /* \"#utility.yul\":2395:2481   */\n              swap1\n              pop\n                /* \"#utility.yul\":2065:2488   */\n              swap4\n              swap3\n              pop\n              pop\n              pop\n              jump\t// out\n                /* \"#utility.yul\":2494:2611   */\n            tag_58:\n                /* \"#utility.yul\":2603:2604   */\n              0x00\n                /* \"#utility.yul\":2600:2601   */\n              0x00\n                /* \"#utility.yul\":2593:2605   */\n              revert\n                /* \"#utility.yul\":2617:2734   */\n            tag_59:\n                /* \"#utility.yul\":2726:2727   */\n              0x00\n                /* \"#utility.yul\":2723:2724   */\n              0x00\n                /* \"#utility.yul\":2716:2728   */\n              revert\n                /* \"#utility.yul\":2740:2920   */\n            tag_60:\n                /* \"#utility.yul\":2788:2865   */\n              0x4e487b7100000000000000000000000000000000000000000000000000000000\n                /* \"#utility.yul\":2785:2786   */\n              0x00\n                /* \"#utility.yul\":2778:2866   */\n              mstore\n                /* \"#utility.yul\":2885:2889   */\n              0x41\n                /* \"#utility.yul\":2882:2883   */\n              0x04\n                /* \"#utility.yul\":2875:2890   */\n              mstore\n                /* \"#utility.yul\":2909:2913   */\n              0x24\n                /* \"#utility.yul\":2906:2907   */\n              0x00\n                /* \"#utility.yul\":2899:2914   */\n              revert\n                /* \"#utility.yul\":2926:3207   */\n            tag_61:\n                /* \"#utility.yul\":3009:3036   */\n              tag_120\n                /* \"#utility.yul\":3031:3035   */\n              dup3\n                /* \"#utility.yul\":3009:3036   */\n              tag_56\n              jump\t// in\n            tag_120:\n                /* \"#utility.yul\":3001:3007   */\n              dup2\n                /* \"#utility.yul\":2997:3037   */\n              add\n                /* \"#utility.yul\":3139:3145   */\n              dup2\n                /* \"#utility.yul\":3127:3137   */\n              dup2\n                /* \"#utility.yul\":3124:3146   */\n              lt\n                /* \"#utility.yul\":3103:3121   */\n              0xffffffffffffffff\n                /* \"#utility.yul\":3091:3101   */\n              dup3\n                /* \"#utility.yul\":3088:3122   */\n              gt\n                /* \"#utility.yul\":3085:3147   */\n              or\n                /* \"#utility.yul\":3082:3170   */\n              iszero\n              tag_121\n              jumpi\n                /* \"#utility.yul\":3150:3168   */\n              tag_122\n              tag_60\n              jump\t// in\n            tag_122:\n                /* \"#utility.yul\":3082:3170   */\n            tag_121:\n                /* \"#utility.yul\":3190:3200   */\n              dup1\n                /* \"#utility.yul\":3186:3188   */\n              0x40\n                /* \"#utility.yul\":3179:3201   */\n              mstore\n                /* \"#utility.yul\":2969:3207   */\n              pop\n                /* \"#utility.yul\":2926:3207   */\n              pop\n              pop\n              jump\t// out\n                /* \"#utility.yul\":3213:3342   */\n            tag_62:\n                /* \"#utility.yul\":3247:3253   */\n              0x00\n                /* \"#utility.yul\":3274:3294   */\n              tag_124\n              tag_46\n              jump\t// in\n            tag_124:\n                /* \"#utility.yul\":3264:3294   */\n              swap1\n              pop\n                /* \"#utility.yul\":3303:3336   */\n              tag_125\n                /* \"#utility.yul\":3331:3335   */\n              dup3\n                /* \"#utility.yul\":3323:3329   */\n              dup3\n                /* \"#utility.yul\":3303:3336   */\n              tag_61\n              jump\t// in\n            tag_125:\n                /* \"#utility.yul\":3213:3342   */\n              swap2\n              swap1\n              pop\n              jump\t// out\n                /* \"#utility.yul\":3348:3656   */\n            tag_63:\n                /* \"#utility.yul\":3410:3414   */\n              0x00\n                /* \"#utility.yul\":3500:3518   */\n              0xffffffffffffffff\n                /* \"#utility.yul\":3492:3498   */\n              dup3\n                /* \"#utility.yul\":3489:3519   */\n              gt\n                /* \"#utility.yul\":3486:3542   */\n              iszero\n              tag_127\n              jumpi\n                /* \"#utility.yul\":3522:3540   */\n              tag_128\n              tag_60\n              jump\t// in\n            tag_128:\n                /* \"#utility.yul\":3486:3542   */\n            tag_127:\n                /* \"#utility.yul\":3560:3589   */\n              tag_129\n                /* \"#utility.yul\":3582:3588   */\n              dup3\n                /* \"#utility.yul\":3560:3589   */\n              tag_56\n              jump\t// in\n            tag_129:\n                /* \"#utility.yul\":3552:3589   */\n              swap1\n              pop\n                /* \"#utility.yul\":3644:3648   */\n              0x20\n                /* \"#utility.yul\":3638:3642   */\n              dup2\n                /* \"#utility.yul\":3634:3649   */\n              add\n                /* \"#utility.yul\":3626:3649   */\n              swap1\n              pop\n                /* \"#utility.yul\":3348:3656   */\n              swap2\n              swap1\n              pop\n              jump\t// out\n                /* \"#utility.yul\":3662:3810   */\n            tag_64:\n                /* \"#utility.yul\":3760:3766   */\n              dup3\n                /* \"#utility.yul\":3755:3758   */\n              dup2\n                /* \"#utility.yul\":3750:3753   */\n              dup4\n                /* \"#utility.yul\":3737:3767   */\n              calldatacopy\n                /* \"#utility.yul\":3801:3802   */\n              0x00\n                /* \"#utility.yul\":3792:3798   */\n              dup4\n                /* \"#utility.yul\":3787:3790   */\n              dup4\n                /* \"#utility.yul\":3783:3799   */\n              add\n                /* \"#utility.yul\":3776:3803   */\n              mstore\n                /* \"#utility.yul\":3662:3810   */\n              pop\n              pop\n              pop\n              jump\t// out\n                /* \"#utility.yul\":3816:4241   */\n            tag_65:\n                /* \"#utility.yul\":3894:3899   */\n              0x00\n                /* \"#utility.yul\":3919:3985   */\n              tag_132\n                /* \"#utility.yul\":3935:3984   */\n              tag_133\n                /* \"#utility.yul\":3977:3983   */\n              dup5\n                /* \"#utility.yul\":3935:3984   */\n              tag_63\n              jump\t// in\n            tag_133:\n                /* \"#utility.yul\":3919:3985   */\n              tag_62\n              jump\t// in\n            tag_132:\n                /* \"#utility.yul\":3910:3985   */\n              swap1\n              pop\n                /* \"#utility.yul\":4008:4014   */\n              dup3\n                /* \"#utility.yul\":4001:4006   */\n              dup2\n                /* \"#utility.yul\":3994:4015   */\n              mstore\n                /* \"#utility.yul\":4046:4050   */\n              0x20\n                /* \"#utility.yul\":4039:4044   */\n              dup2\n                /* \"#utility.yul\":4035:4051   */\n              add\n                /* \"#utility.yul\":4084:4087   */\n              dup5\n                /* \"#utility.yul\":4075:4081   */\n              dup5\n                /* \"#utility.yul\":4070:4073   */\n              dup5\n                /* \"#utility.yul\":4066:4082   */\n              add\n                /* \"#utility.yul\":4063:4088   */\n              gt\n                /* \"#utility.yul\":4060:4172   */\n              iszero\n              tag_134\n              jumpi\n                /* \"#utility.yul\":4091:4170   */\n              tag_135\n              tag_59\n              jump\t// in\n            tag_135:\n                /* \"#utility.yul\":4060:4172   */\n            tag_134:\n                /* \"#utility.yul\":4181:4235   */\n              tag_136\n                /* \"#utility.yul\":4228:4234   */\n              dup5\n                /* \"#utility.yul\":4223:4226   */\n              dup3\n                /* \"#utility.yul\":4218:4221   */\n              dup6\n                /* \"#utility.yul\":4181:4235   */\n              tag_64\n              jump\t// in\n            tag_136:\n                /* \"#utility.yul\":3900:4241   */\n              pop\n                /* \"#utility.yul\":3816:4241   */\n              swap4\n              swap3\n              pop\n              pop\n              pop\n              jump\t// out\n                /* \"#utility.yul\":4261:4601   */\n            tag_66:\n                /* \"#utility.yul\":4317:4322   */\n              0x00\n                /* \"#utility.yul\":4366:4369   */\n              dup3\n                /* \"#utility.yul\":4359:4363   */\n              0x1f\n                /* \"#utility.yul\":4351:4357   */\n              dup4\n                /* \"#utility.yul\":4347:4364   */\n              add\n                /* \"#utility.yul\":4343:4370   */\n              slt\n                /* \"#utility.yul\":4333:4455   */\n              tag_138\n              jumpi\n                /* \"#utility.yul\":4374:4453   */\n              tag_139\n              tag_58\n              jump\t// in\n            tag_139:\n                /* \"#utility.yul\":4333:4455   */\n            tag_138:\n                /* \"#utility.yul\":4491:4497   */\n              dup2\n                /* \"#utility.yul\":4478:4498   */\n              calldataload\n                /* \"#utility.yul\":4516:4595   */\n              tag_140\n                /* \"#utility.yul\":4591:4594   */\n              dup5\n                /* \"#utility.yul\":4583:4589   */\n              dup3\n                /* \"#utility.yul\":4576:4580   */\n              0x20\n                /* \"#utility.yul\":4568:4574   */\n              dup7\n                /* \"#utility.yul\":4564:4581   */\n              add\n                /* \"#utility.yul\":4516:4595   */\n              tag_65\n              jump\t// in\n            tag_140:\n                /* \"#utility.yul\":4507:4595   */\n              swap2\n              pop\n                /* \"#utility.yul\":4323:4601   */\n              pop\n                /* \"#utility.yul\":4261:4601   */\n              swap3\n              swap2\n              pop\n              pop\n              jump\t// out\n                /* \"#utility.yul\":4607:5261   */\n            tag_19:\n                /* \"#utility.yul\":4685:4691   */\n              0x00\n                /* \"#utility.yul\":4693:4699   */\n              0x00\n                /* \"#utility.yul\":4742:4744   */\n              0x40\n                /* \"#utility.yul\":4730:4739   */\n              dup4\n                /* \"#utility.yul\":4721:4728   */\n              dup6\n                /* \"#utility.yul\":4717:4740   */\n              sub\n                /* \"#utility.yul\":4713:4745   */\n              slt\n                /* \"#utility.yul\":4710:4829   */\n              iszero\n              tag_142\n              jumpi\n                /* \"#utility.yul\":4748:4827   */\n              tag_143\n              tag_47\n              jump\t// in\n            tag_143:\n                /* \"#utility.yul\":4710:4829   */\n            tag_142:\n                /* \"#utility.yul\":4896:4897   */\n              0x00\n                /* \"#utility.yul\":4885:4894   */\n              dup4\n                /* \"#utility.yul\":4881:4898   */\n              add\n                /* \"#utility.yul\":4868:4899   */\n              calldataload\n                /* \"#utility.yul\":4926:4944   */\n              0xffffffffffffffff\n                /* \"#utility.yul\":4918:4924   */\n              dup2\n                /* \"#utility.yul\":4915:4945   */\n              gt\n                /* \"#utility.yul\":4912:5029   */\n              iszero\n              tag_144\n              jumpi\n                /* \"#utility.yul\":4948:5027   */\n              tag_145\n              tag_48\n              jump\t// in\n            tag_145:\n                /* \"#utility.yul\":4912:5029   */\n            tag_144:\n                /* \"#utility.yul\":5053:5116   */\n              tag_146\n                /* \"#utility.yul\":5108:5115   */\n              dup6\n                /* \"#utility.yul\":5099:5105   */\n              dup3\n                /* \"#utility.yul\":5088:5097   */\n              dup7\n                /* \"#utility.yul\":5084:5106   */\n              add\n                /* \"#utility.yul\":5053:5116   */\n              tag_66\n              jump\t// in\n            tag_146:\n                /* \"#utility.yul\":5043:5116   */\n              swap3\n              pop\n                /* \"#utility.yul\":4839:5126   */\n              pop\n                /* \"#utility.yul\":5165:5167   */\n              0x20\n                /* \"#utility.yul\":5191:5244   */\n              tag_147\n                /* \"#utility.yul\":5236:5243   */\n              dup6\n                /* \"#utility.yul\":5227:5233   */\n              dup3\n                /* \"#utility.yul\":5216:5225   */\n              dup7\n                /* \"#utility.yul\":5212:5234   */\n              add\n                /* \"#utility.yul\":5191:5244   */\n              tag_51\n              jump\t// in\n            tag_147:\n                /* \"#utility.yul\":5181:5244   */\n              swap2\n              pop\n                /* \"#utility.yul\":5136:5254   */\n              pop\n                /* \"#utility.yul\":4607:5261   */\n              swap3\n              pop\n              swap3\n              swap1\n              pop\n              jump\t// out\n                /* \"#utility.yul\":5267:5489   */\n            tag_24:\n                /* \"#utility.yul\":5360:5364   */\n              0x00\n                /* \"#utility.yul\":5398:5400   */\n              0x20\n                /* \"#utility.yul\":5387:5396   */\n              dup3\n                /* \"#utility.yul\":5383:5401   */\n              add\n                /* \"#utility.yul\":5375:5401   */\n              swap1\n              pop\n                /* \"#utility.yul\":5411:5482   */\n              tag_149\n                /* \"#utility.yul\":5479:5480   */\n              0x00\n                /* \"#utility.yul\":5468:5477   */\n              dup4\n                /* \"#utility.yul\":5464:5481   */\n              add\n                /* \"#utility.yul\":5455:5461   */\n              dup5\n                /* \"#utility.yul\":5411:5482   */\n              tag_52\n              jump\t// in\n            tag_149:\n                /* \"#utility.yul\":5267:5489   */\n              swap3\n              swap2\n              pop\n              pop\n              jump\t// out\n                /* \"#utility.yul\":5495:5572   */\n            tag_67:\n                /* \"#utility.yul\":5532:5539   */\n              0x00\n                /* \"#utility.yul\":5561:5566   */\n              dup2\n                /* \"#utility.yul\":5550:5566   */\n              swap1\n              pop\n                /* \"#utility.yul\":5495:5572   */\n              swap2\n              swap1\n              pop\n              jump\t// out\n                /* \"#utility.yul\":5578:5700   */\n            tag_68:\n                /* \"#utility.yul\":5651:5675   */\n              tag_152\n                /* \"#utility.yul\":5669:5674   */\n              dup2\n                /* \"#utility.yul\":5651:5675   */\n              tag_67\n              jump\t// in\n            tag_152:\n                /* \"#utility.yul\":5644:5649   */\n              dup2\n                /* \"#utility.yul\":5641:5676   */\n              eq\n                /* \"#utility.yul\":5631:5694   */\n              tag_153\n              jumpi\n                /* \"#utility.yul\":5690:5691   */\n              0x00\n                /* \"#utility.yul\":5687:5688   */\n              0x00\n                /* \"#utility.yul\":5680:5692   */\n              revert\n                /* \"#utility.yul\":5631:5694   */\n            tag_153:\n                /* \"#utility.yul\":5578:5700   */\n              pop\n              jump\t// out\n                /* \"#utility.yul\":5706:5845   */\n            tag_69:\n                /* \"#utility.yul\":5752:5757   */\n              0x00\n                /* \"#utility.yul\":5790:5796   */\n              dup2\n                /* \"#utility.yul\":5777:5797   */\n              calldataload\n                /* \"#utility.yul\":5768:5797   */\n              swap1\n              pop\n                /* \"#utility.yul\":5806:5839   */\n              tag_155\n                /* \"#utility.yul\":5833:5838   */\n              dup2\n                /* \"#utility.yul\":5806:5839   */\n              tag_68\n              jump\t// in\n            tag_155:\n                /* \"#utility.yul\":5706:5845   */\n              swap3\n              swap2\n              pop\n              pop\n              jump\t// out\n                /* \"#utility.yul\":5851:6180   */\n            tag_27:\n                /* \"#utility.yul\":5910:5916   */\n              0x00\n                /* \"#utility.yul\":5959:5961   */\n              0x20\n                /* \"#utility.yul\":5947:5956   */\n              dup3\n                /* \"#utility.yul\":5938:5945   */\n              dup5\n                /* \"#utility.yul\":5934:5957   */\n              sub\n                /* \"#utility.yul\":5930:5962   */\n              slt\n                /* \"#utility.yul\":5927:6046   */\n              iszero\n              tag_157\n              jumpi\n                /* \"#utility.yul\":5965:6044   */\n              tag_158\n              tag_47\n              jump\t// in\n            tag_158:\n                /* \"#utility.yul\":5927:6046   */\n            tag_157:\n                /* \"#utility.yul\":6085:6086   */\n              0x00\n                /* \"#utility.yul\":6110:6163   */\n              tag_159\n                /* \"#utility.yul\":6155:6162   */\n              dup5\n                /* \"#utility.yul\":6146:6152   */\n              dup3\n                /* \"#utility.yul\":6135:6144   */\n              dup6\n                /* \"#utility.yul\":6131:6153   */\n              add\n                /* \"#utility.yul\":6110:6163   */\n              tag_69\n              jump\t// in\n            tag_159:\n                /* \"#utility.yul\":6100:6163   */\n              swap2\n              pop\n                /* \"#utility.yul\":6056:6173   */\n              pop\n                /* \"#utility.yul\":5851:6180   */\n              swap3\n              swap2\n              pop\n              pop\n              jump\t// out\n                /* \"#utility.yul\":6186:6366   */\n            tag_70:\n                /* \"#utility.yul\":6234:6311   */\n              0x4e487b7100000000000000000000000000000000000000000000000000000000\n                /* \"#utility.yul\":6231:6232   */\n              0x00\n                /* \"#utility.yul\":6224:6312   */\n              mstore\n                /* \"#utility.yul\":6331:6335   */\n              0x22\n                /* \"#utility.yul\":6328:6329   */\n              0x04\n                /* \"#utility.yul\":6321:6336   */\n              mstore\n                /* \"#utility.yul\":6355:6359   */\n              0x24\n                /* \"#utility.yul\":6352:6353   */\n              0x00\n                /* \"#utility.yul\":6345:6360   */\n              revert\n                /* \"#utility.yul\":6372:6692   */\n            tag_33:\n                /* \"#utility.yul\":6416:6422   */\n              0x00\n                /* \"#utility.yul\":6453:6454   */\n              0x02\n                /* \"#utility.yul\":6447:6451   */\n              dup3\n                /* \"#utility.yul\":6443:6455   */\n              div\n                /* \"#utility.yul\":6433:6455   */\n              swap1\n              pop\n                /* \"#utility.yul\":6500:6501   */\n              0x01\n                /* \"#utility.yul\":6494:6498   */\n              dup3\n                /* \"#utility.yul\":6490:6502   */\n              and\n                /* \"#utility.yul\":6521:6539   */\n              dup1\n                /* \"#utility.yul\":6511:6592   */\n              tag_162\n              jumpi\n                /* \"#utility.yul\":6577:6581   */\n              0x7f\n                /* \"#utility.yul\":6569:6575   */\n              dup3\n                /* \"#utility.yul\":6565:6582   */\n              and\n                /* \"#utility.yul\":6555:6582   */\n              swap2\n              pop\n                /* \"#utility.yul\":6511:6592   */\n            tag_162:\n                /* \"#utility.yul\":6639:6641   */\n              0x20\n                /* \"#utility.yul\":6631:6637   */\n              dup3\n                /* \"#utility.yul\":6628:6642   */\n              lt\n                /* \"#utility.yul\":6608:6626   */\n              dup2\n                /* \"#utility.yul\":6605:6643   */\n              sub\n                /* \"#utility.yul\":6602:6686   */\n              tag_163\n              jumpi\n                /* \"#utility.yul\":6658:6676   */\n              tag_164\n              tag_70\n              jump\t// in\n            tag_164:\n                /* \"#utility.yul\":6602:6686   */\n            tag_163:\n                /* \"#utility.yul\":6423:6692   */\n              pop\n                /* \"#utility.yul\":6372:6692   */\n              swap2\n              swap1\n              pop\n              jump\t// out\n                /* \"#utility.yul\":6698:6839   */\n            tag_71:\n                /* \"#utility.yul\":6747:6751   */\n              0x00\n                /* \"#utility.yul\":6770:6773   */\n              dup2\n                /* \"#utility.yul\":6762:6773   */\n              swap1\n              pop\n                /* \"#utility.yul\":6793:6796   */\n              dup2\n                /* \"#utility.yul\":6790:6791   */\n              0x00\n                /* \"#utility.yul\":6783:6797   */\n              mstore\n                /* \"#utility.yul\":6827:6831   */\n              0x20\n                /* \"#utility.yul\":6824:6825   */\n              0x00\n                /* \"#utility.yul\":6814:6832   */\n              keccak256\n                /* \"#utility.yul\":6806:6832   */\n              swap1\n              pop\n                /* \"#utility.yul\":6698:6839   */\n              swap2\n              swap1\n              pop\n              jump\t// out\n                /* \"#utility.yul\":6845:6938   */\n            tag_72:\n                /* \"#utility.yul\":6882:6888   */\n              0x00\n                /* \"#utility.yul\":6929:6931   */\n              0x20\n                /* \"#utility.yul\":6924:6926   */\n              0x1f\n                /* \"#utility.yul\":6917:6922   */\n              dup4\n                /* \"#utility.yul\":6913:6927   */\n              add\n                /* \"#utility.yul\":6909:6932   */\n              div\n                /* \"#utility.yul\":6899:6932   */\n              swap1\n              pop\n                /* \"#utility.yul\":6845:6938   */\n              swap2\n              swap1\n              pop\n              jump\t// out\n                /* \"#utility.yul\":6944:7051   */\n            tag_73:\n                /* \"#utility.yul\":6988:6996   */\n              0x00\n                /* \"#utility.yul\":7038:7043   */\n              dup3\n                /* \"#utility.yul\":7032:7036   */\n              dup3\n                /* \"#utility.yul\":7028:7044   */\n              shl\n                /* \"#utility.yul\":7007:7044   */\n              swap1\n              pop\n                /* \"#utility.yul\":6944:7051   */\n              swap3\n              swap2\n              pop\n              pop\n              jump\t// out\n                /* \"#utility.yul\":7057:7450   */\n            tag_74:\n                /* \"#utility.yul\":7126:7132   */\n              0x00\n                /* \"#utility.yul\":7176:7177   */\n              0x08\n                /* \"#utility.yul\":7164:7174   */\n              dup4\n                /* \"#utility.yul\":7160:7178   */\n              mul\n                /* \"#utility.yul\":7199:7296   */\n              tag_169\n                /* \"#utility.yul\":7229:7295   */\n              0xffffffffffffffffffffffffffffffffffffffffffffffffffffffffffffffff\n                /* \"#utility.yul\":7218:7227   */\n              dup3\n                /* \"#utility.yul\":7199:7296   */\n              tag_73\n              jump\t// in\n            tag_169:\n                /* \"#utility.yul\":7317:7356   */\n              tag_170\n                /* \"#utility.yul\":7347:7355   */\n              dup7\n                /* \"#utility.yul\":7336:7345   */\n              dup4\n                /* \"#utility.yul\":7317:7356   */\n              tag_73\n              jump\t// in\n            tag_170:\n                /* \"#utility.yul\":7305:7356   */\n              swap6\n              pop\n                /* \"#utility.yul\":7389:7393   */\n              dup1\n                /* \"#utility.yul\":7385:7394   */\n              not\n                /* \"#utility.yul\":7378:7383   */\n              dup5\n                /* \"#utility.yul\":7374:7395   */\n              and\n                /* \"#utility.yul\":7365:7395   */\n              swap4\n              pop\n                /* \"#utility.yul\":7438:7442   */\n              dup1\n                /* \"#utility.yul\":7428:7436   */\n              dup7\n                /* \"#utility.yul\":7424:7443   */\n              and\n                /* \"#utility.yul\":7417:7422   */\n              dup5\n                /* \"#utility.yul\":7414:7444   */\n              or\n                /* \"#utility.yul\":7404:7444   */\n              swap3\n              pop\n                /* \"#utility.yul\":7133:7450   */\n              pop\n              pop\n                /* \"#utility.yul\":7057:7450   */\n              swap4\n              swap3\n              pop\n              pop\n              pop\n              jump\t// out\n                /* \"#utility.yul\":7456:7516   */\n            tag_75:\n                /* \"#utility.yul\":7484:7487   */\n              0x00\n                /* \"#utility.yul\":7505:7510   */\n              dup2\n                /* \"#utility.yul\":7498:7510   */\n              swap1\n              pop\n                /* \"#utility.yul\":7456:7516   */\n              swap2\n              swap1\n              pop\n              jump\t// out\n                /* \"#utility.yul\":7522:7664   */\n            tag_76:\n                /* \"#utility.yul\":7572:7581   */\n              0x00\n                /* \"#utility.yul\":7605:7658   */\n              tag_173\n                /* \"#utility.yul\":7623:7657   */\n              tag_174\n                /* \"#utility.yul\":7632:7656   */\n              tag_175\n                /* \"#utility.yul\":7650:7655   */\n              dup5\n                /* \"#utility.yul\":7632:7656   */\n              tag_49\n              jump\t// in\n            tag_175:\n                /* \"#utility.yul\":7623:7657   */\n              tag_75\n              jump\t// in\n            tag_174:\n                /* \"#utility.yul\":7605:7658   */\n              tag_49\n              jump\t// in\n            tag_173:\n                /* \"#utility.yul\":7592:7658   */\n              swap1\n              pop\n                /* \"#utility.yul\":7522:7664   */\n              swap2\n              swap1\n              pop\n              jump\t// out\n                /* \"#utility.yul\":7670:7745   */\n            tag_77:\n                /* \"#utility.yul\":7713:7716   */\n              0x00\n                /* \"#utility.yul\":7734:7739   */\n              dup2\n                /* \"#utility.yul\":7727:7739   */\n              swap1\n              pop\n                /* \"#utility.yul\":7670:7745   */\n              swap2\n              swap1\n              pop\n              jump\t// out\n                /* \"#utility.yul\":7751:8020   */\n            tag_78:\n                /* \"#utility.yul\":7861:7900   */\n              tag_178\n                /* \"#utility.yul\":7892:7899   */\n              dup4\n                /* \"#utility.yul\":7861:7900   */\n              tag_76\n              jump\t// in\n            tag_178:\n                /* \"#utility.yul\":7922:8013   */\n              tag_179\n                /* \"#utility.yul\":7971:8012   */\n              tag_180\n                /* \"#utility.yul\":7995:8011   */\n              dup3\n                /* \"#utility.yul\":7971:8012   */\n              tag_77\n              jump\t// in\n            tag_180:\n                /* \"#utility.yul\":7963:7969   */\n              dup5\n                /* \"#utility.yul\":7956:7960   */\n              dup5\n                /* \"#utility.yul\":7950:7961   */\n              sload\n                /* \"#utility.yul\":7922:8013   */\n              tag_74\n              jump\t// in\n            tag_179:\n                /* \"#utility.yul\":7916:7920   */\n              dup3\n                /* \"#utility.yul\":7909:8014   */\n              sstore\n                /* \"#utility.yul\":7827:8020   */\n              pop\n                /* \"#utility.yul\":7751:8020   */\n              pop\n              pop\n              pop\n              jump\t// out\n                /* \"#utility.yul\":8026:8099   */\n            tag_79:\n                /* \"#utility.yul\":8071:8074   */\n              0x00\n                /* \"#utility.yul\":8092:8093   */\n              0x00\n                /* \"#utility.yul\":8085:8093   */\n              swap1\n              pop\n                /* \"#utility.yul\":8026:8099   */\n              swap1\n              jump\t// out\n                /* \"#utility.yul\":8105:8294   */\n            tag_80:\n                /* \"#utility.yul\":8182:8214   */\n              tag_183\n              tag_79\n              jump\t// in\n            tag_183:\n                /* \"#utility.yul\":8223:8288   */\n              tag_184\n                /* \"#utility.yul\":8281:8287   */\n              dup2\n                /* \"#utility.yul\":8273:8279   */\n              dup5\n                /* \"#utility.yul\":8267:8271   */\n              dup5\n                /* \"#utility.yul\":8223:8288   */\n              tag_78\n              jump\t// in\n            tag_184:\n                /* \"#utility.yul\":8158:8294   */\n              pop\n                /* \"#utility.yul\":8105:8294   */\n              pop\n              pop\n              jump\t// out\n                /* \"#utility.yul\":8300:8486   */\n            tag_81:\n                /* \"#utility.yul\":8360:8480   */\n            tag_186:\n                /* \"#utility.yul\":8377:8380   */\n              dup2\n                /* \"#utility.yul\":8370:8375   */\n              dup2\n                /* \"#utility.yul\":8367:8381   */\n              lt\n                /* \"#utility.yul\":8360:8480   */\n              iszero\n              tag_188\n              jumpi\n                /* \"#utility.yul\":8431:8470   */\n              tag_189\n                /* \"#utility.yul\":8468:8469   */\n              0x00\n                /* \"#utility.yul\":8461:8466   */\n              dup3\n                /* \"#utility.yul\":8431:8470   */\n              tag_80\n              jump\t// in\n            tag_189:\n                /* \"#utility.yul\":8404:8405   */\n              0x01\n                /* \"#utility.yul\":8397:8402   */\n              dup2\n                /* \"#utility.yul\":8393:8406   */\n              add\n                /* \"#utility.yul\":8384:8406   */\n              swap1\n              pop\n                /* \"#utility.yul\":8360:8480   */\n              jump(tag_186)\n            tag_188:\n                /* \"#utility.yul\":8300:8486   */\n              pop\n              pop\n              jump\t// out\n                /* \"#utility.yul\":8492:9035   */\n            tag_82:\n                /* \"#utility.yul\":8593:8595   */\n              0x1f\n                /* \"#utility.yul\":8588:8591   */\n              dup3\n                /* \"#utility.yul\":8585:8596   */\n              gt\n                /* \"#utility.yul\":8582:9028   */\n              iszero\n              tag_191\n              jumpi\n                /* \"#utility.yul\":8627:8665   */\n              tag_192\n                /* \"#utility.yul\":8659:8664   */\n              dup2\n                /* \"#utility.yul\":8627:8665   */\n              tag_71\n              jump\t// in\n            tag_192:\n                /* \"#utility.yul\":8711:8740   */\n              tag_193\n                /* \"#utility.yul\":8729:8739   */\n              dup5\n                /* \"#utility.yul\":8711:8740   */\n              tag_72\n              jump\t// in\n            tag_193:\n                /* \"#utility.yul\":8701:8709   */\n              dup2\n                /* \"#utility.yul\":8697:8741   */\n              add\n                /* \"#utility.yul\":8894:8896   */\n              0x20\n                /* \"#utility.yul\":8882:8892   */\n              dup6\n                /* \"#utility.yul\":8879:8897   */\n              lt\n                /* \"#utility.yul\":8876:8925   */\n              iszero\n              tag_194\n              jumpi\n                /* \"#utility.yul\":8915:8923   */\n              dup2\n                /* \"#utility.yul\":8900:8923   */\n              swap1\n              pop\n                /* \"#utility.yul\":8876:8925   */\n            tag_194:\n                /* \"#utility.yul\":8938:9018   */\n              tag_195\n                /* \"#utility.yul\":8994:9016   */\n              tag_196\n                /* \"#utility.yul\":9012:9015   */\n              dup6\n                /* \"#utility.yul\":8994:9016   */\n              tag_72\n              jump\t// in\n            tag_196:\n                /* \"#utility.yul\":8984:8992   */\n              dup4\n                /* \"#utility.yul\":8980:9017   */\n              add\n                /* \"#utility.yul\":8967:8978   */\n              dup3\n                /* \"#utility.yul\":8938:9018   */\n              tag_81\n              jump\t// in\n            tag_195:\n                /* \"#utility.yul\":8597:9028   */\n              pop\n              pop\n                /* \"#utility.yul\":8582:9028   */\n            tag_191:\n                /* \"#utility.yul\":8492:9035   */\n              pop\n              pop\n              pop\n              jump\t// out\n                /* \"#utility.yul\":9041:9158   */\n            tag_83:\n                /* \"#utility.yul\":9095:9103   */\n              0x00\n                /* \"#utility.yul\":9145:9150   */\n              dup3\n                /* \"#utility.yul\":9139:9143   */\n              dup3\n                /* \"#utility.yul\":9135:9151   */\n              shr\n                /* \"#utility.yul\":9114:9151   */\n              swap1\n              pop\n                /* \"#utility.yul\":9041:9158   */\n              swap3\n              swap2\n              pop\n              pop\n              jump\t// out\n                /* \"#utility.yul\":9164:9333   */\n            tag_84:\n                /* \"#utility.yul\":9208:9214   */\n              0x00\n                /* \"#utility.yul\":9241:9292   */\n              tag_199\n                /* \"#utility.yul\":9289:9290   */\n              0x00\n                /* \"#utility.yul\":9285:9291   */\n              not\n                /* \"#utility.yul\":9277:9282   */\n              dup5\n                /* \"#utility.yul\":9274:9275   */\n              0x08\n                /* \"#utility.yul\":9270:9283   */\n              mul\n                /* \"#utility.yul\":9241:9292   */\n              tag_83\n              jump\t// in\n            tag_199:\n                /* \"#utility.yul\":9237:9293   */\n              not\n                /* \"#utility.yul\":9322:9326   */\n              dup1\n                /* \"#utility.yul\":9316:9320   */\n              dup4\n                /* \"#utility.yul\":9312:9327   */\n              and\n                /* \"#utility.yul\":9302:9327   */\n              swap2\n              pop\n                /* \"#utility.yul\":9215:9333   */\n              pop\n                /* \"#utility.yul\":9164:9333   */\n              swap3\n              swap2\n              pop\n              pop\n              jump\t// out\n                /* \"#utility.yul\":9338:9633   */\n            tag_85:\n                /* \"#utility.yul\":9414:9418   */\n              0x00\n                /* \"#utility.yul\":9560:9589   */\n              tag_201\n                /* \"#utility.yul\":9585:9588   */\n              dup4\n                /* \"#utility.yul\":9579:9583   */\n              dup4\n                /* \"#utility.yul\":9560:9589   */\n              tag_84\n              jump\t// in\n            tag_201:\n                /* \"#utility.yul\":9552:9589   */\n              swap2\n              pop\n                /* \"#utility.yul\":9622:9625   */\n              dup3\n                /* \"#utility.yul\":9619:9620   */\n              0x02\n                /* \"#utility.yul\":9615:9626   */\n              mul\n                /* \"#utility.yul\":9609:9613   */\n              dup3\n                /* \"#utility.yul\":9606:9627   */\n              or\n                /* \"#utility.yul\":9598:9627   */\n              swap1\n              pop\n                /* \"#utility.yul\":9338:9633   */\n              swap3\n              swap2\n              pop\n              pop\n              jump\t// out\n                /* \"#utility.yul\":9638:11033   */\n            tag_42:\n                /* \"#utility.yul\":9755:9792   */\n              tag_203\n                /* \"#utility.yul\":9788:9791   */\n              dup3\n                /* \"#utility.yul\":9755:9792   */\n              tag_53\n              jump\t// in\n            tag_203:\n                /* \"#utility.yul\":9857:9875   */\n              0xffffffffffffffff\n                /* \"#utility.yul\":9849:9855   */\n              dup2\n                /* \"#utility.yul\":9846:9876   */\n              gt\n                /* \"#utility.yul\":9843:9899   */\n              iszero\n              tag_204\n              jumpi\n                /* \"#utility.yul\":9879:9897   */\n              tag_205\n              tag_60\n              jump\t// in\n            tag_205:\n                /* \"#utility.yul\":9843:9899   */\n            tag_204:\n                /* \"#utility.yul\":9923:9961   */\n              tag_206\n                /* \"#utility.yul\":9955:9959   */\n              dup3\n                /* \"#utility.yul\":9949:9960   */\n              sload\n                /* \"#utility.yul\":9923:9961   */\n              tag_33\n              jump\t// in\n            tag_206:\n                /* \"#utility.yul\":10008:10075   */\n              tag_207\n                /* \"#utility.yul\":10068:10074   */\n              dup3\n                /* \"#utility.yul\":10060:10066   */\n              dup3\n                /* \"#utility.yul\":10054:10058   */\n              dup6\n                /* \"#utility.yul\":10008:10075   */\n              tag_82\n              jump\t// in\n            tag_207:\n                /* \"#utility.yul\":10102:10103   */\n              0x00\n                /* \"#utility.yul\":10126:10130   */\n              0x20\n                /* \"#utility.yul\":10113:10130   */\n              swap1\n              pop\n                /* \"#utility.yul\":10158:10160   */\n              0x1f\n                /* \"#utility.yul\":10150:10156   */\n              dup4\n                /* \"#utility.yul\":10147:10161   */\n              gt\n                /* \"#utility.yul\":10175:10176   */\n              0x01\n                /* \"#utility.yul\":10170:10788   */\n              dup2\n              eq\n              tag_209\n              jumpi\n                /* \"#utility.yul\":10832:10833   */\n              0x00\n                /* \"#utility.yul\":10849:10855   */\n              dup5\n                /* \"#utility.yul\":10846:10923   */\n              iszero\n              tag_210\n              jumpi\n                /* \"#utility.yul\":10898:10907   */\n              dup3\n                /* \"#utility.yul\":10893:10896   */\n              dup8\n                /* \"#utility.yul\":10889:10908   */\n              add\n                /* \"#utility.yul\":10883:10909   */\n              mload\n                /* \"#utility.yul\":10874:10909   */\n              swap1\n              pop\n                /* \"#utility.yul\":10846:10923   */\n            tag_210:\n                /* \"#utility.yul\":10949:11016   */\n              tag_211\n                /* \"#utility.yul\":11009:11015   */\n              dup6\n                /* \"#utility.yul\":11002:11007   */\n              dup3\n                /* \"#utility.yul\":10949:11016   */\n              tag_85\n              jump\t// in\n            tag_211:\n                /* \"#utility.yul\":10943:10947   */\n              dup7\n                /* \"#utility.yul\":10936:11017   */\n              sstore\n                /* \"#utility.yul\":10805:11027   */\n              pop\n                /* \"#utility.yul\":10140:11027   */\n              jump(tag_208)\n                /* \"#utility.yul\":10170:10788   */\n            tag_209:\n                /* \"#utility.yul\":10222:10226   */\n              0x1f\n                /* \"#utility.yul\":10218:10227   */\n              not\n                /* \"#utility.yul\":10210:10216   */\n              dup5\n                /* \"#utility.yul\":10206:10228   */\n              and\n                /* \"#utility.yul\":10256:10293   */\n              tag_212\n                /* \"#utility.yul\":10288:10292   */\n              dup7\n                /* \"#utility.yul\":10256:10293   */\n              tag_71\n              jump\t// in\n            tag_212:\n                /* \"#utility.yul\":10315:10316   */\n              0x00\n                /* \"#utility.yul\":10329:10537   */\n            tag_213:\n                /* \"#utility.yul\":10343:10350   */\n              dup3\n                /* \"#utility.yul\":10340:10341   */\n              dup2\n                /* \"#utility.yul\":10337:10351   */\n              lt\n                /* \"#utility.yul\":10329:10537   */\n              iszero\n              tag_215\n              jumpi\n                /* \"#utility.yul\":10422:10431   */\n              dup5\n                /* \"#utility.yul\":10417:10420   */\n              dup10\n                /* \"#utility.yul\":10413:10432   */\n              add\n                /* \"#utility.yul\":10407:10433   */\n              mload\n                /* \"#utility.yul\":10399:10405   */\n              dup3\n                /* \"#utility.yul\":10392:10434   */\n              sstore\n                /* \"#utility.yul\":10473:10474   */\n              0x01\n                /* \"#utility.yul\":10465:10471   */\n              dup3\n                /* \"#utility.yul\":10461:10475   */\n              add\n                /* \"#utility.yul\":10451:10475   */\n              swap2\n              pop\n                /* \"#utility.yul\":10520:10522   */\n              0x20\n                /* \"#utility.yul\":10509:10518   */\n              dup6\n                /* \"#utility.yul\":10505:10523   */\n              add\n                /* \"#utility.yul\":10492:10523   */\n              swap5\n              pop\n                /* \"#utility.yul\":10366:10370   */\n              0x20\n                /* \"#utility.yul\":10363:10364   */\n              dup2\n                /* \"#utility.yul\":10359:10371   */\n              add\n                /* \"#utility.yul\":10354:10371   */\n              swap1\n              pop\n                /* \"#utility.yul\":10329:10537   */\n              jump(tag_213)\n            tag_215:\n                /* \"#utility.yul\":10565:10571   */\n              dup7\n                /* \"#utility.yul\":10556:10563   */\n              dup4\n                /* \"#utility.yul\":10553:10572   */\n              lt\n                /* \"#utility.yul\":10550:10729   */\n              iszero\n              tag_216\n              jumpi\n                /* \"#utility.yul\":10623:10632   */\n              dup5\n                /* \"#utility.yul\":10618:10621   */\n              dup10\n                /* \"#utility.yul\":10614:10633   */\n              add\n                /* \"#utility.yul\":10608:10634   */\n              mload\n                /* \"#utility.yul\":10666:10714   */\n              tag_217\n                /* \"#utility.yul\":10708:10712   */\n              0x1f\n                /* \"#utility.yul\":10700:10706   */\n              dup10\n                /* \"#utility.yul\":10696:10713   */\n              and\n                /* \"#utility.yul\":10685:10694   */\n              dup3\n                /* \"#utility.yul\":10666:10714   */\n              tag_84\n              jump\t// in\n            tag_217:\n                /* \"#utility.yul\":10658:10664   */\n              dup4\n                /* \"#utility.yul\":10651:10715   */\n              sstore\n                /* \"#utility.yul\":10573:10729   */\n              pop\n                /* \"#utility.yul\":10550:10729   */\n            tag_216:\n                /* \"#utility.yul\":10775:10776   */\n              0x01\n                /* \"#utility.yul\":10771:10772   */\n              0x02\n                /* \"#utility.yul\":10763:10769   */\n              dup9\n                /* \"#utility.yul\":10759:10773   */\n              mul\n                /* \"#utility.yul\":10755:10777   */\n              add\n                /* \"#utility.yul\":10749:10753   */\n              dup9\n                /* \"#utility.yul\":10742:10778   */\n              sstore\n                /* \"#utility.yul\":10177:10788   */\n              pop\n              pop\n              pop\n                /* \"#utility.yul\":10140:11027   */\n            tag_208:\n              pop\n                /* \"#utility.yul\":9730:11033   */\n              pop\n              pop\n              pop\n                /* \"#utility.yul\":9638:11033   */\n              pop\n              pop\n              jump\t// out\n                /* \"#utility.yul\":11039:11187   */\n            tag_86:\n                /* \"#utility.yul\":11141:11152   */\n              0x00\n                /* \"#utility.yul\":11178:11181   */\n              dup2\n                /* \"#utility.yul\":11163:11181   */\n              swap1\n              pop\n                /* \"#utility.yul\":11039:11187   */\n              swap3\n              swap2\n              pop\n              pop\n              jump\t// out\n                /* \"#utility.yul\":11193:11583   */\n            tag_87:\n                /* \"#utility.yul\":11299:11302   */\n              0x00\n                /* \"#utility.yul\":11327:11366   */\n              tag_220\n                /* \"#utility.yul\":11360:11365   */\n              dup3\n                /* \"#utility.yul\":11327:11366   */\n              tag_53\n              jump\t// in\n            tag_220:\n                /* \"#utility.yul\":11382:11471   */\n              tag_221\n                /* \"#utility.yul\":11464:11470   */\n              dup2\n                /* \"#utility.yul\":11459:11462   */\n              dup6\n                /* \"#utility.yul\":11382:11471   */\n              tag_86\n              jump\t// in\n            tag_221:\n                /* \"#utility.yul\":11375:11471   */\n              swap4\n              pop\n                /* \"#utility.yul\":11480:11545   */\n              tag_222\n                /* \"#utility.yul\":11538:11544   */\n              dup2\n                /* \"#utility.yul\":11533:11536   */\n              dup6\n                /* \"#utility.yul\":11526:11530   */\n              0x20\n                /* \"#utility.yul\":11519:11524   */\n              dup7\n                /* \"#utility.yul\":11515:11531   */\n              add\n                /* \"#utility.yul\":11480:11545   */\n              tag_55\n              jump\t// in\n            tag_222:\n                /* \"#utility.yul\":11570:11576   */\n              dup1\n                /* \"#utility.yul\":11565:11568   */\n              dup5\n                /* \"#utility.yul\":11561:11577   */\n              add\n                /* \"#utility.yul\":11554:11577   */\n              swap2\n              pop\n                /* \"#utility.yul\":11303:11583   */\n              pop\n                /* \"#utility.yul\":11193:11583   */\n              swap3\n              swap2\n              pop\n              pop\n              jump\t// out\n                /* \"#utility.yul\":11589:11864   */\n            tag_44:\n                /* \"#utility.yul\":11721:11724   */\n              0x00\n                /* \"#utility.yul\":11743:11838   */\n              tag_224\n                /* \"#utility.yul\":11834:11837   */\n              dup3\n                /* \"#utility.yul\":11825:11831   */\n              dup5\n                /* \"#utility.yul\":11743:11838   */\n              tag_87\n              jump\t// in\n            tag_224:\n                /* \"#utility.yul\":11736:11838   */\n              swap2\n              pop\n                /* \"#utility.yul\":11855:11858   */\n              dup2\n                /* \"#utility.yul\":11848:11858   */\n              swap1\n              pop\n                /* \"#utility.yul\":11589:11864   */\n              swap3\n              swap2\n              pop\n              pop\n              jump\t// out\n\n            auxdata: 0xa26469706673582212206937be4518b4a27ce7655c1fb8883ccd1391011677509572b328dd7df09ff95164736f6c634300081e0033\n        }\n    }\n\n    auxdata: 0xa26469706673582212204744a0c04c8719c48c0626aea5c9ed5161df9cb540ab4413380ed3c049435a2664736f6c634300081e0033\n}\n",
				"bytecode": {
					"linkReferences": {},
					"object": "6080604052348015600e575f5ffd5b50610e148061001c5f395ff3fe608060405234801561000f575f5ffd5b506004361061004a575f3560e01c80631563700f1461004e5780631dda65411461006a578063c5f19c2014610074578063f39f3035146100a4575b5f5ffd5b6100686004803603810190610063919061033a565b6100d4565b005b61007261017d565b005b61008e60048036038101906100899190610378565b610208565b60405161009b91906103b2565b60405180910390f35b6100be60048036038101906100b99190610378565b6102bc565b6040516100cb9190610445565b60405180910390f35b5f5f83815481106100e8576100e761045e565b5b905f5260205f20015f9054906101000a900473ffffffffffffffffffffffffffffffffffffffff1690508073ffffffffffffffffffffffffffffffffffffffff16636057361d836040518263ffffffff1660e01b815260040161014b91906103b2565b5f604051808303815f87803b158015610162575f5ffd5b505af1158015610174573d5f5f3e3d5ffd5b50505050505050565b5f60405161018a906102f6565b604051809103905ff0801580156101a3573d5f5f3e3d5ffd5b5090505f81908060018154018082558091505060019003905f5260205f20015f9091909190916101000a81548173ffffffffffffffffffffffffffffffffffffffff021916908373ffffffffffffffffffffffffffffffffffffffff16021790555050565b5f5f5f838154811061021d5761021c61045e565b5b905f5260205f20015f9054906101000a900473ffffffffffffffffffffffffffffffffffffffff1690508073ffffffffffffffffffffffffffffffffffffffff1663b05784b86040518163ffffffff1660e01b8152600401602060405180830381865afa158015610290573d5f5f3e3d5ffd5b505050506040513d601f19601f820116820180604052508101906102b4919061049f565b915050919050565b5f81815481106102ca575f80fd5b905f5260205f20015f915054906101000a900473ffffffffffffffffffffffffffffffffffffffff1681565b610914806104cb83390190565b5f5ffd5b5f819050919050565b61031981610307565b8114610323575f5ffd5b50565b5f8135905061033481610310565b92915050565b5f5f604083850312156103505761034f610303565b5b5f61035d85828601610326565b925050602061036e85828601610326565b9150509250929050565b5f6020828403121561038d5761038c610303565b5b5f61039a84828501610326565b91505092915050565b6103ac81610307565b82525050565b5f6020820190506103c55f8301846103a3565b92915050565b5f73ffffffffffffffffffffffffffffffffffffffff82169050919050565b5f819050919050565b5f61040d610408610403846103cb565b6103ea565b6103cb565b9050919050565b5f61041e826103f3565b9050919050565b5f61042f82610414565b9050919050565b61043f81610425565b82525050565b5f6020820190506104585f830184610436565b92915050565b7f4e487b71000000000000000000000000000000000000000000000000000000005f52603260045260245ffd5b5f8151905061049981610310565b92915050565b5f602082840312156104b4576104b3610303565b5b5f6104c18482850161048b565b9150509291505056fe6080604052348015600e575f5ffd5b506108f88061001c5f395ff3fe608060405234801561000f575f5ffd5b5060043610610055575f3560e01c80632ebce631146100595780636057361d1461008a5780636f760f41146100a6578063b05784b8146100c2578063fff01a15146100e0575b5f5ffd5b610073600480360381019061006e91906102d1565b610110565b60405161008192919061037b565b60405180910390f35b6100a4600480360381019061009f91906102d1565b6101c5565b005b6100c060048036038101906100bb91906104d5565b6101ce565b005b6100ca610270565b6040516100d7919061052f565b60405180910390f35b6100fa60048036038101906100f5919061057b565b610278565b604051610107919061052f565b60405180910390f35b6001818154811061011f575f80fd5b905f5260205f2090600202015f91509050805f015490806001018054610144906105d3565b80601f0160208091040260200160405190810160405280929190818152602001828054610170906105d3565b80156101bb5780601f10610192576101008083540402835291602001916101bb565b820191905f5260205f20905b81548152906001019060200180831161019e57829003601f168201915b5050505050905082565b805f8190555050565b6001604051806040016040528083815260200184815250908060018154018082558091505060019003905f5260205f2090600202015f909190919091505f820151815f0155602082015181600101908161022891906107a3565b5050505f8260405160200161023d91906108ac565b6040516020818303038152906040528051906020012090508160025f8381526020019081526020015f2081905550505050565b5f5f54905090565b6002602052805f5260405f205f915090505481565b5f604051905090565b5f5ffd5b5f5ffd5b5f819050919050565b6102b08161029e565b81146102ba575f5ffd5b50565b5f813590506102cb816102a7565b92915050565b5f602082840312156102e6576102e5610296565b5b5f6102f3848285016102bd565b91505092915050565b6103058161029e565b82525050565b5f81519050919050565b5f82825260208201905092915050565b8281835e5f83830152505050565b5f601f19601f8301169050919050565b5f61034d8261030b565b6103578185610315565b9350610367818560208601610325565b61037081610333565b840191505092915050565b5f60408201905061038e5f8301856102fc565b81810360208301526103a08184610343565b90509392505050565b5f5ffd5b5f5ffd5b7f4e487b71000000000000000000000000000000000000000000000000000000005f52604160045260245ffd5b6103e782610333565b810181811067ffffffffffffffff82111715610406576104056103b1565b5b80604052505050565b5f61041861028d565b905061042482826103de565b919050565b5f67ffffffffffffffff821115610443576104426103b1565b5b61044c82610333565b9050602081019050919050565b828183375f83830152505050565b5f61047961047484610429565b61040f565b905082815260208101848484011115610495576104946103ad565b5b6104a0848285610459565b509392505050565b5f82601f8301126104bc576104bb6103a9565b5b81356104cc848260208601610467565b91505092915050565b5f5f604083850312156104eb576104ea610296565b5b5f83013567ffffffffffffffff8111156105085761050761029a565b5b610514858286016104a8565b9250506020610525858286016102bd565b9150509250929050565b5f6020820190506105425f8301846102fc565b92915050565b5f819050919050565b61055a81610548565b8114610564575f5ffd5b50565b5f8135905061057581610551565b92915050565b5f602082840312156105905761058f610296565b5b5f61059d84828501610567565b91505092915050565b7f4e487b71000000000000000000000000000000000000000000000000000000005f52602260045260245ffd5b5f60028204905060018216806105ea57607f821691505b6020821081036105fd576105fc6105a6565b5b50919050565b5f819050815f5260205f209050919050565b5f6020601f8301049050919050565b5f82821b905092915050565b5f6008830261065f7fffffffffffffffffffffffffffffffffffffffffffffffffffffffffffffffff82610624565b6106698683610624565b95508019841693508086168417925050509392505050565b5f819050919050565b5f6106a461069f61069a8461029e565b610681565b61029e565b9050919050565b5f819050919050565b6106bd8361068a565b6106d16106c9826106ab565b848454610630565b825550505050565b5f5f905090565b6106e86106d9565b6106f38184846106b4565b505050565b5b818110156107165761070b5f826106e0565b6001810190506106f9565b5050565b601f82111561075b5761072c81610603565b61073584610615565b81016020851015610744578190505b61075861075085610615565b8301826106f8565b50505b505050565b5f82821c905092915050565b5f61077b5f1984600802610760565b1980831691505092915050565b5f610793838361076c565b9150826002028217905092915050565b6107ac8261030b565b67ffffffffffffffff8111156107c5576107c46103b1565b5b6107cf82546105d3565b6107da82828561071a565b5f60209050601f83116001811461080b575f84156107f9578287015190505b6108038582610788565b86555061086a565b601f19841661081986610603565b5f5b828110156108405784890151825560018201915060208501945060208101905061081b565b8683101561085d5784890151610859601f89168261076c565b8355505b6001600288020188555050505b505050505050565b5f81905092915050565b5f6108868261030b565b6108908185610872565b93506108a0818560208601610325565b80840191505092915050565b5f6108b7828461087c565b91508190509291505056fea26469706673582212206937be4518b4a27ce7655c1fb8883ccd1391011677509572b328dd7df09ff95164736f6c634300081e0033a26469706673582212204744a0c04c8719c48c0626aea5c9ed5161df9cb540ab4413380ed3c049435a2664736f6c634300081e0033",
					"opcodes": "PUSH1 0x80 PUSH1 0x40 MSTORE CALLVALUE DUP1 ISZERO PUSH1 0xE JUMPI PUSH0 PUSH0 REVERT JUMPDEST POP PUSH2 0xE14 DUP1 PUSH2 0x1C PUSH0 CODECOPY PUSH0 RETURN INVALID PUSH1 0x80 PUSH1 0x40 MSTORE CALLVALUE DUP1 ISZERO PUSH2 0xF JUMPI PUSH0 PUSH0 REVERT JUMPDEST POP PUSH1 0x4 CALLDATASIZE LT PUSH2 0x4A JUMPI PUSH0 CALLDATALOAD PUSH1 0xE0 SHR DUP1 PUSH4 0x1563700F EQ PUSH2 0x4E JUMPI DUP1 PUSH4 0x1DDA6541 EQ PUSH2 0x6A JUMPI DUP1 PUSH4 0xC5F19C20 EQ PUSH2 0x74 JUMPI DUP1 PUSH4 0xF39F3035 EQ PUSH2 0xA4 JUMPI JUMPDEST PUSH0 PUSH0 REVERT JUMPDEST PUSH2 0x68 PUSH1 0x4 DUP1 CALLDATASIZE SUB DUP2 ADD SWAP1 PUSH2 0x63 SWAP2 SWAP1 PUSH2 0x33A JUMP JUMPDEST PUSH2 0xD4 JUMP JUMPDEST STOP JUMPDEST PUSH2 0x72 PUSH2 0x17D JUMP JUMPDEST STOP JUMPDEST PUSH2 0x8E PUSH1 0x4 DUP1 CALLDATASIZE SUB DUP2 ADD SWAP1 PUSH2 0x89 SWAP2 SWAP1 PUSH2 0x378 JUMP JUMPDEST PUSH2 0x208 JUMP JUMPDEST PUSH1 0x40 MLOAD PUSH2 0x9B SWAP2 SWAP1 PUSH2 0x3B2 JUMP JUMPDEST PUSH1 0x40 MLOAD DUP1 SWAP2 SUB SWAP1 RETURN JUMPDEST PUSH2 0xBE PUSH1 0x4 DUP1 CALLDATASIZE SUB DUP2 ADD SWAP1 PUSH2 0xB9 SWAP2 SWAP1 PUSH2 0x378 JUMP JUMPDEST PUSH2 0x2BC JUMP JUMPDEST PUSH1 0x40 MLOAD PUSH2 0xCB SWAP2 SWAP1 PUSH2 0x445 JUMP JUMPDEST PUSH1 0x40 MLOAD DUP1 SWAP2 SUB SWAP1 RETURN JUMPDEST PUSH0 PUSH0 DUP4 DUP2 SLOAD DUP2 LT PUSH2 0xE8 JUMPI PUSH2 0xE7 PUSH2 0x45E JUMP JUMPDEST JUMPDEST SWAP1 PUSH0 MSTORE PUSH1 0x20 PUSH0 KECCAK256 ADD PUSH0 SWAP1 SLOAD SWAP1 PUSH2 0x100 EXP SWAP1 DIV PUSH20 0xFFFFFFFFFFFFFFFFFFFFFFFFFFFFFFFFFFFFFFFF AND SWAP1 POP DUP1 PUSH20 0xFFFFFFFFFFFFFFFFFFFFFFFFFFFFFFFFFFFFFFFF AND PUSH4 0x6057361D DUP4 PUSH1 0x40 MLOAD DUP3 PUSH4 0xFFFFFFFF AND PUSH1 0xE0 SHL DUP2 MSTORE PUSH1 0x4 ADD PUSH2 0x14B SWAP2 SWAP1 PUSH2 0x3B2 JUMP JUMPDEST PUSH0 PUSH1 0x40 MLOAD DUP1 DUP4 SUB DUP2 PUSH0 DUP8 DUP1 EXTCODESIZE ISZERO DUP1 ISZERO PUSH2 0x162 JUMPI PUSH0 PUSH0 REVERT JUMPDEST POP GAS CALL ISZERO DUP1 ISZERO PUSH2 0x174 JUMPI RETURNDATASIZE PUSH0 PUSH0 RETURNDATACOPY RETURNDATASIZE PUSH0 REVERT JUMPDEST POP POP POP POP POP POP POP JUMP JUMPDEST PUSH0 PUSH1 0x40 MLOAD PUSH2 0x18A SWAP1 PUSH2 0x2F6 JUMP JUMPDEST PUSH1 0x40 MLOAD DUP1 SWAP2 SUB SWAP1 PUSH0 CREATE DUP1 ISZERO DUP1 ISZERO PUSH2 0x1A3 JUMPI RETURNDATASIZE PUSH0 PUSH0 RETURNDATACOPY RETURNDATASIZE PUSH0 REVERT JUMPDEST POP SWAP1 POP PUSH0 DUP2 SWAP1 DUP1 PUSH1 0x1 DUP2 SLOAD ADD DUP1 DUP3 SSTORE DUP1 SWAP2 POP POP PUSH1 0x1 SWAP1 SUB SWAP1 PUSH0 MSTORE PUSH1 0x20 PUSH0 KECCAK256 ADD PUSH0 SWAP1 SWAP2 SWAP1 SWAP2 SWAP1 SWAP2 PUSH2 0x100 EXP DUP2 SLOAD DUP2 PUSH20 0xFFFFFFFFFFFFFFFFFFFFFFFFFFFFFFFFFFFFFFFF MUL NOT AND SWAP1 DUP4 PUSH20 0xFFFFFFFFFFFFFFFFFFFFFFFFFFFFFFFFFFFFFFFF AND MUL OR SWAP1 SSTORE POP POP JUMP JUMPDEST PUSH0 PUSH0 PUSH0 DUP4 DUP2 SLOAD DUP2 LT PUSH2 0x21D JUMPI PUSH2 0x21C PUSH2 0x45E JUMP JUMPDEST JUMPDEST SWAP1 PUSH0 MSTORE PUSH1 0x20 PUSH0 KECCAK256 ADD PUSH0 SWAP1 SLOAD SWAP1 PUSH2 0x100 EXP SWAP1 DIV PUSH20 0xFFFFFFFFFFFFFFFFFFFFFFFFFFFFFFFFFFFFFFFF AND SWAP1 POP DUP1 PUSH20 0xFFFFFFFFFFFFFFFFFFFFFFFFFFFFFFFFFFFFFFFF AND PUSH4 0xB05784B8 PUSH1 0x40 MLOAD DUP2 PUSH4 0xFFFFFFFF AND PUSH1 0xE0 SHL DUP2 MSTORE PUSH1 0x4 ADD PUSH1 0x20 PUSH1 0x40 MLOAD DUP1 DUP4 SUB DUP2 DUP7 GAS STATICCALL ISZERO DUP1 ISZERO PUSH2 0x290 JUMPI RETURNDATASIZE PUSH0 PUSH0 RETURNDATACOPY RETURNDATASIZE PUSH0 REVERT JUMPDEST POP POP POP POP PUSH1 0x40 MLOAD RETURNDATASIZE PUSH1 0x1F NOT PUSH1 0x1F DUP3 ADD AND DUP3 ADD DUP1 PUSH1 0x40 MSTORE POP DUP2 ADD SWAP1 PUSH2 0x2B4 SWAP2 SWAP1 PUSH2 0x49F JUMP JUMPDEST SWAP2 POP POP SWAP2 SWAP1 POP JUMP JUMPDEST PUSH0 DUP2 DUP2 SLOAD DUP2 LT PUSH2 0x2CA JUMPI PUSH0 DUP1 REVERT JUMPDEST SWAP1 PUSH0 MSTORE PUSH1 0x20 PUSH0 KECCAK256 ADD PUSH0 SWAP2 POP SLOAD SWAP1 PUSH2 0x100 EXP SWAP1 DIV PUSH20 0xFFFFFFFFFFFFFFFFFFFFFFFFFFFFFFFFFFFFFFFF AND DUP2 JUMP JUMPDEST PUSH2 0x914 DUP1 PUSH2 0x4CB DUP4 CODECOPY ADD SWAP1 JUMP JUMPDEST PUSH0 PUSH0 REVERT JUMPDEST PUSH0 DUP2 SWAP1 POP SWAP2 SWAP1 POP JUMP JUMPDEST PUSH2 0x319 DUP2 PUSH2 0x307 JUMP JUMPDEST DUP2 EQ PUSH2 0x323 JUMPI PUSH0 PUSH0 REVERT JUMPDEST POP JUMP JUMPDEST PUSH0 DUP2 CALLDATALOAD SWAP1 POP PUSH2 0x334 DUP2 PUSH2 0x310 JUMP JUMPDEST SWAP3 SWAP2 POP POP JUMP JUMPDEST PUSH0 PUSH0 PUSH1 0x40 DUP4 DUP6 SUB SLT ISZERO PUSH2 0x350 JUMPI PUSH2 0x34F PUSH2 0x303 JUMP JUMPDEST JUMPDEST PUSH0 PUSH2 0x35D DUP6 DUP3 DUP7 ADD PUSH2 0x326 JUMP JUMPDEST SWAP3 POP POP PUSH1 0x20 PUSH2 0x36E DUP6 DUP3 DUP7 ADD PUSH2 0x326 JUMP JUMPDEST SWAP2 POP POP SWAP3 POP SWAP3 SWAP1 POP JUMP JUMPDEST PUSH0 PUSH1 0x20 DUP3 DUP5 SUB SLT ISZERO PUSH2 0x38D JUMPI PUSH2 0x38C PUSH2 0x303 JUMP JUMPDEST JUMPDEST PUSH0 PUSH2 0x39A DUP5 DUP3 DUP6 ADD PUSH2 0x326 JUMP JUMPDEST SWAP2 POP POP SWAP3 SWAP2 POP POP JUMP JUMPDEST PUSH2 0x3AC DUP2 PUSH2 0x307 JUMP JUMPDEST DUP3 MSTORE POP POP JUMP JUMPDEST PUSH0 PUSH1 0x20 DUP3 ADD SWAP1 POP PUSH2 0x3C5 PUSH0 DUP4 ADD DUP5 PUSH2 0x3A3 JUMP JUMPDEST SWAP3 SWAP2 POP POP JUMP JUMPDEST PUSH0 PUSH20 0xFFFFFFFFFFFFFFFFFFFFFFFFFFFFFFFFFFFFFFFF DUP3 AND SWAP1 POP SWAP2 SWAP1 POP JUMP JUMPDEST PUSH0 DUP2 SWAP1 POP SWAP2 SWAP1 POP JUMP JUMPDEST PUSH0 PUSH2 0x40D PUSH2 0x408 PUSH2 0x403 DUP5 PUSH2 0x3CB JUMP JUMPDEST PUSH2 0x3EA JUMP JUMPDEST PUSH2 0x3CB JUMP JUMPDEST SWAP1 POP SWAP2 SWAP1 POP JUMP JUMPDEST PUSH0 PUSH2 0x41E DUP3 PUSH2 0x3F3 JUMP JUMPDEST SWAP1 POP SWAP2 SWAP1 POP JUMP JUMPDEST PUSH0 PUSH2 0x42F DUP3 PUSH2 0x414 JUMP JUMPDEST SWAP1 POP SWAP2 SWAP1 POP JUMP JUMPDEST PUSH2 0x43F DUP2 PUSH2 0x425 JUMP JUMPDEST DUP3 MSTORE POP POP JUMP JUMPDEST PUSH0 PUSH1 0x20 DUP3 ADD SWAP1 POP PUSH2 0x458 PUSH0 DUP4 ADD DUP5 PUSH2 0x436 JUMP JUMPDEST SWAP3 SWAP2 POP POP JUMP JUMPDEST PUSH32 0x4E487B7100000000000000000000000000000000000000000000000000000000 PUSH0 MSTORE PUSH1 0x32 PUSH1 0x4 MSTORE PUSH1 0x24 PUSH0 REVERT JUMPDEST PUSH0 DUP2 MLOAD SWAP1 POP PUSH2 0x499 DUP2 PUSH2 0x310 JUMP JUMPDEST SWAP3 SWAP2 POP POP JUMP JUMPDEST PUSH0 PUSH1 0x20 DUP3 DUP5 SUB SLT ISZERO PUSH2 0x4B4 JUMPI PUSH2 0x4B3 PUSH2 0x303 JUMP JUMPDEST JUMPDEST PUSH0 PUSH2 0x4C1 DUP5 DUP3 DUP6 ADD PUSH2 0x48B JUMP JUMPDEST SWAP2 POP POP SWAP3 SWAP2 POP POP JUMP INVALID PUSH1 0x80 PUSH1 0x40 MSTORE CALLVALUE DUP1 ISZERO PUSH1 0xE JUMPI PUSH0 PUSH0 REVERT JUMPDEST POP PUSH2 0x8F8 DUP1 PUSH2 0x1C PUSH0 CODECOPY PUSH0 RETURN INVALID PUSH1 0x80 PUSH1 0x40 MSTORE CALLVALUE DUP1 ISZERO PUSH2 0xF JUMPI PUSH0 PUSH0 REVERT JUMPDEST POP PUSH1 0x4 CALLDATASIZE LT PUSH2 0x55 JUMPI PUSH0 CALLDATALOAD PUSH1 0xE0 SHR DUP1 PUSH4 0x2EBCE631 EQ PUSH2 0x59 JUMPI DUP1 PUSH4 0x6057361D EQ PUSH2 0x8A JUMPI DUP1 PUSH4 0x6F760F41 EQ PUSH2 0xA6 JUMPI DUP1 PUSH4 0xB05784B8 EQ PUSH2 0xC2 JUMPI DUP1 PUSH4 0xFFF01A15 EQ PUSH2 0xE0 JUMPI JUMPDEST PUSH0 PUSH0 REVERT JUMPDEST PUSH2 0x73 PUSH1 0x4 DUP1 CALLDATASIZE SUB DUP2 ADD SWAP1 PUSH2 0x6E SWAP2 SWAP1 PUSH2 0x2D1 JUMP JUMPDEST PUSH2 0x110 JUMP JUMPDEST PUSH1 0x40 MLOAD PUSH2 0x81 SWAP3 SWAP2 SWAP1 PUSH2 0x37B JUMP JUMPDEST PUSH1 0x40 MLOAD DUP1 SWAP2 SUB SWAP1 RETURN JUMPDEST PUSH2 0xA4 PUSH1 0x4 DUP1 CALLDATASIZE SUB DUP2 ADD SWAP1 PUSH2 0x9F SWAP2 SWAP1 PUSH2 0x2D1 JUMP JUMPDEST PUSH2 0x1C5 JUMP JUMPDEST STOP JUMPDEST PUSH2 0xC0 PUSH1 0x4 DUP1 CALLDATASIZE SUB DUP2 ADD SWAP1 PUSH2 0xBB SWAP2 SWAP1 PUSH2 0x4D5 JUMP JUMPDEST PUSH2 0x1CE JUMP JUMPDEST STOP JUMPDEST PUSH2 0xCA PUSH2 0x270 JUMP JUMPDEST PUSH1 0x40 MLOAD PUSH2 0xD7 SWAP2 SWAP1 PUSH2 0x52F JUMP JUMPDEST PUSH1 0x40 MLOAD DUP1 SWAP2 SUB SWAP1 RETURN JUMPDEST PUSH2 0xFA PUSH1 0x4 DUP1 CALLDATASIZE SUB DUP2 ADD SWAP1 PUSH2 0xF5 SWAP2 SWAP1 PUSH2 0x57B JUMP JUMPDEST PUSH2 0x278 JUMP JUMPDEST PUSH1 0x40 MLOAD PUSH2 0x107 SWAP2 SWAP1 PUSH2 0x52F JUMP JUMPDEST PUSH1 0x40 MLOAD DUP1 SWAP2 SUB SWAP1 RETURN JUMPDEST PUSH1 0x1 DUP2 DUP2 SLOAD DUP2 LT PUSH2 0x11F JUMPI PUSH0 DUP1 REVERT JUMPDEST SWAP1 PUSH0 MSTORE PUSH1 0x20 PUSH0 KECCAK256 SWAP1 PUSH1 0x2 MUL ADD PUSH0 SWAP2 POP SWAP1 POP DUP1 PUSH0 ADD SLOAD SWAP1 DUP1 PUSH1 0x1 ADD DUP1 SLOAD PUSH2 0x144 SWAP1 PUSH2 0x5D3 JUMP JUMPDEST DUP1 PUSH1 0x1F ADD PUSH1 0x20 DUP1 SWAP2 DIV MUL PUSH1 0x20 ADD PUSH1 0x40 MLOAD SWAP1 DUP2 ADD PUSH1 0x40 MSTORE DUP1 SWAP3 SWAP2 SWAP1 DUP2 DUP2 MSTORE PUSH1 0x20 ADD DUP3 DUP1 SLOAD PUSH2 0x170 SWAP1 PUSH2 0x5D3 JUMP JUMPDEST DUP1 ISZERO PUSH2 0x1BB JUMPI DUP1 PUSH1 0x1F LT PUSH2 0x192 JUMPI PUSH2 0x100 DUP1 DUP4 SLOAD DIV MUL DUP4 MSTORE SWAP2 PUSH1 0x20 ADD SWAP2 PUSH2 0x1BB JUMP JUMPDEST DUP3 ADD SWAP2 SWAP1 PUSH0 MSTORE PUSH1 0x20 PUSH0 KECCAK256 SWAP1 JUMPDEST DUP2 SLOAD DUP2 MSTORE SWAP1 PUSH1 0x1 ADD SWAP1 PUSH1 0x20 ADD DUP1 DUP4 GT PUSH2 0x19E JUMPI DUP3 SWAP1 SUB PUSH1 0x1F AND DUP3 ADD SWAP2 JUMPDEST POP POP POP POP POP SWAP1 POP DUP3 JUMP JUMPDEST DUP1 PUSH0 DUP2 SWAP1 SSTORE POP POP JUMP JUMPDEST PUSH1 0x1 PUSH1 0x40 MLOAD DUP1 PUSH1 0x40 ADD PUSH1 0x40 MSTORE DUP1 DUP4 DUP2 MSTORE PUSH1 0x20 ADD DUP5 DUP2 MSTORE POP SWAP1 DUP1 PUSH1 0x1 DUP2 SLOAD ADD DUP1 DUP3 SSTORE DUP1 SWAP2 POP POP PUSH1 0x1 SWAP1 SUB SWAP1 PUSH0 MSTORE PUSH1 0x20 PUSH0 KECCAK256 SWAP1 PUSH1 0x2 MUL ADD PUSH0 SWAP1 SWAP2 SWAP1 SWAP2 SWAP1 SWAP2 POP PUSH0 DUP3 ADD MLOAD DUP2 PUSH0 ADD SSTORE PUSH1 0x20 DUP3 ADD MLOAD DUP2 PUSH1 0x1 ADD SWAP1 DUP2 PUSH2 0x228 SWAP2 SWAP1 PUSH2 0x7A3 JUMP JUMPDEST POP POP POP PUSH0 DUP3 PUSH1 0x40 MLOAD PUSH1 0x20 ADD PUSH2 0x23D SWAP2 SWAP1 PUSH2 0x8AC JUMP JUMPDEST PUSH1 0x40 MLOAD PUSH1 0x20 DUP2 DUP4 SUB SUB DUP2 MSTORE SWAP1 PUSH1 0x40 MSTORE DUP1 MLOAD SWAP1 PUSH1 0x20 ADD KECCAK256 SWAP1 POP DUP2 PUSH1 0x2 PUSH0 DUP4 DUP2 MSTORE PUSH1 0x20 ADD SWAP1 DUP2 MSTORE PUSH1 0x20 ADD PUSH0 KECCAK256 DUP2 SWAP1 SSTORE POP POP POP POP JUMP JUMPDEST PUSH0 PUSH0 SLOAD SWAP1 POP SWAP1 JUMP JUMPDEST PUSH1 0x2 PUSH1 0x20 MSTORE DUP1 PUSH0 MSTORE PUSH1 0x40 PUSH0 KECCAK256 PUSH0 SWAP2 POP SWAP1 POP SLOAD DUP2 JUMP JUMPDEST PUSH0 PUSH1 0x40 MLOAD SWAP1 POP SWAP1 JUMP JUMPDEST PUSH0 PUSH0 REVERT JUMPDEST PUSH0 PUSH0 REVERT JUMPDEST PUSH0 DUP2 SWAP1 POP SWAP2 SWAP1 POP JUMP JUMPDEST PUSH2 0x2B0 DUP2 PUSH2 0x29E JUMP JUMPDEST DUP2 EQ PUSH2 0x2BA JUMPI PUSH0 PUSH0 REVERT JUMPDEST POP JUMP JUMPDEST PUSH0 DUP2 CALLDATALOAD SWAP1 POP PUSH2 0x2CB DUP2 PUSH2 0x2A7 JUMP JUMPDEST SWAP3 SWAP2 POP POP JUMP JUMPDEST PUSH0 PUSH1 0x20 DUP3 DUP5 SUB SLT ISZERO PUSH2 0x2E6 JUMPI PUSH2 0x2E5 PUSH2 0x296 JUMP JUMPDEST JUMPDEST PUSH0 PUSH2 0x2F3 DUP5 DUP3 DUP6 ADD PUSH2 0x2BD JUMP JUMPDEST SWAP2 POP POP SWAP3 SWAP2 POP POP JUMP JUMPDEST PUSH2 0x305 DUP2 PUSH2 0x29E JUMP JUMPDEST DUP3 MSTORE POP POP JUMP JUMPDEST PUSH0 DUP2 MLOAD SWAP1 POP SWAP2 SWAP1 POP JUMP JUMPDEST PUSH0 DUP3 DUP3 MSTORE PUSH1 0x20 DUP3 ADD SWAP1 POP SWAP3 SWAP2 POP POP JUMP JUMPDEST DUP3 DUP2 DUP4 MCOPY PUSH0 DUP4 DUP4 ADD MSTORE POP POP POP JUMP JUMPDEST PUSH0 PUSH1 0x1F NOT PUSH1 0x1F DUP4 ADD AND SWAP1 POP SWAP2 SWAP1 POP JUMP JUMPDEST PUSH0 PUSH2 0x34D DUP3 PUSH2 0x30B JUMP JUMPDEST PUSH2 0x357 DUP2 DUP6 PUSH2 0x315 JUMP JUMPDEST SWAP4 POP PUSH2 0x367 DUP2 DUP6 PUSH1 0x20 DUP7 ADD PUSH2 0x325 JUMP JUMPDEST PUSH2 0x370 DUP2 PUSH2 0x333 JUMP JUMPDEST DUP5 ADD SWAP2 POP POP SWAP3 SWAP2 POP POP JUMP JUMPDEST PUSH0 PUSH1 0x40 DUP3 ADD SWAP1 POP PUSH2 0x38E PUSH0 DUP4 ADD DUP6 PUSH2 0x2FC JUMP JUMPDEST DUP2 DUP2 SUB PUSH1 0x20 DUP4 ADD MSTORE PUSH2 0x3A0 DUP2 DUP5 PUSH2 0x343 JUMP JUMPDEST SWAP1 POP SWAP4 SWAP3 POP POP POP JUMP JUMPDEST PUSH0 PUSH0 REVERT JUMPDEST PUSH0 PUSH0 REVERT JUMPDEST PUSH32 0x4E487B7100000000000000000000000000000000000000000000000000000000 PUSH0 MSTORE PUSH1 0x41 PUSH1 0x4 MSTORE PUSH1 0x24 PUSH0 REVERT JUMPDEST PUSH2 0x3E7 DUP3 PUSH2 0x333 JUMP JUMPDEST DUP2 ADD DUP2 DUP2 LT PUSH8 0xFFFFFFFFFFFFFFFF DUP3 GT OR ISZERO PUSH2 0x406 JUMPI PUSH2 0x405 PUSH2 0x3B1 JUMP JUMPDEST JUMPDEST DUP1 PUSH1 0x40 MSTORE POP POP POP JUMP JUMPDEST PUSH0 PUSH2 0x418 PUSH2 0x28D JUMP JUMPDEST SWAP1 POP PUSH2 0x424 DUP3 DUP3 PUSH2 0x3DE JUMP JUMPDEST SWAP2 SWAP1 POP JUMP JUMPDEST PUSH0 PUSH8 0xFFFFFFFFFFFFFFFF DUP3 GT ISZERO PUSH2 0x443 JUMPI PUSH2 0x442 PUSH2 0x3B1 JUMP JUMPDEST JUMPDEST PUSH2 0x44C DUP3 PUSH2 0x333 JUMP JUMPDEST SWAP1 POP PUSH1 0x20 DUP2 ADD SWAP1 POP SWAP2 SWAP1 POP JUMP JUMPDEST DUP3 DUP2 DUP4 CALLDATACOPY PUSH0 DUP4 DUP4 ADD MSTORE POP POP POP JUMP JUMPDEST PUSH0 PUSH2 0x479 PUSH2 0x474 DUP5 PUSH2 0x429 JUMP JUMPDEST PUSH2 0x40F JUMP JUMPDEST SWAP1 POP DUP3 DUP2 MSTORE PUSH1 0x20 DUP2 ADD DUP5 DUP5 DUP5 ADD GT ISZERO PUSH2 0x495 JUMPI PUSH2 0x494 PUSH2 0x3AD JUMP JUMPDEST JUMPDEST PUSH2 0x4A0 DUP5 DUP3 DUP6 PUSH2 0x459 JUMP JUMPDEST POP SWAP4 SWAP3 POP POP POP JUMP JUMPDEST PUSH0 DUP3 PUSH1 0x1F DUP4 ADD SLT PUSH2 0x4BC JUMPI PUSH2 0x4BB PUSH2 0x3A9 JUMP JUMPDEST JUMPDEST DUP2 CALLDATALOAD PUSH2 0x4CC DUP5 DUP3 PUSH1 0x20 DUP7 ADD PUSH2 0x467 JUMP JUMPDEST SWAP2 POP POP SWAP3 SWAP2 POP POP JUMP JUMPDEST PUSH0 PUSH0 PUSH1 0x40 DUP4 DUP6 SUB SLT ISZERO PUSH2 0x4EB JUMPI PUSH2 0x4EA PUSH2 0x296 JUMP JUMPDEST JUMPDEST PUSH0 DUP4 ADD CALLDATALOAD PUSH8 0xFFFFFFFFFFFFFFFF DUP2 GT ISZERO PUSH2 0x508 JUMPI PUSH2 0x507 PUSH2 0x29A JUMP JUMPDEST JUMPDEST PUSH2 0x514 DUP6 DUP3 DUP7 ADD PUSH2 0x4A8 JUMP JUMPDEST SWAP3 POP POP PUSH1 0x20 PUSH2 0x525 DUP6 DUP3 DUP7 ADD PUSH2 0x2BD JUMP JUMPDEST SWAP2 POP POP SWAP3 POP SWAP3 SWAP1 POP JUMP JUMPDEST PUSH0 PUSH1 0x20 DUP3 ADD SWAP1 POP PUSH2 0x542 PUSH0 DUP4 ADD DUP5 PUSH2 0x2FC JUMP JUMPDEST SWAP3 SWAP2 POP POP JUMP JUMPDEST PUSH0 DUP2 SWAP1 POP SWAP2 SWAP1 POP JUMP JUMPDEST PUSH2 0x55A DUP2 PUSH2 0x548 JUMP JUMPDEST DUP2 EQ PUSH2 0x564 JUMPI PUSH0 PUSH0 REVERT JUMPDEST POP JUMP JUMPDEST PUSH0 DUP2 CALLDATALOAD SWAP1 POP PUSH2 0x575 DUP2 PUSH2 0x551 JUMP JUMPDEST SWAP3 SWAP2 POP POP JUMP JUMPDEST PUSH0 PUSH1 0x20 DUP3 DUP5 SUB SLT ISZERO PUSH2 0x590 JUMPI PUSH2 0x58F PUSH2 0x296 JUMP JUMPDEST JUMPDEST PUSH0 PUSH2 0x59D DUP5 DUP3 DUP6 ADD PUSH2 0x567 JUMP JUMPDEST SWAP2 POP POP SWAP3 SWAP2 POP POP JUMP JUMPDEST PUSH32 0x4E487B7100000000000000000000000000000000000000000000000000000000 PUSH0 MSTORE PUSH1 0x22 PUSH1 0x4 MSTORE PUSH1 0x24 PUSH0 REVERT JUMPDEST PUSH0 PUSH1 0x2 DUP3 DIV SWAP1 POP PUSH1 0x1 DUP3 AND DUP1 PUSH2 0x5EA JUMPI PUSH1 0x7F DUP3 AND SWAP2 POP JUMPDEST PUSH1 0x20 DUP3 LT DUP2 SUB PUSH2 0x5FD JUMPI PUSH2 0x5FC PUSH2 0x5A6 JUMP JUMPDEST JUMPDEST POP SWAP2 SWAP1 POP JUMP JUMPDEST PUSH0 DUP2 SWAP1 POP DUP2 PUSH0 MSTORE PUSH1 0x20 PUSH0 KECCAK256 SWAP1 POP SWAP2 SWAP1 POP JUMP JUMPDEST PUSH0 PUSH1 0x20 PUSH1 0x1F DUP4 ADD DIV SWAP1 POP SWAP2 SWAP1 POP JUMP JUMPDEST PUSH0 DUP3 DUP3 SHL SWAP1 POP SWAP3 SWAP2 POP POP JUMP JUMPDEST PUSH0 PUSH1 0x8 DUP4 MUL PUSH2 0x65F PUSH32 0xFFFFFFFFFFFFFFFFFFFFFFFFFFFFFFFFFFFFFFFFFFFFFFFFFFFFFFFFFFFFFFFF DUP3 PUSH2 0x624 JUMP JUMPDEST PUSH2 0x669 DUP7 DUP4 PUSH2 0x624 JUMP JUMPDEST SWAP6 POP DUP1 NOT DUP5 AND SWAP4 POP DUP1 DUP7 AND DUP5 OR SWAP3 POP POP POP SWAP4 SWAP3 POP POP POP JUMP JUMPDEST PUSH0 DUP2 SWAP1 POP SWAP2 SWAP1 POP JUMP JUMPDEST PUSH0 PUSH2 0x6A4 PUSH2 0x69F PUSH2 0x69A DUP5 PUSH2 0x29E JUMP JUMPDEST PUSH2 0x681 JUMP JUMPDEST PUSH2 0x29E JUMP JUMPDEST SWAP1 POP SWAP2 SWAP1 POP JUMP JUMPDEST PUSH0 DUP2 SWAP1 POP SWAP2 SWAP1 POP JUMP JUMPDEST PUSH2 0x6BD DUP4 PUSH2 0x68A JUMP JUMPDEST PUSH2 0x6D1 PUSH2 0x6C9 DUP3 PUSH2 0x6AB JUMP JUMPDEST DUP5 DUP5 SLOAD PUSH2 0x630 JUMP JUMPDEST DUP3 SSTORE POP POP POP POP JUMP JUMPDEST PUSH0 PUSH0 SWAP1 POP SWAP1 JUMP JUMPDEST PUSH2 0x6E8 PUSH2 0x6D9 JUMP JUMPDEST PUSH2 0x6F3 DUP2 DUP5 DUP5 PUSH2 0x6B4 JUMP JUMPDEST POP POP POP JUMP JUMPDEST JUMPDEST DUP2 DUP2 LT ISZERO PUSH2 0x716 JUMPI PUSH2 0x70B PUSH0 DUP3 PUSH2 0x6E0 JUMP JUMPDEST PUSH1 0x1 DUP2 ADD SWAP1 POP PUSH2 0x6F9 JUMP JUMPDEST POP POP JUMP JUMPDEST PUSH1 0x1F DUP3 GT ISZERO PUSH2 0x75B JUMPI PUSH2 0x72C DUP2 PUSH2 0x603 JUMP JUMPDEST PUSH2 0x735 DUP5 PUSH2 0x615 JUMP JUMPDEST DUP2 ADD PUSH1 0x20 DUP6 LT ISZERO PUSH2 0x744 JUMPI DUP2 SWAP1 POP JUMPDEST PUSH2 0x758 PUSH2 0x750 DUP6 PUSH2 0x615 JUMP JUMPDEST DUP4 ADD DUP3 PUSH2 0x6F8 JUMP JUMPDEST POP POP JUMPDEST POP POP POP JUMP JUMPDEST PUSH0 DUP3 DUP3 SHR SWAP1 POP SWAP3 SWAP2 POP POP JUMP JUMPDEST PUSH0 PUSH2 0x77B PUSH0 NOT DUP5 PUSH1 0x8 MUL PUSH2 0x760 JUMP JUMPDEST NOT DUP1 DUP4 AND SWAP2 POP POP SWAP3 SWAP2 POP POP JUMP JUMPDEST PUSH0 PUSH2 0x793 DUP4 DUP4 PUSH2 0x76C JUMP JUMPDEST SWAP2 POP DUP3 PUSH1 0x2 MUL DUP3 OR SWAP1 POP SWAP3 SWAP2 POP POP JUMP JUMPDEST PUSH2 0x7AC DUP3 PUSH2 0x30B JUMP JUMPDEST PUSH8 0xFFFFFFFFFFFFFFFF DUP2 GT ISZERO PUSH2 0x7C5 JUMPI PUSH2 0x7C4 PUSH2 0x3B1 JUMP JUMPDEST JUMPDEST PUSH2 0x7CF DUP3 SLOAD PUSH2 0x5D3 JUMP JUMPDEST PUSH2 0x7DA DUP3 DUP3 DUP6 PUSH2 0x71A JUMP JUMPDEST PUSH0 PUSH1 0x20 SWAP1 POP PUSH1 0x1F DUP4 GT PUSH1 0x1 DUP2 EQ PUSH2 0x80B JUMPI PUSH0 DUP5 ISZERO PUSH2 0x7F9 JUMPI DUP3 DUP8 ADD MLOAD SWAP1 POP JUMPDEST PUSH2 0x803 DUP6 DUP3 PUSH2 0x788 JUMP JUMPDEST DUP7 SSTORE POP PUSH2 0x86A JUMP JUMPDEST PUSH1 0x1F NOT DUP5 AND PUSH2 0x819 DUP7 PUSH2 0x603 JUMP JUMPDEST PUSH0 JUMPDEST DUP3 DUP2 LT ISZERO PUSH2 0x840 JUMPI DUP5 DUP10 ADD MLOAD DUP3 SSTORE PUSH1 0x1 DUP3 ADD SWAP2 POP PUSH1 0x20 DUP6 ADD SWAP5 POP PUSH1 0x20 DUP2 ADD SWAP1 POP PUSH2 0x81B JUMP JUMPDEST DUP7 DUP4 LT ISZERO PUSH2 0x85D JUMPI DUP5 DUP10 ADD MLOAD PUSH2 0x859 PUSH1 0x1F DUP10 AND DUP3 PUSH2 0x76C JUMP JUMPDEST DUP4 SSTORE POP JUMPDEST PUSH1 0x1 PUSH1 0x2 DUP9 MUL ADD DUP9 SSTORE POP POP POP JUMPDEST POP POP POP POP POP POP JUMP JUMPDEST PUSH0 DUP2 SWAP1 POP SWAP3 SWAP2 POP POP JUMP JUMPDEST PUSH0 PUSH2 0x886 DUP3 PUSH2 0x30B JUMP JUMPDEST PUSH2 0x890 DUP2 DUP6 PUSH2 0x872 JUMP JUMPDEST SWAP4 POP PUSH2 0x8A0 DUP2 DUP6 PUSH1 0x20 DUP7 ADD PUSH2 0x325 JUMP JUMPDEST DUP1 DUP5 ADD SWAP2 POP POP SWAP3 SWAP2 POP POP JUMP JUMPDEST PUSH0 PUSH2 0x8B7 DUP3 DUP5 PUSH2 0x87C JUMP JUMPDEST SWAP2 POP DUP2 SWAP1 POP SWAP3 SWAP2 POP POP JUMP INVALID LOG2 PUSH5 0x6970667358 0x22 SLT KECCAK256 PUSH10 0x37BE4518B4A27CE7655C 0x1F 0xB8 DUP9 EXTCODECOPY 0xCD SGT SWAP2 ADD AND PUSH24 0x509572B328DD7DF09FF95164736F6C634300081E0033A264 PUSH10 0x706673582212204744A0 0xC0 0x4C DUP8 NOT 0xC4 DUP13 MOD 0x26 0xAE 0xA5 0xC9 0xED MLOAD PUSH2 0xDF9C 0xB5 BLOCKHASH 0xAB PREVRANDAO SGT CODESIZE 0xE 0xD3 0xC0 BLOBHASH NUMBER GAS 0x26 PUSH5 0x736F6C6343 STOP ADDMOD 0x1E STOP CALLER "
				},
				"gasEstimates": {
					"creation": {
						"codeDepositCost": "720800",
						"executionCost": "751",
						"totalCost": "721551"
					},
					"external": {
						"createSimpleStorageContract()": "infinite",
						"listOfSimpleStorageContracts(uint256)": "infinite",
						"sfGet(uint256)": "infinite",
						"sfStore(uint256,uint256)": "infinite"
					}
				},
				"methodIdentifiers": {
					"createSimpleStorageContract()": "1dda6541",
					"listOfSimpleStorageContracts(uint256)": "f39f3035",
					"sfGet(uint256)": "c5f19c20",
					"sfStore(uint256,uint256)": "1563700f"
				}
			},
			"storageLayout": {
				"storage": [
					{
						"astId": 77,
						"contract": "StorageFactorl.sol:SolidityFactory",
						"label": "listOfSimpleStorageContracts",
						"offset": 0,
						"slot": "0",
						"type": "t_array(t_contract(SimpleStorage)67)dyn_storage"
					}
				],
				"types": {
					"t_array(t_contract(SimpleStorage)67)dyn_storage": {
						"base": "t_contract(SimpleStorage)67",
						"encoding": "dynamic_array",
						"label": "contract SimpleStorage[]",
						"numberOfBytes": "32"
					},
					"t_contract(SimpleStorage)67": {
						"encoding": "inplace",
						"label": "contract SimpleStorage",
						"numberOfBytes": "20"
					}
				}
			},
			"userdoc": {
				"kind": "user",
				"methods": {},
				"version": 1
			}
		}
	}
}