{
	"FundMe.sol": {
		"FundMe": {
			"abi": [
				{
					"inputs": [],
					"stateMutability": "nonpayable",
					"type": "constructor"
				},
				{
					"inputs": [],
					"name": "MINIMUM_USD",
					"outputs": [
						{
							"internalType": "uint256",
							"name": "",
							"type": "uint256"
						}
					],
					"stateMutability": "view",
					"type": "function"
				},
				{
					"inputs": [
						{
							"internalType": "address",
							"name": "funder",
							"type": "address"
						}
					],
					"name": "addressToAmountFunded",
					"outputs": [
						{
							"internalType": "uint256",
							"name": "amountFunded",
							"type": "uint256"
						}
					],
					"stateMutability": "view",
					"type": "function"
				},
				{
					"inputs": [],
					"name": "fund",
					"outputs": [],
					"stateMutability": "payable",
					"type": "function"
				},
				{
					"inputs": [
						{
							"internalType": "uint256",
							"name": "",
							"type": "uint256"
						}
					],
					"name": "funders",
					"outputs": [
						{
							"internalType": "address",
							"name": "",
							"type": "address"
						}
					],
					"stateMutability": "view",
					"type": "function"
				},
				{
					"inputs": [],
					"name": "i_owner",
					"outputs": [
						{
							"internalType": "address",
							"name": "",
							"type": "address"
						}
					],
					"stateMutability": "view",
					"type": "function"
				},
				{
					"inputs": [],
					"name": "withdraw",
					"outputs": [],
					"stateMutability": "nonpayable",
					"type": "function"
				}
			],
			"devdoc": {
				"kind": "dev",
				"methods": {},
				"version": 1
			},
			"evm": {
				"assembly": "    /* \"FundMe.sol\":114:1552  contract FundMe {... */\n  mstore(0x40, 0xa0)\n    /* \"FundMe.sol\":380:431  constructor() {... */\n  callvalue\n  dup1\n  iszero\n  tag_1\n  jumpi\n  revert(0x00, 0x00)\ntag_1:\n  pop\n    /* \"FundMe.sol\":414:424  msg.sender */\n  caller\n    /* \"FundMe.sol\":404:424  i_owner = msg.sender */\n  0xffffffffffffffffffffffffffffffffffffffff\n  and\n  0x80\n  dup2\n  0xffffffffffffffffffffffffffffffffffffffff\n  and\n  dup2\n  mstore\n  pop\n  pop\n    /* \"FundMe.sol\":114:1552  contract FundMe {... */\n  mload(0x80)\n  codecopy(0x00, dataOffset(sub_0), dataSize(sub_0))\n  0x00\n  assignImmutable(\"0x35bb2e240092263378f77ea1e9c278099a33b604c4c4e26d13ea227e8bb74470\")\n  return(0x00, dataSize(sub_0))\nstop\n\nsub_0: assembly {\n        /* \"FundMe.sol\":114:1552  contract FundMe {... */\n      mstore(0x40, 0x80)\n      jumpi(tag_1, lt(calldatasize, 0x04))\n      shr(0xe0, calldataload(0x00))\n      dup1\n      0x3ccfd60b\n      eq\n      tag_2\n      jumpi\n      dup1\n      0x3e47d6f3\n      eq\n      tag_3\n      jumpi\n      dup1\n      0x6b69a592\n      eq\n      tag_4\n      jumpi\n      dup1\n      0xb60d4288\n      eq\n      tag_5\n      jumpi\n      dup1\n      0xdba6335f\n      eq\n      tag_6\n      jumpi\n      dup1\n      0xdc0d3dff\n      eq\n      tag_7\n      jumpi\n    tag_1:\n      revert(0x00, 0x00)\n        /* \"FundMe.sol\":695:1439  function withdraw() public onlyOwner{... */\n    tag_2:\n      callvalue\n      dup1\n      iszero\n      tag_8\n      jumpi\n      revert(0x00, 0x00)\n    tag_8:\n      pop\n      tag_9\n      tag_10\n      jump\t// in\n    tag_9:\n      stop\n        /* \"FundMe.sol\":259:334  mapping(address funder =>uint256 amountFunded) public addressToAmountFunded */\n    tag_3:\n      callvalue\n      dup1\n      iszero\n      tag_11\n      jumpi\n      revert(0x00, 0x00)\n    tag_11:\n      pop\n      tag_12\n      0x04\n      dup1\n      calldatasize\n      sub\n      dup2\n      add\n      swap1\n      tag_13\n      swap2\n      swap1\n      tag_14\n      jump\t// in\n    tag_13:\n      tag_15\n      jump\t// in\n    tag_12:\n      mload(0x40)\n      tag_16\n      swap2\n      swap1\n      tag_17\n      jump\t// in\n    tag_16:\n      mload(0x40)\n      dup1\n      swap2\n      sub\n      swap1\n      return\n        /* \"FundMe.sol\":175:221  uint256 public constant MINIMUM_USD = 2 * 1e18 */\n    tag_4:\n      callvalue\n      dup1\n      iszero\n      tag_18\n      jumpi\n      revert(0x00, 0x00)\n    tag_18:\n      pop\n      tag_19\n      tag_20\n      jump\t// in\n    tag_19:\n      mload(0x40)\n      tag_21\n      swap2\n      swap1\n      tag_17\n      jump\t// in\n    tag_21:\n      mload(0x40)\n      dup1\n      swap2\n      sub\n      swap1\n      return\n        /* \"FundMe.sol\":437:689  function fund() public payable{... */\n    tag_5:\n      tag_22\n      tag_23\n      jump\t// in\n    tag_22:\n      stop\n        /* \"FundMe.sol\":341:373  address public immutable i_owner */\n    tag_6:\n      callvalue\n      dup1\n      iszero\n      tag_24\n      jumpi\n      revert(0x00, 0x00)\n    tag_24:\n      pop\n      tag_25\n      tag_26\n      jump\t// in\n    tag_25:\n      mload(0x40)\n      tag_27\n      swap2\n      swap1\n      tag_28\n      jump\t// in\n    tag_27:\n      mload(0x40)\n      dup1\n      swap2\n      sub\n      swap1\n      return\n        /* \"FundMe.sol\":229:253  address[] public funders */\n    tag_7:\n      callvalue\n      dup1\n      iszero\n      tag_29\n      jumpi\n      revert(0x00, 0x00)\n    tag_29:\n      pop\n      tag_30\n      0x04\n      dup1\n      calldatasize\n      sub\n      dup2\n      add\n      swap1\n      tag_31\n      swap2\n      swap1\n      tag_32\n      jump\t// in\n    tag_31:\n      tag_33\n      jump\t// in\n    tag_30:\n      mload(0x40)\n      tag_34\n      swap2\n      swap1\n      tag_28\n      jump\t// in\n    tag_34:\n      mload(0x40)\n      dup1\n      swap2\n      sub\n      swap1\n      return\n        /* \"FundMe.sol\":695:1439  function withdraw() public onlyOwner{... */\n    tag_10:\n        /* \"FundMe.sol\":1498:1505  i_owner */\n      immutable(\"0x35bb2e240092263378f77ea1e9c278099a33b604c4c4e26d13ea227e8bb74470\")\n        /* \"FundMe.sol\":1484:1505  msg.sender == i_owner */\n      0xffffffffffffffffffffffffffffffffffffffff\n      and\n        /* \"FundMe.sol\":1484:1494  msg.sender */\n      caller\n        /* \"FundMe.sol\":1484:1505  msg.sender == i_owner */\n      0xffffffffffffffffffffffffffffffffffffffff\n      and\n      eq\n        /* \"FundMe.sol\":1476:1530  require(msg.sender == i_owner, \"Sender is not owner!\") */\n      tag_36\n      jumpi\n      mload(0x40)\n      0x08c379a000000000000000000000000000000000000000000000000000000000\n      dup2\n      mstore\n      0x04\n      add\n      tag_37\n      swap1\n      tag_38\n      jump\t// in\n    tag_37:\n      mload(0x40)\n      dup1\n      swap2\n      sub\n      swap1\n      revert\n    tag_36:\n        /* \"FundMe.sol\":811:830  uint256 funderIndex */\n      0x00\n        /* \"FundMe.sol\":833:834  0 */\n      0x00\n        /* \"FundMe.sol\":811:834  uint256 funderIndex = 0 */\n      swap1\n      pop\n        /* \"FundMe.sol\":806:988  for (uint256 funderIndex = 0; funderIndex<funders.length; funderIndex++) {... */\n    tag_40:\n        /* \"FundMe.sol\":848:855  funders */\n      0x00\n        /* \"FundMe.sol\":848:862  funders.length */\n      dup1\n      sload\n      swap1\n      pop\n        /* \"FundMe.sol\":836:847  funderIndex */\n      dup2\n        /* \"FundMe.sol\":836:862  funderIndex<funders.length */\n      lt\n        /* \"FundMe.sol\":806:988  for (uint256 funderIndex = 0; funderIndex<funders.length; funderIndex++) {... */\n      iszero\n      tag_41\n      jumpi\n        /* \"FundMe.sol\":893:907  address funder */\n      0x00\n        /* \"FundMe.sol\":910:917  funders */\n      0x00\n        /* \"FundMe.sol\":918:929  funderIndex */\n      dup3\n        /* \"FundMe.sol\":910:930  funders[funderIndex] */\n      dup2\n      sload\n      dup2\n      lt\n      tag_43\n      jumpi\n      tag_44\n      tag_45\n      jump\t// in\n    tag_44:\n    tag_43:\n      swap1\n      0x00\n      mstore\n      keccak256(0x00, 0x20)\n      add\n      0x00\n      swap1\n      sload\n      swap1\n      0x0100\n      exp\n      swap1\n      div\n      0xffffffffffffffffffffffffffffffffffffffff\n      and\n        /* \"FundMe.sol\":893:930  address funder = funders[funderIndex] */\n      swap1\n      pop\n        /* \"FundMe.sol\":976:977  0 */\n      0x00\n        /* \"FundMe.sol\":944:965  addressToAmountFunded */\n      0x01\n        /* \"FundMe.sol\":944:973  addressToAmountFunded[funder] */\n      0x00\n        /* \"FundMe.sol\":966:972  funder */\n      dup4\n        /* \"FundMe.sol\":944:973  addressToAmountFunded[funder] */\n      0xffffffffffffffffffffffffffffffffffffffff\n      and\n      0xffffffffffffffffffffffffffffffffffffffff\n      and\n      dup2\n      mstore\n      0x20\n      add\n      swap1\n      dup2\n      mstore\n      0x20\n      add\n      0x00\n      keccak256\n        /* \"FundMe.sol\":944:977  addressToAmountFunded[funder] = 0 */\n      dup2\n      swap1\n      sstore\n      pop\n        /* \"FundMe.sol\":879:988  {... */\n      pop\n        /* \"FundMe.sol\":864:877  funderIndex++ */\n      dup1\n      dup1\n      0x01\n      add\n      swap2\n      pop\n      pop\n        /* \"FundMe.sol\":806:988  for (uint256 funderIndex = 0; funderIndex<funders.length; funderIndex++) {... */\n      jump(tag_40)\n    tag_41:\n      pop\n        /* \"FundMe.sol\":1045:1046  0 */\n      0x00\n        /* \"FundMe.sol\":1031:1047  new address[](0) */\n      0xffffffffffffffff\n      dup2\n      gt\n      iszero\n      tag_47\n      jumpi\n      tag_48\n      tag_49\n      jump\t// in\n    tag_48:\n    tag_47:\n      mload(0x40)\n      swap1\n      dup1\n      dup3\n      mstore\n      dup1\n      0x20\n      mul\n      0x20\n      add\n      dup3\n      add\n      0x40\n      mstore\n      dup1\n      iszero\n      tag_50\n      jumpi\n      dup2\n      0x20\n      add\n      0x20\n      dup3\n      mul\n      dup1\n      calldatasize\n      dup4\n      calldatacopy\n      dup1\n      dup3\n      add\n      swap2\n      pop\n      pop\n      swap1\n      pop\n    tag_50:\n      pop\n        /* \"FundMe.sol\":1021:1028  funders */\n      0x00\n        /* \"FundMe.sol\":1021:1047  funders = new address[](0) */\n      swap1\n      dup1\n      mload\n      swap1\n      0x20\n      add\n      swap1\n      tag_51\n      swap3\n      swap2\n      swap1\n      tag_52\n      jump\t// in\n    tag_51:\n      pop\n        /* \"FundMe.sol\":1307:1323  bool callSuccess */\n      0x00\n        /* \"FundMe.sol\":1337:1347  msg.sender */\n      caller\n        /* \"FundMe.sol\":1329:1353  payable(msg.sender).call */\n      0xffffffffffffffffffffffffffffffffffffffff\n      and\n        /* \"FundMe.sol\":1361:1382  address(this).balance */\n      selfbalance\n        /* \"FundMe.sol\":1329:1387  payable(msg.sender).call{value: address(this).balance}(\"\") */\n      mload(0x40)\n      tag_53\n      swap1\n      tag_54\n      jump\t// in\n    tag_53:\n      0x00\n      mload(0x40)\n      dup1\n      dup4\n      sub\n      dup2\n      dup6\n      dup8\n      gas\n      call\n      swap3\n      pop\n      pop\n      pop\n      returndatasize\n      dup1\n      0x00\n      dup2\n      eq\n      tag_57\n      jumpi\n      mload(0x40)\n      swap2\n      pop\n      and(add(returndatasize, 0x3f), not(0x1f))\n      dup3\n      add\n      0x40\n      mstore\n      returndatasize\n      dup3\n      mstore\n      returndatasize\n      0x00\n      0x20\n      dup5\n      add\n      returndatacopy\n      jump(tag_56)\n    tag_57:\n      0x60\n      swap2\n      pop\n    tag_56:\n      pop\n        /* \"FundMe.sol\":1306:1387  (bool callSuccess, ) = payable(msg.sender).call{value: address(this).balance}(\"\") */\n      pop\n      swap1\n      pop\n        /* \"FundMe.sol\":1405:1416  callSuccess */\n      dup1\n        /* \"FundMe.sol\":1397:1432  require(callSuccess, \"call failed\") */\n      tag_58\n      jumpi\n      mload(0x40)\n      0x08c379a000000000000000000000000000000000000000000000000000000000\n      dup2\n      mstore\n      0x04\n      add\n      tag_59\n      swap1\n      tag_60\n      jump\t// in\n    tag_59:\n      mload(0x40)\n      dup1\n      swap2\n      sub\n      swap1\n      revert\n    tag_58:\n        /* \"FundMe.sol\":731:1439  {... */\n      pop\n        /* \"FundMe.sol\":695:1439  function withdraw() public onlyOwner{... */\n      jump\t// out\n        /* \"FundMe.sol\":259:334  mapping(address funder =>uint256 amountFunded) public addressToAmountFunded */\n    tag_15:\n      mstore(0x20, 0x01)\n      dup1\n      0x00\n      mstore\n      keccak256(0x00, 0x40)\n      0x00\n      swap2\n      pop\n      swap1\n      pop\n      sload\n      dup2\n      jump\t// out\n        /* \"FundMe.sol\":175:221  uint256 public constant MINIMUM_USD = 2 * 1e18 */\n    tag_20:\n        /* \"FundMe.sol\":213:221  2 * 1e18 */\n      0x1bc16d674ec80000\n        /* \"FundMe.sol\":175:221  uint256 public constant MINIMUM_USD = 2 * 1e18 */\n      dup2\n      jump\t// out\n        /* \"FundMe.sol\":437:689  function fund() public payable{... */\n    tag_23:\n        /* \"FundMe.sol\":213:221  2 * 1e18 */\n      0x1bc16d674ec80000\n        /* \"FundMe.sol\":494:523  msg.value.getConversionRate() */\n      tag_62\n        /* \"FundMe.sol\":494:503  msg.value */\n      callvalue\n        /* \"FundMe.sol\":494:521  msg.value.getConversionRate */\n      tag_63\n        /* \"FundMe.sol\":494:523  msg.value.getConversionRate() */\n      jump\t// in\n    tag_62:\n        /* \"FundMe.sol\":494:537  msg.value.getConversionRate()>= MINIMUM_USD */\n      lt\n      iszero\n        /* \"FundMe.sol\":486:564  require(msg.value.getConversionRate()>= MINIMUM_USD, \"didn't send enough ETH\") */\n      tag_64\n      jumpi\n      mload(0x40)\n      0x08c379a000000000000000000000000000000000000000000000000000000000\n      dup2\n      mstore\n      0x04\n      add\n      tag_65\n      swap1\n      tag_66\n      jump\t// in\n    tag_65:\n      mload(0x40)\n      dup1\n      swap2\n      sub\n      swap1\n      revert\n    tag_64:\n        /* \"FundMe.sol\":602:609  funders */\n      0x00\n        /* \"FundMe.sol\":615:625  msg.sender */\n      caller\n        /* \"FundMe.sol\":602:626  funders.push(msg.sender) */\n      swap1\n      dup1\n      0x01\n      dup2\n      sload\n      add\n      dup1\n      dup3\n      sstore\n      dup1\n      swap2\n      pop\n      pop\n      0x01\n      swap1\n      sub\n      swap1\n      0x00\n      mstore\n      keccak256(0x00, 0x20)\n      add\n      0x00\n      swap1\n      swap2\n      swap1\n      swap2\n      swap1\n      swap2\n      0x0100\n      exp\n      dup2\n      sload\n      dup2\n      0xffffffffffffffffffffffffffffffffffffffff\n      mul\n      not\n      and\n      swap1\n      dup4\n      0xffffffffffffffffffffffffffffffffffffffff\n      and\n      mul\n      or\n      swap1\n      sstore\n      pop\n        /* \"FundMe.sol\":673:682  msg.value */\n      callvalue\n        /* \"FundMe.sol\":636:657  addressToAmountFunded */\n      0x01\n        /* \"FundMe.sol\":636:669  addressToAmountFunded[msg.sender] */\n      0x00\n        /* \"FundMe.sol\":658:668  msg.sender */\n      caller\n        /* \"FundMe.sol\":636:669  addressToAmountFunded[msg.sender] */\n      0xffffffffffffffffffffffffffffffffffffffff\n      and\n      0xffffffffffffffffffffffffffffffffffffffff\n      and\n      dup2\n      mstore\n      0x20\n      add\n      swap1\n      dup2\n      mstore\n      0x20\n      add\n      0x00\n      keccak256\n      0x00\n        /* \"FundMe.sol\":636:682  addressToAmountFunded[msg.sender] += msg.value */\n      dup3\n      dup3\n      sload\n      tag_68\n      swap2\n      swap1\n      tag_69\n      jump\t// in\n    tag_68:\n      swap3\n      pop\n      pop\n      dup2\n      swap1\n      sstore\n      pop\n        /* \"FundMe.sol\":437:689  function fund() public payable{... */\n      jump\t// out\n        /* \"FundMe.sol\":341:373  address public immutable i_owner */\n    tag_26:\n      immutable(\"0x35bb2e240092263378f77ea1e9c278099a33b604c4c4e26d13ea227e8bb74470\")\n      dup2\n      jump\t// out\n        /* \"FundMe.sol\":229:253  address[] public funders */\n    tag_33:\n      0x00\n      dup2\n      dup2\n      sload\n      dup2\n      lt\n      tag_70\n      jumpi\n      0x00\n      dup1\n      revert\n    tag_70:\n      swap1\n      0x00\n      mstore\n      keccak256(0x00, 0x20)\n      add\n      0x00\n      swap2\n      pop\n      sload\n      swap1\n      0x0100\n      exp\n      swap1\n      div\n      0xffffffffffffffffffffffffffffffffffffffff\n      and\n      dup2\n      jump\t// out\n        /* \"PriceConverter.sol\":628:864  function getConversionRate(uint256 ethAmount) internal view returns(uint256) {... */\n    tag_63:\n        /* \"PriceConverter.sol\":696:703  uint256 */\n      0x00\n        /* \"PriceConverter.sol\":715:731  uint256 ethPrice */\n      0x00\n        /* \"PriceConverter.sol\":734:744  getPrice() */\n      tag_73\n        /* \"PriceConverter.sol\":734:742  getPrice */\n      tag_74\n        /* \"PriceConverter.sol\":734:744  getPrice() */\n      jump\t// in\n    tag_73:\n        /* \"PriceConverter.sol\":715:744  uint256 ethPrice = getPrice() */\n      swap1\n      pop\n        /* \"PriceConverter.sol\":754:776  uint256 ethAmountInUsd */\n      0x00\n        /* \"PriceConverter.sol\":804:808  1e18 */\n      0x0de0b6b3a7640000\n        /* \"PriceConverter.sol\":791:800  ethAmount */\n      dup5\n        /* \"PriceConverter.sol\":780:788  ethPrice */\n      dup4\n        /* \"PriceConverter.sol\":780:800  ethPrice * ethAmount */\n      tag_75\n      swap2\n      swap1\n      tag_76\n      jump\t// in\n    tag_75:\n        /* \"PriceConverter.sol\":779:808  (ethPrice * ethAmount) / 1e18 */\n      tag_77\n      swap2\n      swap1\n      tag_78\n      jump\t// in\n    tag_77:\n        /* \"PriceConverter.sol\":754:808  uint256 ethAmountInUsd = (ethPrice * ethAmount) / 1e18 */\n      swap1\n      pop\n        /* \"PriceConverter.sol\":843:857  ethAmountInUsd */\n      dup1\n        /* \"PriceConverter.sol\":836:857  return ethAmountInUsd */\n      swap3\n      pop\n      pop\n      pop\n        /* \"PriceConverter.sol\":628:864  function getConversionRate(uint256 ethAmount) internal view returns(uint256) {... */\n      swap2\n      swap1\n      pop\n      jump\t// out\n        /* \"PriceConverter.sol\":203:623  function getPrice() internal view returns(uint256) {... */\n    tag_74:\n        /* \"PriceConverter.sol\":245:252  uint256 */\n      0x00\n        /* \"PriceConverter.sol\":351:382  AggregatorV3Interface priceFeed */\n      0x00\n        /* \"PriceConverter.sol\":407:449  0x694AA1769357215DE4FAC081bf1f309aDC325306 */\n      0x694aa1769357215de4fac081bf1f309adc325306\n        /* \"PriceConverter.sol\":351:450  AggregatorV3Interface priceFeed = AggregatorV3Interface(0x694AA1769357215DE4FAC081bf1f309aDC325306) */\n      swap1\n      pop\n        /* \"PriceConverter.sol\":463:475  int256 price */\n      0x00\n        /* \"PriceConverter.sol\":485:494  priceFeed */\n      dup2\n        /* \"PriceConverter.sol\":485:510  priceFeed.latestRoundData */\n      0xffffffffffffffffffffffffffffffffffffffff\n      and\n      0xfeaf968c\n        /* \"PriceConverter.sol\":485:512  priceFeed.latestRoundData() */\n      mload(0x40)\n      dup2\n      0xffffffff\n      and\n      0xe0\n      shl\n      dup2\n      mstore\n      0x04\n      add\n      0xa0\n      mload(0x40)\n      dup1\n      dup4\n      sub\n      dup2\n      dup7\n      gas\n      staticcall\n      iszero\n      dup1\n      iszero\n      tag_81\n      jumpi\n      returndatacopy(0x00, 0x00, returndatasize)\n      revert(0x00, returndatasize)\n    tag_81:\n      pop\n      pop\n      pop\n      pop\n      mload(0x40)\n      returndatasize\n      not(0x1f)\n      0x1f\n      dup3\n      add\n      and\n      dup3\n      add\n      dup1\n      0x40\n      mstore\n      pop\n      dup2\n      add\n      swap1\n      tag_82\n      swap2\n      swap1\n      tag_83\n      jump\t// in\n    tag_82:\n        /* \"PriceConverter.sol\":460:512  (, int256 price, , , ) = priceFeed.latestRoundData() */\n      pop\n      pop\n      pop\n      swap2\n      pop\n      pop\n        /* \"PriceConverter.sol\":610:614  1e10 */\n      0x02540be400\n        /* \"PriceConverter.sol\":602:607  price */\n      dup2\n        /* \"PriceConverter.sol\":602:614  price * 1e10 */\n      tag_84\n      swap2\n      swap1\n      tag_85\n      jump\t// in\n    tag_84:\n        /* \"PriceConverter.sol\":587:615  return uint256(price * 1e10) */\n      swap3\n      pop\n      pop\n      pop\n        /* \"PriceConverter.sol\":203:623  function getPrice() internal view returns(uint256) {... */\n      swap1\n      jump\t// out\n    tag_52:\n      dup3\n      dup1\n      sload\n      dup3\n      dup3\n      sstore\n      swap1\n      0x00\n      mstore\n      keccak256(0x00, 0x20)\n      swap1\n      dup2\n      add\n      swap3\n      dup3\n      iszero\n      tag_86\n      jumpi\n      swap2\n      0x20\n      mul\n      dup3\n      add\n    tag_87:\n      dup3\n      dup2\n      gt\n      iszero\n      tag_88\n      jumpi\n      dup3\n      mload\n      dup3\n      exp(0x0100, 0x00)\n      dup2\n      sload\n      dup2\n      0xffffffffffffffffffffffffffffffffffffffff\n      mul\n      not\n      and\n      swap1\n      dup4\n      0xffffffffffffffffffffffffffffffffffffffff\n      and\n      mul\n      or\n      swap1\n      sstore\n      pop\n      swap2\n      0x20\n      add\n      swap2\n      swap1\n      0x01\n      add\n      swap1\n      jump(tag_87)\n    tag_88:\n    tag_86:\n      pop\n      swap1\n      pop\n      tag_89\n      swap2\n      swap1\n      tag_90\n      jump\t// in\n    tag_89:\n      pop\n      swap1\n      jump\t// out\n    tag_90:\n    tag_91:\n      dup1\n      dup3\n      gt\n      iszero\n      tag_92\n      jumpi\n      0x00\n      dup2\n      0x00\n      swap1\n      sstore\n      pop\n      0x01\n      add\n      jump(tag_91)\n    tag_92:\n      pop\n      swap1\n      jump\t// out\n        /* \"#utility.yul\":88:205   */\n    tag_94:\n        /* \"#utility.yul\":197:198   */\n      0x00\n        /* \"#utility.yul\":194:195   */\n      0x00\n        /* \"#utility.yul\":187:199   */\n      revert\n        /* \"#utility.yul\":334:460   */\n    tag_96:\n        /* \"#utility.yul\":371:378   */\n      0x00\n        /* \"#utility.yul\":411:453   */\n      0xffffffffffffffffffffffffffffffffffffffff\n        /* \"#utility.yul\":404:409   */\n      dup3\n        /* \"#utility.yul\":400:454   */\n      and\n        /* \"#utility.yul\":389:454   */\n      swap1\n      pop\n        /* \"#utility.yul\":334:460   */\n      swap2\n      swap1\n      pop\n      jump\t// out\n        /* \"#utility.yul\":466:562   */\n    tag_97:\n        /* \"#utility.yul\":503:510   */\n      0x00\n        /* \"#utility.yul\":532:556   */\n      tag_130\n        /* \"#utility.yul\":550:555   */\n      dup3\n        /* \"#utility.yul\":532:556   */\n      tag_96\n      jump\t// in\n    tag_130:\n        /* \"#utility.yul\":521:556   */\n      swap1\n      pop\n        /* \"#utility.yul\":466:562   */\n      swap2\n      swap1\n      pop\n      jump\t// out\n        /* \"#utility.yul\":568:690   */\n    tag_98:\n        /* \"#utility.yul\":641:665   */\n      tag_132\n        /* \"#utility.yul\":659:664   */\n      dup2\n        /* \"#utility.yul\":641:665   */\n      tag_97\n      jump\t// in\n    tag_132:\n        /* \"#utility.yul\":634:639   */\n      dup2\n        /* \"#utility.yul\":631:666   */\n      eq\n        /* \"#utility.yul\":621:684   */\n      tag_133\n      jumpi\n        /* \"#utility.yul\":680:681   */\n      0x00\n        /* \"#utility.yul\":677:678   */\n      0x00\n        /* \"#utility.yul\":670:682   */\n      revert\n        /* \"#utility.yul\":621:684   */\n    tag_133:\n        /* \"#utility.yul\":568:690   */\n      pop\n      jump\t// out\n        /* \"#utility.yul\":696:835   */\n    tag_99:\n        /* \"#utility.yul\":742:747   */\n      0x00\n        /* \"#utility.yul\":780:786   */\n      dup2\n        /* \"#utility.yul\":767:787   */\n      calldataload\n        /* \"#utility.yul\":758:787   */\n      swap1\n      pop\n        /* \"#utility.yul\":796:829   */\n      tag_135\n        /* \"#utility.yul\":823:828   */\n      dup2\n        /* \"#utility.yul\":796:829   */\n      tag_98\n      jump\t// in\n    tag_135:\n        /* \"#utility.yul\":696:835   */\n      swap3\n      swap2\n      pop\n      pop\n      jump\t// out\n        /* \"#utility.yul\":841:1170   */\n    tag_14:\n        /* \"#utility.yul\":900:906   */\n      0x00\n        /* \"#utility.yul\":949:951   */\n      0x20\n        /* \"#utility.yul\":937:946   */\n      dup3\n        /* \"#utility.yul\":928:935   */\n      dup5\n        /* \"#utility.yul\":924:947   */\n      sub\n        /* \"#utility.yul\":920:952   */\n      slt\n        /* \"#utility.yul\":917:1036   */\n      iszero\n      tag_137\n      jumpi\n        /* \"#utility.yul\":955:1034   */\n      tag_138\n      tag_94\n      jump\t// in\n    tag_138:\n        /* \"#utility.yul\":917:1036   */\n    tag_137:\n        /* \"#utility.yul\":1075:1076   */\n      0x00\n        /* \"#utility.yul\":1100:1153   */\n      tag_139\n        /* \"#utility.yul\":1145:1152   */\n      dup5\n        /* \"#utility.yul\":1136:1142   */\n      dup3\n        /* \"#utility.yul\":1125:1134   */\n      dup6\n        /* \"#utility.yul\":1121:1143   */\n      add\n        /* \"#utility.yul\":1100:1153   */\n      tag_99\n      jump\t// in\n    tag_139:\n        /* \"#utility.yul\":1090:1153   */\n      swap2\n      pop\n        /* \"#utility.yul\":1046:1163   */\n      pop\n        /* \"#utility.yul\":841:1170   */\n      swap3\n      swap2\n      pop\n      pop\n      jump\t// out\n        /* \"#utility.yul\":1176:1253   */\n    tag_100:\n        /* \"#utility.yul\":1213:1220   */\n      0x00\n        /* \"#utility.yul\":1242:1247   */\n      dup2\n        /* \"#utility.yul\":1231:1247   */\n      swap1\n      pop\n        /* \"#utility.yul\":1176:1253   */\n      swap2\n      swap1\n      pop\n      jump\t// out\n        /* \"#utility.yul\":1259:1377   */\n    tag_101:\n        /* \"#utility.yul\":1346:1370   */\n      tag_142\n        /* \"#utility.yul\":1364:1369   */\n      dup2\n        /* \"#utility.yul\":1346:1370   */\n      tag_100\n      jump\t// in\n    tag_142:\n        /* \"#utility.yul\":1341:1344   */\n      dup3\n        /* \"#utility.yul\":1334:1371   */\n      mstore\n        /* \"#utility.yul\":1259:1377   */\n      pop\n      pop\n      jump\t// out\n        /* \"#utility.yul\":1383:1605   */\n    tag_17:\n        /* \"#utility.yul\":1476:1480   */\n      0x00\n        /* \"#utility.yul\":1514:1516   */\n      0x20\n        /* \"#utility.yul\":1503:1512   */\n      dup3\n        /* \"#utility.yul\":1499:1517   */\n      add\n        /* \"#utility.yul\":1491:1517   */\n      swap1\n      pop\n        /* \"#utility.yul\":1527:1598   */\n      tag_144\n        /* \"#utility.yul\":1595:1596   */\n      0x00\n        /* \"#utility.yul\":1584:1593   */\n      dup4\n        /* \"#utility.yul\":1580:1597   */\n      add\n        /* \"#utility.yul\":1571:1577   */\n      dup5\n        /* \"#utility.yul\":1527:1598   */\n      tag_101\n      jump\t// in\n    tag_144:\n        /* \"#utility.yul\":1383:1605   */\n      swap3\n      swap2\n      pop\n      pop\n      jump\t// out\n        /* \"#utility.yul\":1611:1729   */\n    tag_102:\n        /* \"#utility.yul\":1698:1722   */\n      tag_146\n        /* \"#utility.yul\":1716:1721   */\n      dup2\n        /* \"#utility.yul\":1698:1722   */\n      tag_97\n      jump\t// in\n    tag_146:\n        /* \"#utility.yul\":1693:1696   */\n      dup3\n        /* \"#utility.yul\":1686:1723   */\n      mstore\n        /* \"#utility.yul\":1611:1729   */\n      pop\n      pop\n      jump\t// out\n        /* \"#utility.yul\":1735:1957   */\n    tag_28:\n        /* \"#utility.yul\":1828:1832   */\n      0x00\n        /* \"#utility.yul\":1866:1868   */\n      0x20\n        /* \"#utility.yul\":1855:1864   */\n      dup3\n        /* \"#utility.yul\":1851:1869   */\n      add\n        /* \"#utility.yul\":1843:1869   */\n      swap1\n      pop\n        /* \"#utility.yul\":1879:1950   */\n      tag_148\n        /* \"#utility.yul\":1947:1948   */\n      0x00\n        /* \"#utility.yul\":1936:1945   */\n      dup4\n        /* \"#utility.yul\":1932:1949   */\n      add\n        /* \"#utility.yul\":1923:1929   */\n      dup5\n        /* \"#utility.yul\":1879:1950   */\n      tag_102\n      jump\t// in\n    tag_148:\n        /* \"#utility.yul\":1735:1957   */\n      swap3\n      swap2\n      pop\n      pop\n      jump\t// out\n        /* \"#utility.yul\":1963:2085   */\n    tag_103:\n        /* \"#utility.yul\":2036:2060   */\n      tag_150\n        /* \"#utility.yul\":2054:2059   */\n      dup2\n        /* \"#utility.yul\":2036:2060   */\n      tag_100\n      jump\t// in\n    tag_150:\n        /* \"#utility.yul\":2029:2034   */\n      dup2\n        /* \"#utility.yul\":2026:2061   */\n      eq\n        /* \"#utility.yul\":2016:2079   */\n      tag_151\n      jumpi\n        /* \"#utility.yul\":2075:2076   */\n      0x00\n        /* \"#utility.yul\":2072:2073   */\n      0x00\n        /* \"#utility.yul\":2065:2077   */\n      revert\n        /* \"#utility.yul\":2016:2079   */\n    tag_151:\n        /* \"#utility.yul\":1963:2085   */\n      pop\n      jump\t// out\n        /* \"#utility.yul\":2091:2230   */\n    tag_104:\n        /* \"#utility.yul\":2137:2142   */\n      0x00\n        /* \"#utility.yul\":2175:2181   */\n      dup2\n        /* \"#utility.yul\":2162:2182   */\n      calldataload\n        /* \"#utility.yul\":2153:2182   */\n      swap1\n      pop\n        /* \"#utility.yul\":2191:2224   */\n      tag_153\n        /* \"#utility.yul\":2218:2223   */\n      dup2\n        /* \"#utility.yul\":2191:2224   */\n      tag_103\n      jump\t// in\n    tag_153:\n        /* \"#utility.yul\":2091:2230   */\n      swap3\n      swap2\n      pop\n      pop\n      jump\t// out\n        /* \"#utility.yul\":2236:2565   */\n    tag_32:\n        /* \"#utility.yul\":2295:2301   */\n      0x00\n        /* \"#utility.yul\":2344:2346   */\n      0x20\n        /* \"#utility.yul\":2332:2341   */\n      dup3\n        /* \"#utility.yul\":2323:2330   */\n      dup5\n        /* \"#utility.yul\":2319:2342   */\n      sub\n        /* \"#utility.yul\":2315:2347   */\n      slt\n        /* \"#utility.yul\":2312:2431   */\n      iszero\n      tag_155\n      jumpi\n        /* \"#utility.yul\":2350:2429   */\n      tag_156\n      tag_94\n      jump\t// in\n    tag_156:\n        /* \"#utility.yul\":2312:2431   */\n    tag_155:\n        /* \"#utility.yul\":2470:2471   */\n      0x00\n        /* \"#utility.yul\":2495:2548   */\n      tag_157\n        /* \"#utility.yul\":2540:2547   */\n      dup5\n        /* \"#utility.yul\":2531:2537   */\n      dup3\n        /* \"#utility.yul\":2520:2529   */\n      dup6\n        /* \"#utility.yul\":2516:2538   */\n      add\n        /* \"#utility.yul\":2495:2548   */\n      tag_104\n      jump\t// in\n    tag_157:\n        /* \"#utility.yul\":2485:2548   */\n      swap2\n      pop\n        /* \"#utility.yul\":2441:2558   */\n      pop\n        /* \"#utility.yul\":2236:2565   */\n      swap3\n      swap2\n      pop\n      pop\n      jump\t// out\n        /* \"#utility.yul\":2571:2740   */\n    tag_105:\n        /* \"#utility.yul\":2655:2666   */\n      0x00\n        /* \"#utility.yul\":2689:2695   */\n      dup3\n        /* \"#utility.yul\":2684:2687   */\n      dup3\n        /* \"#utility.yul\":2677:2696   */\n      mstore\n        /* \"#utility.yul\":2729:2733   */\n      0x20\n        /* \"#utility.yul\":2724:2727   */\n      dup3\n        /* \"#utility.yul\":2720:2734   */\n      add\n        /* \"#utility.yul\":2705:2734   */\n      swap1\n      pop\n        /* \"#utility.yul\":2571:2740   */\n      swap3\n      swap2\n      pop\n      pop\n      jump\t// out\n        /* \"#utility.yul\":2746:2916   */\n    tag_106:\n        /* \"#utility.yul\":2886:2908   */\n      0x53656e646572206973206e6f74206f776e657221000000000000000000000000\n        /* \"#utility.yul\":2882:2883   */\n      0x00\n        /* \"#utility.yul\":2874:2880   */\n      dup3\n        /* \"#utility.yul\":2870:2884   */\n      add\n        /* \"#utility.yul\":2863:2909   */\n      mstore\n        /* \"#utility.yul\":2746:2916   */\n      pop\n      jump\t// out\n        /* \"#utility.yul\":2922:3288   */\n    tag_107:\n        /* \"#utility.yul\":3064:3067   */\n      0x00\n        /* \"#utility.yul\":3085:3152   */\n      tag_161\n        /* \"#utility.yul\":3149:3151   */\n      0x14\n        /* \"#utility.yul\":3144:3147   */\n      dup4\n        /* \"#utility.yul\":3085:3152   */\n      tag_105\n      jump\t// in\n    tag_161:\n        /* \"#utility.yul\":3078:3152   */\n      swap2\n      pop\n        /* \"#utility.yul\":3161:3254   */\n      tag_162\n        /* \"#utility.yul\":3250:3253   */\n      dup3\n        /* \"#utility.yul\":3161:3254   */\n      tag_106\n      jump\t// in\n    tag_162:\n        /* \"#utility.yul\":3279:3281   */\n      0x20\n        /* \"#utility.yul\":3274:3277   */\n      dup3\n        /* \"#utility.yul\":3270:3282   */\n      add\n        /* \"#utility.yul\":3263:3282   */\n      swap1\n      pop\n        /* \"#utility.yul\":2922:3288   */\n      swap2\n      swap1\n      pop\n      jump\t// out\n        /* \"#utility.yul\":3294:3713   */\n    tag_38:\n        /* \"#utility.yul\":3460:3464   */\n      0x00\n        /* \"#utility.yul\":3498:3500   */\n      0x20\n        /* \"#utility.yul\":3487:3496   */\n      dup3\n        /* \"#utility.yul\":3483:3501   */\n      add\n        /* \"#utility.yul\":3475:3501   */\n      swap1\n      pop\n        /* \"#utility.yul\":3547:3556   */\n      dup2\n        /* \"#utility.yul\":3541:3545   */\n      dup2\n        /* \"#utility.yul\":3537:3557   */\n      sub\n        /* \"#utility.yul\":3533:3534   */\n      0x00\n        /* \"#utility.yul\":3522:3531   */\n      dup4\n        /* \"#utility.yul\":3518:3535   */\n      add\n        /* \"#utility.yul\":3511:3558   */\n      mstore\n        /* \"#utility.yul\":3575:3706   */\n      tag_164\n        /* \"#utility.yul\":3701:3705   */\n      dup2\n        /* \"#utility.yul\":3575:3706   */\n      tag_107\n      jump\t// in\n    tag_164:\n        /* \"#utility.yul\":3567:3706   */\n      swap1\n      pop\n        /* \"#utility.yul\":3294:3713   */\n      swap2\n      swap1\n      pop\n      jump\t// out\n        /* \"#utility.yul\":3719:3899   */\n    tag_45:\n        /* \"#utility.yul\":3767:3844   */\n      0x4e487b7100000000000000000000000000000000000000000000000000000000\n        /* \"#utility.yul\":3764:3765   */\n      0x00\n        /* \"#utility.yul\":3757:3845   */\n      mstore\n        /* \"#utility.yul\":3864:3868   */\n      0x32\n        /* \"#utility.yul\":3861:3862   */\n      0x04\n        /* \"#utility.yul\":3854:3869   */\n      mstore\n        /* \"#utility.yul\":3888:3892   */\n      0x24\n        /* \"#utility.yul\":3885:3886   */\n      0x00\n        /* \"#utility.yul\":3878:3893   */\n      revert\n        /* \"#utility.yul\":3905:4085   */\n    tag_49:\n        /* \"#utility.yul\":3953:4030   */\n      0x4e487b7100000000000000000000000000000000000000000000000000000000\n        /* \"#utility.yul\":3950:3951   */\n      0x00\n        /* \"#utility.yul\":3943:4031   */\n      mstore\n        /* \"#utility.yul\":4050:4054   */\n      0x41\n        /* \"#utility.yul\":4047:4048   */\n      0x04\n        /* \"#utility.yul\":4040:4055   */\n      mstore\n        /* \"#utility.yul\":4074:4078   */\n      0x24\n        /* \"#utility.yul\":4071:4072   */\n      0x00\n        /* \"#utility.yul\":4064:4079   */\n      revert\n        /* \"#utility.yul\":4091:4238   */\n    tag_108:\n        /* \"#utility.yul\":4192:4203   */\n      0x00\n        /* \"#utility.yul\":4229:4232   */\n      dup2\n        /* \"#utility.yul\":4214:4232   */\n      swap1\n      pop\n        /* \"#utility.yul\":4091:4238   */\n      swap3\n      swap2\n      pop\n      pop\n      jump\t// out\n        /* \"#utility.yul\":4244:4358   */\n    tag_109:\n      pop\n      jump\t// out\n        /* \"#utility.yul\":4364:4762   */\n    tag_110:\n        /* \"#utility.yul\":4523:4526   */\n      0x00\n        /* \"#utility.yul\":4544:4627   */\n      tag_170\n        /* \"#utility.yul\":4625:4626   */\n      0x00\n        /* \"#utility.yul\":4620:4623   */\n      dup4\n        /* \"#utility.yul\":4544:4627   */\n      tag_108\n      jump\t// in\n    tag_170:\n        /* \"#utility.yul\":4537:4627   */\n      swap2\n      pop\n        /* \"#utility.yul\":4636:4729   */\n      tag_171\n        /* \"#utility.yul\":4725:4728   */\n      dup3\n        /* \"#utility.yul\":4636:4729   */\n      tag_109\n      jump\t// in\n    tag_171:\n        /* \"#utility.yul\":4754:4755   */\n      0x00\n        /* \"#utility.yul\":4749:4752   */\n      dup3\n        /* \"#utility.yul\":4745:4756   */\n      add\n        /* \"#utility.yul\":4738:4756   */\n      swap1\n      pop\n        /* \"#utility.yul\":4364:4762   */\n      swap2\n      swap1\n      pop\n      jump\t// out\n        /* \"#utility.yul\":4768:5147   */\n    tag_54:\n        /* \"#utility.yul\":4952:4955   */\n      0x00\n        /* \"#utility.yul\":4974:5121   */\n      tag_173\n        /* \"#utility.yul\":5117:5120   */\n      dup3\n        /* \"#utility.yul\":4974:5121   */\n      tag_110\n      jump\t// in\n    tag_173:\n        /* \"#utility.yul\":4967:5121   */\n      swap2\n      pop\n        /* \"#utility.yul\":5138:5141   */\n      dup2\n        /* \"#utility.yul\":5131:5141   */\n      swap1\n      pop\n        /* \"#utility.yul\":4768:5147   */\n      swap2\n      swap1\n      pop\n      jump\t// out\n        /* \"#utility.yul\":5153:5314   */\n    tag_111:\n        /* \"#utility.yul\":5293:5306   */\n      0x63616c6c206661696c6564000000000000000000000000000000000000000000\n        /* \"#utility.yul\":5289:5290   */\n      0x00\n        /* \"#utility.yul\":5281:5287   */\n      dup3\n        /* \"#utility.yul\":5277:5291   */\n      add\n        /* \"#utility.yul\":5270:5307   */\n      mstore\n        /* \"#utility.yul\":5153:5314   */\n      pop\n      jump\t// out\n        /* \"#utility.yul\":5320:5686   */\n    tag_112:\n        /* \"#utility.yul\":5462:5465   */\n      0x00\n        /* \"#utility.yul\":5483:5550   */\n      tag_176\n        /* \"#utility.yul\":5547:5549   */\n      0x0b\n        /* \"#utility.yul\":5542:5545   */\n      dup4\n        /* \"#utility.yul\":5483:5550   */\n      tag_105\n      jump\t// in\n    tag_176:\n        /* \"#utility.yul\":5476:5550   */\n      swap2\n      pop\n        /* \"#utility.yul\":5559:5652   */\n      tag_177\n        /* \"#utility.yul\":5648:5651   */\n      dup3\n        /* \"#utility.yul\":5559:5652   */\n      tag_111\n      jump\t// in\n    tag_177:\n        /* \"#utility.yul\":5677:5679   */\n      0x20\n        /* \"#utility.yul\":5672:5675   */\n      dup3\n        /* \"#utility.yul\":5668:5680   */\n      add\n        /* \"#utility.yul\":5661:5680   */\n      swap1\n      pop\n        /* \"#utility.yul\":5320:5686   */\n      swap2\n      swap1\n      pop\n      jump\t// out\n        /* \"#utility.yul\":5692:6111   */\n    tag_60:\n        /* \"#utility.yul\":5858:5862   */\n      0x00\n        /* \"#utility.yul\":5896:5898   */\n      0x20\n        /* \"#utility.yul\":5885:5894   */\n      dup3\n        /* \"#utility.yul\":5881:5899   */\n      add\n        /* \"#utility.yul\":5873:5899   */\n      swap1\n      pop\n        /* \"#utility.yul\":5945:5954   */\n      dup2\n        /* \"#utility.yul\":5939:5943   */\n      dup2\n        /* \"#utility.yul\":5935:5955   */\n      sub\n        /* \"#utility.yul\":5931:5932   */\n      0x00\n        /* \"#utility.yul\":5920:5929   */\n      dup4\n        /* \"#utility.yul\":5916:5933   */\n      add\n        /* \"#utility.yul\":5909:5956   */\n      mstore\n        /* \"#utility.yul\":5973:6104   */\n      tag_179\n        /* \"#utility.yul\":6099:6103   */\n      dup2\n        /* \"#utility.yul\":5973:6104   */\n      tag_112\n      jump\t// in\n    tag_179:\n        /* \"#utility.yul\":5965:6104   */\n      swap1\n      pop\n        /* \"#utility.yul\":5692:6111   */\n      swap2\n      swap1\n      pop\n      jump\t// out\n        /* \"#utility.yul\":6117:6289   */\n    tag_113:\n        /* \"#utility.yul\":6257:6281   */\n      0x6469646e27742073656e6420656e6f7567682045544800000000000000000000\n        /* \"#utility.yul\":6253:6254   */\n      0x00\n        /* \"#utility.yul\":6245:6251   */\n      dup3\n        /* \"#utility.yul\":6241:6255   */\n      add\n        /* \"#utility.yul\":6234:6282   */\n      mstore\n        /* \"#utility.yul\":6117:6289   */\n      pop\n      jump\t// out\n        /* \"#utility.yul\":6295:6661   */\n    tag_114:\n        /* \"#utility.yul\":6437:6440   */\n      0x00\n        /* \"#utility.yul\":6458:6525   */\n      tag_182\n        /* \"#utility.yul\":6522:6524   */\n      0x16\n        /* \"#utility.yul\":6517:6520   */\n      dup4\n        /* \"#utility.yul\":6458:6525   */\n      tag_105\n      jump\t// in\n    tag_182:\n        /* \"#utility.yul\":6451:6525   */\n      swap2\n      pop\n        /* \"#utility.yul\":6534:6627   */\n      tag_183\n        /* \"#utility.yul\":6623:6626   */\n      dup3\n        /* \"#utility.yul\":6534:6627   */\n      tag_113\n      jump\t// in\n    tag_183:\n        /* \"#utility.yul\":6652:6654   */\n      0x20\n        /* \"#utility.yul\":6647:6650   */\n      dup3\n        /* \"#utility.yul\":6643:6655   */\n      add\n        /* \"#utility.yul\":6636:6655   */\n      swap1\n      pop\n        /* \"#utility.yul\":6295:6661   */\n      swap2\n      swap1\n      pop\n      jump\t// out\n        /* \"#utility.yul\":6667:7086   */\n    tag_66:\n        /* \"#utility.yul\":6833:6837   */\n      0x00\n        /* \"#utility.yul\":6871:6873   */\n      0x20\n        /* \"#utility.yul\":6860:6869   */\n      dup3\n        /* \"#utility.yul\":6856:6874   */\n      add\n        /* \"#utility.yul\":6848:6874   */\n      swap1\n      pop\n        /* \"#utility.yul\":6920:6929   */\n      dup2\n        /* \"#utility.yul\":6914:6918   */\n      dup2\n        /* \"#utility.yul\":6910:6930   */\n      sub\n        /* \"#utility.yul\":6906:6907   */\n      0x00\n        /* \"#utility.yul\":6895:6904   */\n      dup4\n        /* \"#utility.yul\":6891:6908   */\n      add\n        /* \"#utility.yul\":6884:6931   */\n      mstore\n        /* \"#utility.yul\":6948:7079   */\n      tag_185\n        /* \"#utility.yul\":7074:7078   */\n      dup2\n        /* \"#utility.yul\":6948:7079   */\n      tag_114\n      jump\t// in\n    tag_185:\n        /* \"#utility.yul\":6940:7079   */\n      swap1\n      pop\n        /* \"#utility.yul\":6667:7086   */\n      swap2\n      swap1\n      pop\n      jump\t// out\n        /* \"#utility.yul\":7092:7272   */\n    tag_115:\n        /* \"#utility.yul\":7140:7217   */\n      0x4e487b7100000000000000000000000000000000000000000000000000000000\n        /* \"#utility.yul\":7137:7138   */\n      0x00\n        /* \"#utility.yul\":7130:7218   */\n      mstore\n        /* \"#utility.yul\":7237:7241   */\n      0x11\n        /* \"#utility.yul\":7234:7235   */\n      0x04\n        /* \"#utility.yul\":7227:7242   */\n      mstore\n        /* \"#utility.yul\":7261:7265   */\n      0x24\n        /* \"#utility.yul\":7258:7259   */\n      0x00\n        /* \"#utility.yul\":7251:7266   */\n      revert\n        /* \"#utility.yul\":7278:7469   */\n    tag_69:\n        /* \"#utility.yul\":7318:7321   */\n      0x00\n        /* \"#utility.yul\":7337:7357   */\n      tag_188\n        /* \"#utility.yul\":7355:7356   */\n      dup3\n        /* \"#utility.yul\":7337:7357   */\n      tag_100\n      jump\t// in\n    tag_188:\n        /* \"#utility.yul\":7332:7357   */\n      swap2\n      pop\n        /* \"#utility.yul\":7371:7391   */\n      tag_189\n        /* \"#utility.yul\":7389:7390   */\n      dup4\n        /* \"#utility.yul\":7371:7391   */\n      tag_100\n      jump\t// in\n    tag_189:\n        /* \"#utility.yul\":7366:7391   */\n      swap3\n      pop\n        /* \"#utility.yul\":7414:7415   */\n      dup3\n        /* \"#utility.yul\":7411:7412   */\n      dup3\n        /* \"#utility.yul\":7407:7416   */\n      add\n        /* \"#utility.yul\":7400:7416   */\n      swap1\n      pop\n        /* \"#utility.yul\":7435:7438   */\n      dup1\n        /* \"#utility.yul\":7432:7433   */\n      dup3\n        /* \"#utility.yul\":7429:7439   */\n      gt\n        /* \"#utility.yul\":7426:7462   */\n      iszero\n      tag_190\n      jumpi\n        /* \"#utility.yul\":7442:7460   */\n      tag_191\n      tag_115\n      jump\t// in\n    tag_191:\n        /* \"#utility.yul\":7426:7462   */\n    tag_190:\n        /* \"#utility.yul\":7278:7469   */\n      swap3\n      swap2\n      pop\n      pop\n      jump\t// out\n        /* \"#utility.yul\":7475:7885   */\n    tag_76:\n        /* \"#utility.yul\":7515:7522   */\n      0x00\n        /* \"#utility.yul\":7538:7558   */\n      tag_193\n        /* \"#utility.yul\":7556:7557   */\n      dup3\n        /* \"#utility.yul\":7538:7558   */\n      tag_100\n      jump\t// in\n    tag_193:\n        /* \"#utility.yul\":7533:7558   */\n      swap2\n      pop\n        /* \"#utility.yul\":7572:7592   */\n      tag_194\n        /* \"#utility.yul\":7590:7591   */\n      dup4\n        /* \"#utility.yul\":7572:7592   */\n      tag_100\n      jump\t// in\n    tag_194:\n        /* \"#utility.yul\":7567:7592   */\n      swap3\n      pop\n        /* \"#utility.yul\":7627:7628   */\n      dup3\n        /* \"#utility.yul\":7624:7625   */\n      dup3\n        /* \"#utility.yul\":7620:7629   */\n      mul\n        /* \"#utility.yul\":7649:7679   */\n      tag_195\n        /* \"#utility.yul\":7667:7678   */\n      dup2\n        /* \"#utility.yul\":7649:7679   */\n      tag_100\n      jump\t// in\n    tag_195:\n        /* \"#utility.yul\":7638:7679   */\n      swap2\n      pop\n        /* \"#utility.yul\":7828:7829   */\n      dup3\n        /* \"#utility.yul\":7819:7826   */\n      dup3\n        /* \"#utility.yul\":7815:7830   */\n      div\n        /* \"#utility.yul\":7812:7813   */\n      dup5\n        /* \"#utility.yul\":7809:7831   */\n      eq\n        /* \"#utility.yul\":7789:7790   */\n      dup4\n        /* \"#utility.yul\":7782:7791   */\n      iszero\n        /* \"#utility.yul\":7762:7845   */\n      or\n        /* \"#utility.yul\":7739:7878   */\n      tag_196\n      jumpi\n        /* \"#utility.yul\":7858:7876   */\n      tag_197\n      tag_115\n      jump\t// in\n    tag_197:\n        /* \"#utility.yul\":7739:7878   */\n    tag_196:\n        /* \"#utility.yul\":7523:7885   */\n      pop\n        /* \"#utility.yul\":7475:7885   */\n      swap3\n      swap2\n      pop\n      pop\n      jump\t// out\n        /* \"#utility.yul\":7891:8071   */\n    tag_116:\n        /* \"#utility.yul\":7939:8016   */\n      0x4e487b7100000000000000000000000000000000000000000000000000000000\n        /* \"#utility.yul\":7936:7937   */\n      0x00\n        /* \"#utility.yul\":7929:8017   */\n      mstore\n        /* \"#utility.yul\":8036:8040   */\n      0x12\n        /* \"#utility.yul\":8033:8034   */\n      0x04\n        /* \"#utility.yul\":8026:8041   */\n      mstore\n        /* \"#utility.yul\":8060:8064   */\n      0x24\n        /* \"#utility.yul\":8057:8058   */\n      0x00\n        /* \"#utility.yul\":8050:8065   */\n      revert\n        /* \"#utility.yul\":8077:8262   */\n    tag_78:\n        /* \"#utility.yul\":8117:8118   */\n      0x00\n        /* \"#utility.yul\":8134:8154   */\n      tag_200\n        /* \"#utility.yul\":8152:8153   */\n      dup3\n        /* \"#utility.yul\":8134:8154   */\n      tag_100\n      jump\t// in\n    tag_200:\n        /* \"#utility.yul\":8129:8154   */\n      swap2\n      pop\n        /* \"#utility.yul\":8168:8188   */\n      tag_201\n        /* \"#utility.yul\":8186:8187   */\n      dup4\n        /* \"#utility.yul\":8168:8188   */\n      tag_100\n      jump\t// in\n    tag_201:\n        /* \"#utility.yul\":8163:8188   */\n      swap3\n      pop\n        /* \"#utility.yul\":8207:8208   */\n      dup3\n        /* \"#utility.yul\":8197:8232   */\n      tag_202\n      jumpi\n        /* \"#utility.yul\":8212:8230   */\n      tag_203\n      tag_116\n      jump\t// in\n    tag_203:\n        /* \"#utility.yul\":8197:8232   */\n    tag_202:\n        /* \"#utility.yul\":8254:8255   */\n      dup3\n        /* \"#utility.yul\":8251:8252   */\n      dup3\n        /* \"#utility.yul\":8247:8256   */\n      div\n        /* \"#utility.yul\":8242:8256   */\n      swap1\n      pop\n        /* \"#utility.yul\":8077:8262   */\n      swap3\n      swap2\n      pop\n      pop\n      jump\t// out\n        /* \"#utility.yul\":8268:8373   */\n    tag_117:\n        /* \"#utility.yul\":8304:8311   */\n      0x00\n        /* \"#utility.yul\":8344:8366   */\n      0xffffffffffffffffffff\n        /* \"#utility.yul\":8337:8342   */\n      dup3\n        /* \"#utility.yul\":8333:8367   */\n      and\n        /* \"#utility.yul\":8322:8367   */\n      swap1\n      pop\n        /* \"#utility.yul\":8268:8373   */\n      swap2\n      swap1\n      pop\n      jump\t// out\n        /* \"#utility.yul\":8379:8499   */\n    tag_118:\n        /* \"#utility.yul\":8451:8474   */\n      tag_206\n        /* \"#utility.yul\":8468:8473   */\n      dup2\n        /* \"#utility.yul\":8451:8474   */\n      tag_117\n      jump\t// in\n    tag_206:\n        /* \"#utility.yul\":8444:8449   */\n      dup2\n        /* \"#utility.yul\":8441:8475   */\n      eq\n        /* \"#utility.yul\":8431:8493   */\n      tag_207\n      jumpi\n        /* \"#utility.yul\":8489:8490   */\n      0x00\n        /* \"#utility.yul\":8486:8487   */\n      0x00\n        /* \"#utility.yul\":8479:8491   */\n      revert\n        /* \"#utility.yul\":8431:8493   */\n    tag_207:\n        /* \"#utility.yul\":8379:8499   */\n      pop\n      jump\t// out\n        /* \"#utility.yul\":8505:8646   */\n    tag_119:\n        /* \"#utility.yul\":8561:8566   */\n      0x00\n        /* \"#utility.yul\":8592:8598   */\n      dup2\n        /* \"#utility.yul\":8586:8599   */\n      mload\n        /* \"#utility.yul\":8577:8599   */\n      swap1\n      pop\n        /* \"#utility.yul\":8608:8640   */\n      tag_209\n        /* \"#utility.yul\":8634:8639   */\n      dup2\n        /* \"#utility.yul\":8608:8640   */\n      tag_118\n      jump\t// in\n    tag_209:\n        /* \"#utility.yul\":8505:8646   */\n      swap3\n      swap2\n      pop\n      pop\n      jump\t// out\n        /* \"#utility.yul\":8652:8728   */\n    tag_120:\n        /* \"#utility.yul\":8688:8695   */\n      0x00\n        /* \"#utility.yul\":8717:8722   */\n      dup2\n        /* \"#utility.yul\":8706:8722   */\n      swap1\n      pop\n        /* \"#utility.yul\":8652:8728   */\n      swap2\n      swap1\n      pop\n      jump\t// out\n        /* \"#utility.yul\":8734:8854   */\n    tag_121:\n        /* \"#utility.yul\":8806:8829   */\n      tag_212\n        /* \"#utility.yul\":8823:8828   */\n      dup2\n        /* \"#utility.yul\":8806:8829   */\n      tag_120\n      jump\t// in\n    tag_212:\n        /* \"#utility.yul\":8799:8804   */\n      dup2\n        /* \"#utility.yul\":8796:8830   */\n      eq\n        /* \"#utility.yul\":8786:8848   */\n      tag_213\n      jumpi\n        /* \"#utility.yul\":8844:8845   */\n      0x00\n        /* \"#utility.yul\":8841:8842   */\n      0x00\n        /* \"#utility.yul\":8834:8846   */\n      revert\n        /* \"#utility.yul\":8786:8848   */\n    tag_213:\n        /* \"#utility.yul\":8734:8854   */\n      pop\n      jump\t// out\n        /* \"#utility.yul\":8860:9001   */\n    tag_122:\n        /* \"#utility.yul\":8916:8921   */\n      0x00\n        /* \"#utility.yul\":8947:8953   */\n      dup2\n        /* \"#utility.yul\":8941:8954   */\n      mload\n        /* \"#utility.yul\":8932:8954   */\n      swap1\n      pop\n        /* \"#utility.yul\":8963:8995   */\n      tag_215\n        /* \"#utility.yul\":8989:8994   */\n      dup2\n        /* \"#utility.yul\":8963:8995   */\n      tag_121\n      jump\t// in\n    tag_215:\n        /* \"#utility.yul\":8860:9001   */\n      swap3\n      swap2\n      pop\n      pop\n      jump\t// out\n        /* \"#utility.yul\":9007:9150   */\n    tag_123:\n        /* \"#utility.yul\":9064:9069   */\n      0x00\n        /* \"#utility.yul\":9095:9101   */\n      dup2\n        /* \"#utility.yul\":9089:9102   */\n      mload\n        /* \"#utility.yul\":9080:9102   */\n      swap1\n      pop\n        /* \"#utility.yul\":9111:9144   */\n      tag_217\n        /* \"#utility.yul\":9138:9143   */\n      dup2\n        /* \"#utility.yul\":9111:9144   */\n      tag_103\n      jump\t// in\n    tag_217:\n        /* \"#utility.yul\":9007:9150   */\n      swap3\n      swap2\n      pop\n      pop\n      jump\t// out\n        /* \"#utility.yul\":9156:10127   */\n    tag_83:\n        /* \"#utility.yul\":9259:9265   */\n      0x00\n        /* \"#utility.yul\":9267:9273   */\n      0x00\n        /* \"#utility.yul\":9275:9281   */\n      0x00\n        /* \"#utility.yul\":9283:9289   */\n      0x00\n        /* \"#utility.yul\":9291:9297   */\n      0x00\n        /* \"#utility.yul\":9340:9343   */\n      0xa0\n        /* \"#utility.yul\":9328:9337   */\n      dup7\n        /* \"#utility.yul\":9319:9326   */\n      dup9\n        /* \"#utility.yul\":9315:9338   */\n      sub\n        /* \"#utility.yul\":9311:9344   */\n      slt\n        /* \"#utility.yul\":9308:9428   */\n      iszero\n      tag_219\n      jumpi\n        /* \"#utility.yul\":9347:9426   */\n      tag_220\n      tag_94\n      jump\t// in\n    tag_220:\n        /* \"#utility.yul\":9308:9428   */\n    tag_219:\n        /* \"#utility.yul\":9467:9468   */\n      0x00\n        /* \"#utility.yul\":9492:9555   */\n      tag_221\n        /* \"#utility.yul\":9547:9554   */\n      dup9\n        /* \"#utility.yul\":9538:9544   */\n      dup3\n        /* \"#utility.yul\":9527:9536   */\n      dup10\n        /* \"#utility.yul\":9523:9545   */\n      add\n        /* \"#utility.yul\":9492:9555   */\n      tag_119\n      jump\t// in\n    tag_221:\n        /* \"#utility.yul\":9482:9555   */\n      swap6\n      pop\n        /* \"#utility.yul\":9438:9565   */\n      pop\n        /* \"#utility.yul\":9604:9606   */\n      0x20\n        /* \"#utility.yul\":9630:9693   */\n      tag_222\n        /* \"#utility.yul\":9685:9692   */\n      dup9\n        /* \"#utility.yul\":9676:9682   */\n      dup3\n        /* \"#utility.yul\":9665:9674   */\n      dup10\n        /* \"#utility.yul\":9661:9683   */\n      add\n        /* \"#utility.yul\":9630:9693   */\n      tag_122\n      jump\t// in\n    tag_222:\n        /* \"#utility.yul\":9620:9693   */\n      swap5\n      pop\n        /* \"#utility.yul\":9575:9703   */\n      pop\n        /* \"#utility.yul\":9742:9744   */\n      0x40\n        /* \"#utility.yul\":9768:9832   */\n      tag_223\n        /* \"#utility.yul\":9824:9831   */\n      dup9\n        /* \"#utility.yul\":9815:9821   */\n      dup3\n        /* \"#utility.yul\":9804:9813   */\n      dup10\n        /* \"#utility.yul\":9800:9822   */\n      add\n        /* \"#utility.yul\":9768:9832   */\n      tag_123\n      jump\t// in\n    tag_223:\n        /* \"#utility.yul\":9758:9832   */\n      swap4\n      pop\n        /* \"#utility.yul\":9713:9842   */\n      pop\n        /* \"#utility.yul\":9881:9883   */\n      0x60\n        /* \"#utility.yul\":9907:9971   */\n      tag_224\n        /* \"#utility.yul\":9963:9970   */\n      dup9\n        /* \"#utility.yul\":9954:9960   */\n      dup3\n        /* \"#utility.yul\":9943:9952   */\n      dup10\n        /* \"#utility.yul\":9939:9961   */\n      add\n        /* \"#utility.yul\":9907:9971   */\n      tag_123\n      jump\t// in\n    tag_224:\n        /* \"#utility.yul\":9897:9971   */\n      swap3\n      pop\n        /* \"#utility.yul\":9852:9981   */\n      pop\n        /* \"#utility.yul\":10020:10023   */\n      0x80\n        /* \"#utility.yul\":10047:10110   */\n      tag_225\n        /* \"#utility.yul\":10102:10109   */\n      dup9\n        /* \"#utility.yul\":10093:10099   */\n      dup3\n        /* \"#utility.yul\":10082:10091   */\n      dup10\n        /* \"#utility.yul\":10078:10100   */\n      add\n        /* \"#utility.yul\":10047:10110   */\n      tag_119\n      jump\t// in\n    tag_225:\n        /* \"#utility.yul\":10037:10110   */\n      swap2\n      pop\n        /* \"#utility.yul\":9991:10120   */\n      pop\n        /* \"#utility.yul\":9156:10127   */\n      swap3\n      swap6\n      pop\n      swap3\n      swap6\n      swap1\n      swap4\n      pop\n      jump\t// out\n        /* \"#utility.yul\":10133:10689   */\n    tag_85:\n        /* \"#utility.yul\":10172:10179   */\n      0x00\n        /* \"#utility.yul\":10195:10214   */\n      tag_227\n        /* \"#utility.yul\":10212:10213   */\n      dup3\n        /* \"#utility.yul\":10195:10214   */\n      tag_120\n      jump\t// in\n    tag_227:\n        /* \"#utility.yul\":10190:10214   */\n      swap2\n      pop\n        /* \"#utility.yul\":10228:10247   */\n      tag_228\n        /* \"#utility.yul\":10245:10246   */\n      dup4\n        /* \"#utility.yul\":10228:10247   */\n      tag_120\n      jump\t// in\n    tag_228:\n        /* \"#utility.yul\":10223:10247   */\n      swap3\n      pop\n        /* \"#utility.yul\":10282:10283   */\n      dup3\n        /* \"#utility.yul\":10279:10280   */\n      dup3\n        /* \"#utility.yul\":10275:10284   */\n      mul\n        /* \"#utility.yul\":10304:10333   */\n      tag_229\n        /* \"#utility.yul\":10321:10332   */\n      dup2\n        /* \"#utility.yul\":10304:10333   */\n      tag_120\n      jump\t// in\n    tag_229:\n        /* \"#utility.yul\":10293:10333   */\n      swap2\n      pop\n        /* \"#utility.yul\":10391:10457   */\n      0x8000000000000000000000000000000000000000000000000000000000000000\n        /* \"#utility.yul\":10388:10389   */\n      dup5\n        /* \"#utility.yul\":10385:10458   */\n      eq\n        /* \"#utility.yul\":10381:10382   */\n      0x00\n        /* \"#utility.yul\":10378:10379   */\n      dup5\n        /* \"#utility.yul\":10374:10383   */\n      slt\n        /* \"#utility.yul\":10370:10459   */\n      and\n        /* \"#utility.yul\":10367:10482   */\n      iszero\n      tag_230\n      jumpi\n        /* \"#utility.yul\":10462:10480   */\n      tag_231\n      tag_115\n      jump\t// in\n    tag_231:\n        /* \"#utility.yul\":10367:10482   */\n    tag_230:\n        /* \"#utility.yul\":10632:10633   */\n      dup3\n        /* \"#utility.yul\":10623:10630   */\n      dup3\n        /* \"#utility.yul\":10618:10634   */\n      sdiv\n        /* \"#utility.yul\":10615:10616   */\n      dup5\n        /* \"#utility.yul\":10612:10635   */\n      eq\n        /* \"#utility.yul\":10592:10593   */\n      dup4\n        /* \"#utility.yul\":10585:10594   */\n      iszero\n        /* \"#utility.yul\":10565:10649   */\n      or\n        /* \"#utility.yul\":10542:10682   */\n      tag_232\n      jumpi\n        /* \"#utility.yul\":10662:10680   */\n      tag_233\n      tag_115\n      jump\t// in\n    tag_233:\n        /* \"#utility.yul\":10542:10682   */\n    tag_232:\n        /* \"#utility.yul\":10180:10689   */\n      pop\n        /* \"#utility.yul\":10133:10689   */\n      swap3\n      swap2\n      pop\n      pop\n      jump\t// out\n\n    auxdata: 0xa264697066735822122020c9cf5ff24283d86f9e421b1519dd98882138756138bb6ca2abe8a3830cd28264736f6c634300081e0033\n}\n",
				"bytecode": {
					"linkReferences": {},
					"object": "60a0604052348015600e575f5ffd5b503373ffffffffffffffffffffffffffffffffffffffff1660808173ffffffffffffffffffffffffffffffffffffffff1681525050608051610c416100625f395f818161014601526104a50152610c415ff3fe608060405260043610610054575f3560e01c80633ccfd60b146100585780633e47d6f31461006e5780636b69a592146100aa578063b60d4288146100d4578063dba6335f146100de578063dc0d3dff14610108575b5f5ffd5b348015610063575f5ffd5b5061006c610144565b005b348015610079575f5ffd5b50610094600480360381019061008f91906106de565b61037b565b6040516100a19190610721565b60405180910390f35b3480156100b5575f5ffd5b506100be610390565b6040516100cb9190610721565b60405180910390f35b6100dc61039c565b005b3480156100e9575f5ffd5b506100f26104a3565b6040516100ff9190610749565b60405180910390f35b348015610113575f5ffd5b5061012e6004803603810190610129919061078c565b6104c7565b60405161013b9190610749565b60405180910390f35b7f000000000000000000000000000000000000000000000000000000000000000073ffffffffffffffffffffffffffffffffffffffff163373ffffffffffffffffffffffffffffffffffffffff16146101d2576040517f08c379a00000000000000000000000000000000000000000000000000000000081526004016101c990610811565b60405180910390fd5b5f5f90505b5f80549050811015610271575f5f82815481106101f7576101f661082f565b5b905f5260205f20015f9054906101000a900473ffffffffffffffffffffffffffffffffffffffff1690505f60015f8373ffffffffffffffffffffffffffffffffffffffff1673ffffffffffffffffffffffffffffffffffffffff1681526020019081526020015f20819055505080806001019150506101d7565b505f67ffffffffffffffff81111561028c5761028b61085c565b5b6040519080825280602002602001820160405280156102ba5781602001602082028036833780820191505090505b505f90805190602001906102cf9291906105de565b505f3373ffffffffffffffffffffffffffffffffffffffff16476040516102f5906108b6565b5f6040518083038185875af1925050503d805f811461032f576040519150601f19603f3d011682016040523d82523d5f602084013e610334565b606091505b5050905080610378576040517f08c379a000000000000000000000000000000000000000000000000000000000815260040161036f90610914565b60405180910390fd5b50565b6001602052805f5260405f205f915090505481565b671bc16d674ec8000081565b671bc16d674ec800006103ae34610501565b10156103ef576040517f08c379a00000000000000000000000000000000000000000000000000000000081526004016103e69061097c565b60405180910390fd5b5f33908060018154018082558091505060019003905f5260205f20015f9091909190916101000a81548173ffffffffffffffffffffffffffffffffffffffff021916908373ffffffffffffffffffffffffffffffffffffffff1602179055503460015f3373ffffffffffffffffffffffffffffffffffffffff1673ffffffffffffffffffffffffffffffffffffffff1681526020019081526020015f205f82825461049a91906109c7565b92505081905550565b7f000000000000000000000000000000000000000000000000000000000000000081565b5f81815481106104d5575f80fd5b905f5260205f20015f915054906101000a900473ffffffffffffffffffffffffffffffffffffffff1681565b5f5f61050b610539565b90505f670de0b6b3a7640000848361052391906109fa565b61052d9190610a68565b90508092505050919050565b5f5f73694aa1769357215de4fac081bf1f309adc32530690505f8173ffffffffffffffffffffffffffffffffffffffff1663feaf968c6040518163ffffffff1660e01b815260040160a060405180830381865afa15801561059c573d5f5f3e3d5ffd5b505050506040513d601f19601f820116820180604052508101906105c09190610b1e565b5050509150506402540be400816105d79190610b95565b9250505090565b828054828255905f5260205f20908101928215610654579160200282015b82811115610653578251825f6101000a81548173ffffffffffffffffffffffffffffffffffffffff021916908373ffffffffffffffffffffffffffffffffffffffff160217905550916020019190600101906105fc565b5b5090506106619190610665565b5090565b5b8082111561067c575f815f905550600101610666565b5090565b5f5ffd5b5f73ffffffffffffffffffffffffffffffffffffffff82169050919050565b5f6106ad82610684565b9050919050565b6106bd816106a3565b81146106c7575f5ffd5b50565b5f813590506106d8816106b4565b92915050565b5f602082840312156106f3576106f2610680565b5b5f610700848285016106ca565b91505092915050565b5f819050919050565b61071b81610709565b82525050565b5f6020820190506107345f830184610712565b92915050565b610743816106a3565b82525050565b5f60208201905061075c5f83018461073a565b92915050565b61076b81610709565b8114610775575f5ffd5b50565b5f8135905061078681610762565b92915050565b5f602082840312156107a1576107a0610680565b5b5f6107ae84828501610778565b91505092915050565b5f82825260208201905092915050565b7f53656e646572206973206e6f74206f776e6572210000000000000000000000005f82015250565b5f6107fb6014836107b7565b9150610806826107c7565b602082019050919050565b5f6020820190508181035f830152610828816107ef565b9050919050565b7f4e487b71000000000000000000000000000000000000000000000000000000005f52603260045260245ffd5b7f4e487b71000000000000000000000000000000000000000000000000000000005f52604160045260245ffd5b5f81905092915050565b50565b5f6108a15f83610889565b91506108ac82610893565b5f82019050919050565b5f6108c082610896565b9150819050919050565b7f63616c6c206661696c65640000000000000000000000000000000000000000005f82015250565b5f6108fe600b836107b7565b9150610909826108ca565b602082019050919050565b5f6020820190508181035f83015261092b816108f2565b9050919050565b7f6469646e27742073656e6420656e6f75676820455448000000000000000000005f82015250565b5f6109666016836107b7565b915061097182610932565b602082019050919050565b5f6020820190508181035f8301526109938161095a565b9050919050565b7f4e487b71000000000000000000000000000000000000000000000000000000005f52601160045260245ffd5b5f6109d182610709565b91506109dc83610709565b92508282019050808211156109f4576109f361099a565b5b92915050565b5f610a0482610709565b9150610a0f83610709565b9250828202610a1d81610709565b91508282048414831517610a3457610a3361099a565b5b5092915050565b7f4e487b71000000000000000000000000000000000000000000000000000000005f52601260045260245ffd5b5f610a7282610709565b9150610a7d83610709565b925082610a8d57610a8c610a3b565b5b828204905092915050565b5f69ffffffffffffffffffff82169050919050565b610ab681610a98565b8114610ac0575f5ffd5b50565b5f81519050610ad181610aad565b92915050565b5f819050919050565b610ae981610ad7565b8114610af3575f5ffd5b50565b5f81519050610b0481610ae0565b92915050565b5f81519050610b1881610762565b92915050565b5f5f5f5f5f60a08688031215610b3757610b36610680565b5b5f610b4488828901610ac3565b9550506020610b5588828901610af6565b9450506040610b6688828901610b0a565b9350506060610b7788828901610b0a565b9250506080610b8888828901610ac3565b9150509295509295909350565b5f610b9f82610ad7565b9150610baa83610ad7565b9250828202610bb881610ad7565b91507f800000000000000000000000000000000000000000000000000000000000000084145f84121615610bef57610bee61099a565b5b8282058414831517610c0457610c0361099a565b5b509291505056fea264697066735822122020c9cf5ff24283d86f9e421b1519dd98882138756138bb6ca2abe8a3830cd28264736f6c634300081e0033",
					"opcodes": "PUSH1 0xA0 PUSH1 0x40 MSTORE CALLVALUE DUP1 ISZERO PUSH1 0xE JUMPI PUSH0 PUSH0 REVERT JUMPDEST POP CALLER PUSH20 0xFFFFFFFFFFFFFFFFFFFFFFFFFFFFFFFFFFFFFFFF AND PUSH1 0x80 DUP2 PUSH20 0xFFFFFFFFFFFFFFFFFFFFFFFFFFFFFFFFFFFFFFFF AND DUP2 MSTORE POP POP PUSH1 0x80 MLOAD PUSH2 0xC41 PUSH2 0x62 PUSH0 CODECOPY PUSH0 DUP2 DUP2 PUSH2 0x146 ADD MSTORE PUSH2 0x4A5 ADD MSTORE PUSH2 0xC41 PUSH0 RETURN INVALID PUSH1 0x80 PUSH1 0x40 MSTORE PUSH1 0x4 CALLDATASIZE LT PUSH2 0x54 JUMPI PUSH0 CALLDATALOAD PUSH1 0xE0 SHR DUP1 PUSH4 0x3CCFD60B EQ PUSH2 0x58 JUMPI DUP1 PUSH4 0x3E47D6F3 EQ PUSH2 0x6E JUMPI DUP1 PUSH4 0x6B69A592 EQ PUSH2 0xAA JUMPI DUP1 PUSH4 0xB60D4288 EQ PUSH2 0xD4 JUMPI DUP1 PUSH4 0xDBA6335F EQ PUSH2 0xDE JUMPI DUP1 PUSH4 0xDC0D3DFF EQ PUSH2 0x108 JUMPI JUMPDEST PUSH0 PUSH0 REVERT JUMPDEST CALLVALUE DUP1 ISZERO PUSH2 0x63 JUMPI PUSH0 PUSH0 REVERT JUMPDEST POP PUSH2 0x6C PUSH2 0x144 JUMP JUMPDEST STOP JUMPDEST CALLVALUE DUP1 ISZERO PUSH2 0x79 JUMPI PUSH0 PUSH0 REVERT JUMPDEST POP PUSH2 0x94 PUSH1 0x4 DUP1 CALLDATASIZE SUB DUP2 ADD SWAP1 PUSH2 0x8F SWAP2 SWAP1 PUSH2 0x6DE JUMP JUMPDEST PUSH2 0x37B JUMP JUMPDEST PUSH1 0x40 MLOAD PUSH2 0xA1 SWAP2 SWAP1 PUSH2 0x721 JUMP JUMPDEST PUSH1 0x40 MLOAD DUP1 SWAP2 SUB SWAP1 RETURN JUMPDEST CALLVALUE DUP1 ISZERO PUSH2 0xB5 JUMPI PUSH0 PUSH0 REVERT JUMPDEST POP PUSH2 0xBE PUSH2 0x390 JUMP JUMPDEST PUSH1 0x40 MLOAD PUSH2 0xCB SWAP2 SWAP1 PUSH2 0x721 JUMP JUMPDEST PUSH1 0x40 MLOAD DUP1 SWAP2 SUB SWAP1 RETURN JUMPDEST PUSH2 0xDC PUSH2 0x39C JUMP JUMPDEST STOP JUMPDEST CALLVALUE DUP1 ISZERO PUSH2 0xE9 JUMPI PUSH0 PUSH0 REVERT JUMPDEST POP PUSH2 0xF2 PUSH2 0x4A3 JUMP JUMPDEST PUSH1 0x40 MLOAD PUSH2 0xFF SWAP2 SWAP1 PUSH2 0x749 JUMP JUMPDEST PUSH1 0x40 MLOAD DUP1 SWAP2 SUB SWAP1 RETURN JUMPDEST CALLVALUE DUP1 ISZERO PUSH2 0x113 JUMPI PUSH0 PUSH0 REVERT JUMPDEST POP PUSH2 0x12E PUSH1 0x4 DUP1 CALLDATASIZE SUB DUP2 ADD SWAP1 PUSH2 0x129 SWAP2 SWAP1 PUSH2 0x78C JUMP JUMPDEST PUSH2 0x4C7 JUMP JUMPDEST PUSH1 0x40 MLOAD PUSH2 0x13B SWAP2 SWAP1 PUSH2 0x749 JUMP JUMPDEST PUSH1 0x40 MLOAD DUP1 SWAP2 SUB SWAP1 RETURN JUMPDEST PUSH32 0x0 PUSH20 0xFFFFFFFFFFFFFFFFFFFFFFFFFFFFFFFFFFFFFFFF AND CALLER PUSH20 0xFFFFFFFFFFFFFFFFFFFFFFFFFFFFFFFFFFFFFFFF AND EQ PUSH2 0x1D2 JUMPI PUSH1 0x40 MLOAD PUSH32 0x8C379A000000000000000000000000000000000000000000000000000000000 DUP2 MSTORE PUSH1 0x4 ADD PUSH2 0x1C9 SWAP1 PUSH2 0x811 JUMP JUMPDEST PUSH1 0x40 MLOAD DUP1 SWAP2 SUB SWAP1 REVERT JUMPDEST PUSH0 PUSH0 SWAP1 POP JUMPDEST PUSH0 DUP1 SLOAD SWAP1 POP DUP2 LT ISZERO PUSH2 0x271 JUMPI PUSH0 PUSH0 DUP3 DUP2 SLOAD DUP2 LT PUSH2 0x1F7 JUMPI PUSH2 0x1F6 PUSH2 0x82F JUMP JUMPDEST JUMPDEST SWAP1 PUSH0 MSTORE PUSH1 0x20 PUSH0 KECCAK256 ADD PUSH0 SWAP1 SLOAD SWAP1 PUSH2 0x100 EXP SWAP1 DIV PUSH20 0xFFFFFFFFFFFFFFFFFFFFFFFFFFFFFFFFFFFFFFFF AND SWAP1 POP PUSH0 PUSH1 0x1 PUSH0 DUP4 PUSH20 0xFFFFFFFFFFFFFFFFFFFFFFFFFFFFFFFFFFFFFFFF AND PUSH20 0xFFFFFFFFFFFFFFFFFFFFFFFFFFFFFFFFFFFFFFFF AND DUP2 MSTORE PUSH1 0x20 ADD SWAP1 DUP2 MSTORE PUSH1 0x20 ADD PUSH0 KECCAK256 DUP2 SWAP1 SSTORE POP POP DUP1 DUP1 PUSH1 0x1 ADD SWAP2 POP POP PUSH2 0x1D7 JUMP JUMPDEST POP PUSH0 PUSH8 0xFFFFFFFFFFFFFFFF DUP2 GT ISZERO PUSH2 0x28C JUMPI PUSH2 0x28B PUSH2 0x85C JUMP JUMPDEST JUMPDEST PUSH1 0x40 MLOAD SWAP1 DUP1 DUP3 MSTORE DUP1 PUSH1 0x20 MUL PUSH1 0x20 ADD DUP3 ADD PUSH1 0x40 MSTORE DUP1 ISZERO PUSH2 0x2BA JUMPI DUP2 PUSH1 0x20 ADD PUSH1 0x20 DUP3 MUL DUP1 CALLDATASIZE DUP4 CALLDATACOPY DUP1 DUP3 ADD SWAP2 POP POP SWAP1 POP JUMPDEST POP PUSH0 SWAP1 DUP1 MLOAD SWAP1 PUSH1 0x20 ADD SWAP1 PUSH2 0x2CF SWAP3 SWAP2 SWAP1 PUSH2 0x5DE JUMP JUMPDEST POP PUSH0 CALLER PUSH20 0xFFFFFFFFFFFFFFFFFFFFFFFFFFFFFFFFFFFFFFFF AND SELFBALANCE PUSH1 0x40 MLOAD PUSH2 0x2F5 SWAP1 PUSH2 0x8B6 JUMP JUMPDEST PUSH0 PUSH1 0x40 MLOAD DUP1 DUP4 SUB DUP2 DUP6 DUP8 GAS CALL SWAP3 POP POP POP RETURNDATASIZE DUP1 PUSH0 DUP2 EQ PUSH2 0x32F JUMPI PUSH1 0x40 MLOAD SWAP2 POP PUSH1 0x1F NOT PUSH1 0x3F RETURNDATASIZE ADD AND DUP3 ADD PUSH1 0x40 MSTORE RETURNDATASIZE DUP3 MSTORE RETURNDATASIZE PUSH0 PUSH1 0x20 DUP5 ADD RETURNDATACOPY PUSH2 0x334 JUMP JUMPDEST PUSH1 0x60 SWAP2 POP JUMPDEST POP POP SWAP1 POP DUP1 PUSH2 0x378 JUMPI PUSH1 0x40 MLOAD PUSH32 0x8C379A000000000000000000000000000000000000000000000000000000000 DUP2 MSTORE PUSH1 0x4 ADD PUSH2 0x36F SWAP1 PUSH2 0x914 JUMP JUMPDEST PUSH1 0x40 MLOAD DUP1 SWAP2 SUB SWAP1 REVERT JUMPDEST POP JUMP JUMPDEST PUSH1 0x1 PUSH1 0x20 MSTORE DUP1 PUSH0 MSTORE PUSH1 0x40 PUSH0 KECCAK256 PUSH0 SWAP2 POP SWAP1 POP SLOAD DUP2 JUMP JUMPDEST PUSH8 0x1BC16D674EC80000 DUP2 JUMP JUMPDEST PUSH8 0x1BC16D674EC80000 PUSH2 0x3AE CALLVALUE PUSH2 0x501 JUMP JUMPDEST LT ISZERO PUSH2 0x3EF JUMPI PUSH1 0x40 MLOAD PUSH32 0x8C379A000000000000000000000000000000000000000000000000000000000 DUP2 MSTORE PUSH1 0x4 ADD PUSH2 0x3E6 SWAP1 PUSH2 0x97C JUMP JUMPDEST PUSH1 0x40 MLOAD DUP1 SWAP2 SUB SWAP1 REVERT JUMPDEST PUSH0 CALLER SWAP1 DUP1 PUSH1 0x1 DUP2 SLOAD ADD DUP1 DUP3 SSTORE DUP1 SWAP2 POP POP PUSH1 0x1 SWAP1 SUB SWAP1 PUSH0 MSTORE PUSH1 0x20 PUSH0 KECCAK256 ADD PUSH0 SWAP1 SWAP2 SWAP1 SWAP2 SWAP1 SWAP2 PUSH2 0x100 EXP DUP2 SLOAD DUP2 PUSH20 0xFFFFFFFFFFFFFFFFFFFFFFFFFFFFFFFFFFFFFFFF MUL NOT AND SWAP1 DUP4 PUSH20 0xFFFFFFFFFFFFFFFFFFFFFFFFFFFFFFFFFFFFFFFF AND MUL OR SWAP1 SSTORE POP CALLVALUE PUSH1 0x1 PUSH0 CALLER PUSH20 0xFFFFFFFFFFFFFFFFFFFFFFFFFFFFFFFFFFFFFFFF AND PUSH20 0xFFFFFFFFFFFFFFFFFFFFFFFFFFFFFFFFFFFFFFFF AND DUP2 MSTORE PUSH1 0x20 ADD SWAP1 DUP2 MSTORE PUSH1 0x20 ADD PUSH0 KECCAK256 PUSH0 DUP3 DUP3 SLOAD PUSH2 0x49A SWAP2 SWAP1 PUSH2 0x9C7 JUMP JUMPDEST SWAP3 POP POP DUP2 SWAP1 SSTORE POP JUMP JUMPDEST PUSH32 0x0 DUP2 JUMP JUMPDEST PUSH0 DUP2 DUP2 SLOAD DUP2 LT PUSH2 0x4D5 JUMPI PUSH0 DUP1 REVERT JUMPDEST SWAP1 PUSH0 MSTORE PUSH1 0x20 PUSH0 KECCAK256 ADD PUSH0 SWAP2 POP SLOAD SWAP1 PUSH2 0x100 EXP SWAP1 DIV PUSH20 0xFFFFFFFFFFFFFFFFFFFFFFFFFFFFFFFFFFFFFFFF AND DUP2 JUMP JUMPDEST PUSH0 PUSH0 PUSH2 0x50B PUSH2 0x539 JUMP JUMPDEST SWAP1 POP PUSH0 PUSH8 0xDE0B6B3A7640000 DUP5 DUP4 PUSH2 0x523 SWAP2 SWAP1 PUSH2 0x9FA JUMP JUMPDEST PUSH2 0x52D SWAP2 SWAP1 PUSH2 0xA68 JUMP JUMPDEST SWAP1 POP DUP1 SWAP3 POP POP POP SWAP2 SWAP1 POP JUMP JUMPDEST PUSH0 PUSH0 PUSH20 0x694AA1769357215DE4FAC081BF1F309ADC325306 SWAP1 POP PUSH0 DUP2 PUSH20 0xFFFFFFFFFFFFFFFFFFFFFFFFFFFFFFFFFFFFFFFF AND PUSH4 0xFEAF968C PUSH1 0x40 MLOAD DUP2 PUSH4 0xFFFFFFFF AND PUSH1 0xE0 SHL DUP2 MSTORE PUSH1 0x4 ADD PUSH1 0xA0 PUSH1 0x40 MLOAD DUP1 DUP4 SUB DUP2 DUP7 GAS STATICCALL ISZERO DUP1 ISZERO PUSH2 0x59C JUMPI RETURNDATASIZE PUSH0 PUSH0 RETURNDATACOPY RETURNDATASIZE PUSH0 REVERT JUMPDEST POP POP POP POP PUSH1 0x40 MLOAD RETURNDATASIZE PUSH1 0x1F NOT PUSH1 0x1F DUP3 ADD AND DUP3 ADD DUP1 PUSH1 0x40 MSTORE POP DUP2 ADD SWAP1 PUSH2 0x5C0 SWAP2 SWAP1 PUSH2 0xB1E JUMP JUMPDEST POP POP POP SWAP2 POP POP PUSH5 0x2540BE400 DUP2 PUSH2 0x5D7 SWAP2 SWAP1 PUSH2 0xB95 JUMP JUMPDEST SWAP3 POP POP POP SWAP1 JUMP JUMPDEST DUP3 DUP1 SLOAD DUP3 DUP3 SSTORE SWAP1 PUSH0 MSTORE PUSH1 0x20 PUSH0 KECCAK256 SWAP1 DUP2 ADD SWAP3 DUP3 ISZERO PUSH2 0x654 JUMPI SWAP2 PUSH1 0x20 MUL DUP3 ADD JUMPDEST DUP3 DUP2 GT ISZERO PUSH2 0x653 JUMPI DUP3 MLOAD DUP3 PUSH0 PUSH2 0x100 EXP DUP2 SLOAD DUP2 PUSH20 0xFFFFFFFFFFFFFFFFFFFFFFFFFFFFFFFFFFFFFFFF MUL NOT AND SWAP1 DUP4 PUSH20 0xFFFFFFFFFFFFFFFFFFFFFFFFFFFFFFFFFFFFFFFF AND MUL OR SWAP1 SSTORE POP SWAP2 PUSH1 0x20 ADD SWAP2 SWAP1 PUSH1 0x1 ADD SWAP1 PUSH2 0x5FC JUMP JUMPDEST JUMPDEST POP SWAP1 POP PUSH2 0x661 SWAP2 SWAP1 PUSH2 0x665 JUMP JUMPDEST POP SWAP1 JUMP JUMPDEST JUMPDEST DUP1 DUP3 GT ISZERO PUSH2 0x67C JUMPI PUSH0 DUP2 PUSH0 SWAP1 SSTORE POP PUSH1 0x1 ADD PUSH2 0x666 JUMP JUMPDEST POP SWAP1 JUMP JUMPDEST PUSH0 PUSH0 REVERT JUMPDEST PUSH0 PUSH20 0xFFFFFFFFFFFFFFFFFFFFFFFFFFFFFFFFFFFFFFFF DUP3 AND SWAP1 POP SWAP2 SWAP1 POP JUMP JUMPDEST PUSH0 PUSH2 0x6AD DUP3 PUSH2 0x684 JUMP JUMPDEST SWAP1 POP SWAP2 SWAP1 POP JUMP JUMPDEST PUSH2 0x6BD DUP2 PUSH2 0x6A3 JUMP JUMPDEST DUP2 EQ PUSH2 0x6C7 JUMPI PUSH0 PUSH0 REVERT JUMPDEST POP JUMP JUMPDEST PUSH0 DUP2 CALLDATALOAD SWAP1 POP PUSH2 0x6D8 DUP2 PUSH2 0x6B4 JUMP JUMPDEST SWAP3 SWAP2 POP POP JUMP JUMPDEST PUSH0 PUSH1 0x20 DUP3 DUP5 SUB SLT ISZERO PUSH2 0x6F3 JUMPI PUSH2 0x6F2 PUSH2 0x680 JUMP JUMPDEST JUMPDEST PUSH0 PUSH2 0x700 DUP5 DUP3 DUP6 ADD PUSH2 0x6CA JUMP JUMPDEST SWAP2 POP POP SWAP3 SWAP2 POP POP JUMP JUMPDEST PUSH0 DUP2 SWAP1 POP SWAP2 SWAP1 POP JUMP JUMPDEST PUSH2 0x71B DUP2 PUSH2 0x709 JUMP JUMPDEST DUP3 MSTORE POP POP JUMP JUMPDEST PUSH0 PUSH1 0x20 DUP3 ADD SWAP1 POP PUSH2 0x734 PUSH0 DUP4 ADD DUP5 PUSH2 0x712 JUMP JUMPDEST SWAP3 SWAP2 POP POP JUMP JUMPDEST PUSH2 0x743 DUP2 PUSH2 0x6A3 JUMP JUMPDEST DUP3 MSTORE POP POP JUMP JUMPDEST PUSH0 PUSH1 0x20 DUP3 ADD SWAP1 POP PUSH2 0x75C PUSH0 DUP4 ADD DUP5 PUSH2 0x73A JUMP JUMPDEST SWAP3 SWAP2 POP POP JUMP JUMPDEST PUSH2 0x76B DUP2 PUSH2 0x709 JUMP JUMPDEST DUP2 EQ PUSH2 0x775 JUMPI PUSH0 PUSH0 REVERT JUMPDEST POP JUMP JUMPDEST PUSH0 DUP2 CALLDATALOAD SWAP1 POP PUSH2 0x786 DUP2 PUSH2 0x762 JUMP JUMPDEST SWAP3 SWAP2 POP POP JUMP JUMPDEST PUSH0 PUSH1 0x20 DUP3 DUP5 SUB SLT ISZERO PUSH2 0x7A1 JUMPI PUSH2 0x7A0 PUSH2 0x680 JUMP JUMPDEST JUMPDEST PUSH0 PUSH2 0x7AE DUP5 DUP3 DUP6 ADD PUSH2 0x778 JUMP JUMPDEST SWAP2 POP POP SWAP3 SWAP2 POP POP JUMP JUMPDEST PUSH0 DUP3 DUP3 MSTORE PUSH1 0x20 DUP3 ADD SWAP1 POP SWAP3 SWAP2 POP POP JUMP JUMPDEST PUSH32 0x53656E646572206973206E6F74206F776E657221000000000000000000000000 PUSH0 DUP3 ADD MSTORE POP JUMP JUMPDEST PUSH0 PUSH2 0x7FB PUSH1 0x14 DUP4 PUSH2 0x7B7 JUMP JUMPDEST SWAP2 POP PUSH2 0x806 DUP3 PUSH2 0x7C7 JUMP JUMPDEST PUSH1 0x20 DUP3 ADD SWAP1 POP SWAP2 SWAP1 POP JUMP JUMPDEST PUSH0 PUSH1 0x20 DUP3 ADD SWAP1 POP DUP2 DUP2 SUB PUSH0 DUP4 ADD MSTORE PUSH2 0x828 DUP2 PUSH2 0x7EF JUMP JUMPDEST SWAP1 POP SWAP2 SWAP1 POP JUMP JUMPDEST PUSH32 0x4E487B7100000000000000000000000000000000000000000000000000000000 PUSH0 MSTORE PUSH1 0x32 PUSH1 0x4 MSTORE PUSH1 0x24 PUSH0 REVERT JUMPDEST PUSH32 0x4E487B7100000000000000000000000000000000000000000000000000000000 PUSH0 MSTORE PUSH1 0x41 PUSH1 0x4 MSTORE PUSH1 0x24 PUSH0 REVERT JUMPDEST PUSH0 DUP2 SWAP1 POP SWAP3 SWAP2 POP POP JUMP JUMPDEST POP JUMP JUMPDEST PUSH0 PUSH2 0x8A1 PUSH0 DUP4 PUSH2 0x889 JUMP JUMPDEST SWAP2 POP PUSH2 0x8AC DUP3 PUSH2 0x893 JUMP JUMPDEST PUSH0 DUP3 ADD SWAP1 POP SWAP2 SWAP1 POP JUMP JUMPDEST PUSH0 PUSH2 0x8C0 DUP3 PUSH2 0x896 JUMP JUMPDEST SWAP2 POP DUP2 SWAP1 POP SWAP2 SWAP1 POP JUMP JUMPDEST PUSH32 0x63616C6C206661696C6564000000000000000000000000000000000000000000 PUSH0 DUP3 ADD MSTORE POP JUMP JUMPDEST PUSH0 PUSH2 0x8FE PUSH1 0xB DUP4 PUSH2 0x7B7 JUMP JUMPDEST SWAP2 POP PUSH2 0x909 DUP3 PUSH2 0x8CA JUMP JUMPDEST PUSH1 0x20 DUP3 ADD SWAP1 POP SWAP2 SWAP1 POP JUMP JUMPDEST PUSH0 PUSH1 0x20 DUP3 ADD SWAP1 POP DUP2 DUP2 SUB PUSH0 DUP4 ADD MSTORE PUSH2 0x92B DUP2 PUSH2 0x8F2 JUMP JUMPDEST SWAP1 POP SWAP2 SWAP1 POP JUMP JUMPDEST PUSH32 0x6469646E27742073656E6420656E6F7567682045544800000000000000000000 PUSH0 DUP3 ADD MSTORE POP JUMP JUMPDEST PUSH0 PUSH2 0x966 PUSH1 0x16 DUP4 PUSH2 0x7B7 JUMP JUMPDEST SWAP2 POP PUSH2 0x971 DUP3 PUSH2 0x932 JUMP JUMPDEST PUSH1 0x20 DUP3 ADD SWAP1 POP SWAP2 SWAP1 POP JUMP JUMPDEST PUSH0 PUSH1 0x20 DUP3 ADD SWAP1 POP DUP2 DUP2 SUB PUSH0 DUP4 ADD MSTORE PUSH2 0x993 DUP2 PUSH2 0x95A JUMP JUMPDEST SWAP1 POP SWAP2 SWAP1 POP JUMP JUMPDEST PUSH32 0x4E487B7100000000000000000000000000000000000000000000000000000000 PUSH0 MSTORE PUSH1 0x11 PUSH1 0x4 MSTORE PUSH1 0x24 PUSH0 REVERT JUMPDEST PUSH0 PUSH2 0x9D1 DUP3 PUSH2 0x709 JUMP JUMPDEST SWAP2 POP PUSH2 0x9DC DUP4 PUSH2 0x709 JUMP JUMPDEST SWAP3 POP DUP3 DUP3 ADD SWAP1 POP DUP1 DUP3 GT ISZERO PUSH2 0x9F4 JUMPI PUSH2 0x9F3 PUSH2 0x99A JUMP JUMPDEST JUMPDEST SWAP3 SWAP2 POP POP JUMP JUMPDEST PUSH0 PUSH2 0xA04 DUP3 PUSH2 0x709 JUMP JUMPDEST SWAP2 POP PUSH2 0xA0F DUP4 PUSH2 0x709 JUMP JUMPDEST SWAP3 POP DUP3 DUP3 MUL PUSH2 0xA1D DUP2 PUSH2 0x709 JUMP JUMPDEST SWAP2 POP DUP3 DUP3 DIV DUP5 EQ DUP4 ISZERO OR PUSH2 0xA34 JUMPI PUSH2 0xA33 PUSH2 0x99A JUMP JUMPDEST JUMPDEST POP SWAP3 SWAP2 POP POP JUMP JUMPDEST PUSH32 0x4E487B7100000000000000000000000000000000000000000000000000000000 PUSH0 MSTORE PUSH1 0x12 PUSH1 0x4 MSTORE PUSH1 0x24 PUSH0 REVERT JUMPDEST PUSH0 PUSH2 0xA72 DUP3 PUSH2 0x709 JUMP JUMPDEST SWAP2 POP PUSH2 0xA7D DUP4 PUSH2 0x709 JUMP JUMPDEST SWAP3 POP DUP3 PUSH2 0xA8D JUMPI PUSH2 0xA8C PUSH2 0xA3B JUMP JUMPDEST JUMPDEST DUP3 DUP3 DIV SWAP1 POP SWAP3 SWAP2 POP POP JUMP JUMPDEST PUSH0 PUSH10 0xFFFFFFFFFFFFFFFFFFFF DUP3 AND SWAP1 POP SWAP2 SWAP1 POP JUMP JUMPDEST PUSH2 0xAB6 DUP2 PUSH2 0xA98 JUMP JUMPDEST DUP2 EQ PUSH2 0xAC0 JUMPI PUSH0 PUSH0 REVERT JUMPDEST POP JUMP JUMPDEST PUSH0 DUP2 MLOAD SWAP1 POP PUSH2 0xAD1 DUP2 PUSH2 0xAAD JUMP JUMPDEST SWAP3 SWAP2 POP POP JUMP JUMPDEST PUSH0 DUP2 SWAP1 POP SWAP2 SWAP1 POP JUMP JUMPDEST PUSH2 0xAE9 DUP2 PUSH2 0xAD7 JUMP JUMPDEST DUP2 EQ PUSH2 0xAF3 JUMPI PUSH0 PUSH0 REVERT JUMPDEST POP JUMP JUMPDEST PUSH0 DUP2 MLOAD SWAP1 POP PUSH2 0xB04 DUP2 PUSH2 0xAE0 JUMP JUMPDEST SWAP3 SWAP2 POP POP JUMP JUMPDEST PUSH0 DUP2 MLOAD SWAP1 POP PUSH2 0xB18 DUP2 PUSH2 0x762 JUMP JUMPDEST SWAP3 SWAP2 POP POP JUMP JUMPDEST PUSH0 PUSH0 PUSH0 PUSH0 PUSH0 PUSH1 0xA0 DUP7 DUP9 SUB SLT ISZERO PUSH2 0xB37 JUMPI PUSH2 0xB36 PUSH2 0x680 JUMP JUMPDEST JUMPDEST PUSH0 PUSH2 0xB44 DUP9 DUP3 DUP10 ADD PUSH2 0xAC3 JUMP JUMPDEST SWAP6 POP POP PUSH1 0x20 PUSH2 0xB55 DUP9 DUP3 DUP10 ADD PUSH2 0xAF6 JUMP JUMPDEST SWAP5 POP POP PUSH1 0x40 PUSH2 0xB66 DUP9 DUP3 DUP10 ADD PUSH2 0xB0A JUMP JUMPDEST SWAP4 POP POP PUSH1 0x60 PUSH2 0xB77 DUP9 DUP3 DUP10 ADD PUSH2 0xB0A JUMP JUMPDEST SWAP3 POP POP PUSH1 0x80 PUSH2 0xB88 DUP9 DUP3 DUP10 ADD PUSH2 0xAC3 JUMP JUMPDEST SWAP2 POP POP SWAP3 SWAP6 POP SWAP3 SWAP6 SWAP1 SWAP4 POP JUMP JUMPDEST PUSH0 PUSH2 0xB9F DUP3 PUSH2 0xAD7 JUMP JUMPDEST SWAP2 POP PUSH2 0xBAA DUP4 PUSH2 0xAD7 JUMP JUMPDEST SWAP3 POP DUP3 DUP3 MUL PUSH2 0xBB8 DUP2 PUSH2 0xAD7 JUMP JUMPDEST SWAP2 POP PUSH32 0x8000000000000000000000000000000000000000000000000000000000000000 DUP5 EQ PUSH0 DUP5 SLT AND ISZERO PUSH2 0xBEF JUMPI PUSH2 0xBEE PUSH2 0x99A JUMP JUMPDEST JUMPDEST DUP3 DUP3 SDIV DUP5 EQ DUP4 ISZERO OR PUSH2 0xC04 JUMPI PUSH2 0xC03 PUSH2 0x99A JUMP JUMPDEST JUMPDEST POP SWAP3 SWAP2 POP POP JUMP INVALID LOG2 PUSH5 0x6970667358 0x22 SLT KECCAK256 KECCAK256 0xC9 0xCF PUSH0 CALLCODE TIMESTAMP DUP4 0xD8 PUSH16 0x9E421B1519DD98882138756138BB6CA2 0xAB 0xE8 LOG3 DUP4 0xC 0xD2 DUP3 PUSH5 0x736F6C6343 STOP ADDMOD 0x1E STOP CALLER "
				},
				"gasEstimates": {
					"creation": {
						"codeDepositCost": "627400",
						"executionCost": "infinite",
						"totalCost": "infinite"
					},
					"external": {
						"MINIMUM_USD()": "347",
						"addressToAmountFunded(address)": "2802",
						"fund()": "infinite",
						"funders(uint256)": "5031",
						"i_owner()": "infinite",
						"withdraw()": "infinite"
					}
				},
				"methodIdentifiers": {
					"MINIMUM_USD()": "6b69a592",
					"addressToAmountFunded(address)": "3e47d6f3",
					"fund()": "b60d4288",
					"funders(uint256)": "dc0d3dff",
					"i_owner()": "dba6335f",
					"withdraw()": "3ccfd60b"
				}
			},
			"storageLayout": {
				"storage": [
					{
						"astId": 60,
						"contract": "FundMe.sol:FundMe",
						"label": "funders",
						"offset": 0,
						"slot": "0",
						"type": "t_array(t_address)dyn_storage"
					},
					{
						"astId": 64,
						"contract": "FundMe.sol:FundMe",
						"label": "addressToAmountFunded",
						"offset": 0,
						"slot": "1",
						"type": "t_mapping(t_address,t_uint256)"
					}
				],
				"types": {
					"t_address": {
						"encoding": "inplace",
						"label": "address",
						"numberOfBytes": "20"
					},
					"t_array(t_address)dyn_storage": {
						"base": "t_address",
						"encoding": "dynamic_array",
						"label": "address[]",
						"numberOfBytes": "32"
					},
					"t_mapping(t_address,t_uint256)": {
						"encoding": "mapping",
						"key": "t_address",
						"label": "mapping(address => uint256)",
						"numberOfBytes": "32",
						"value": "t_uint256"
					},
					"t_uint256": {
						"encoding": "inplace",
						"label": "uint256",
						"numberOfBytes": "32"
					}
				}
			},
			"userdoc": {
				"kind": "user",
				"methods": {},
				"version": 1
			}
		}
	}
}